{
  "_format": "hh-sol-artifact-1",
  "contractName": "NFT",
  "sourceName": "src/backend/contracts/NFT.sol",
  "abi": [
    {
      "inputs": [
        {
          "internalType": "bytes32",
          "name": "_whitelistRoot",
          "type": "bytes32"
        }
      ],
      "stateMutability": "nonpayable",
      "type": "constructor"
    },
    {
      "anonymous": false,
      "inputs": [
        {
          "indexed": true,
          "internalType": "address",
          "name": "owner",
          "type": "address"
        },
        {
          "indexed": true,
          "internalType": "address",
          "name": "approved",
          "type": "address"
        },
        {
          "indexed": true,
          "internalType": "uint256",
          "name": "tokenId",
          "type": "uint256"
        }
      ],
      "name": "Approval",
      "type": "event"
    },
    {
      "anonymous": false,
      "inputs": [
        {
          "indexed": true,
          "internalType": "address",
          "name": "owner",
          "type": "address"
        },
        {
          "indexed": true,
          "internalType": "address",
          "name": "operator",
          "type": "address"
        },
        {
          "indexed": false,
          "internalType": "bool",
          "name": "approved",
          "type": "bool"
        }
      ],
      "name": "ApprovalForAll",
      "type": "event"
    },
    {
      "anonymous": false,
      "inputs": [
        {
          "indexed": false,
          "internalType": "address",
          "name": "user",
          "type": "address"
        }
      ],
      "name": "MintSuccessful",
      "type": "event"
    },
    {
      "anonymous": false,
      "inputs": [
        {
          "indexed": true,
          "internalType": "address",
          "name": "previousOwner",
          "type": "address"
        },
        {
          "indexed": true,
          "internalType": "address",
          "name": "newOwner",
          "type": "address"
        }
      ],
      "name": "OwnershipTransferred",
      "type": "event"
    },
    {
      "anonymous": false,
      "inputs": [
        {
          "indexed": true,
          "internalType": "address",
          "name": "from",
          "type": "address"
        },
        {
          "indexed": true,
          "internalType": "address",
          "name": "to",
          "type": "address"
        },
        {
          "indexed": true,
          "internalType": "uint256",
          "name": "tokenId",
          "type": "uint256"
        }
      ],
      "name": "Transfer",
      "type": "event"
    },
    {
      "inputs": [],
      "name": "amountMintPerAccount",
      "outputs": [
        {
          "internalType": "uint256",
          "name": "",
          "type": "uint256"
        }
      ],
      "stateMutability": "view",
      "type": "function"
    },
    {
      "inputs": [
        {
          "internalType": "address",
          "name": "to",
          "type": "address"
        },
        {
          "internalType": "uint256",
          "name": "tokenId",
          "type": "uint256"
        }
      ],
      "name": "approve",
      "outputs": [],
      "stateMutability": "nonpayable",
      "type": "function"
    },
    {
      "inputs": [
        {
          "internalType": "address",
          "name": "owner",
          "type": "address"
        }
      ],
      "name": "balanceOf",
      "outputs": [
        {
          "internalType": "uint256",
          "name": "",
          "type": "uint256"
        }
      ],
      "stateMutability": "view",
      "type": "function"
    },
    {
      "inputs": [],
      "name": "baseTokenURI",
      "outputs": [
        {
          "internalType": "string",
          "name": "",
          "type": "string"
        }
      ],
      "stateMutability": "pure",
      "type": "function"
    },
    {
      "inputs": [
        {
          "internalType": "uint256",
          "name": "tokenId",
          "type": "uint256"
        }
      ],
      "name": "burn",
      "outputs": [],
      "stateMutability": "nonpayable",
      "type": "function"
    },
    {
      "inputs": [],
      "name": "contractURI",
      "outputs": [
        {
          "internalType": "string",
          "name": "",
          "type": "string"
        }
      ],
      "stateMutability": "pure",
      "type": "function"
    },
    {
      "inputs": [],
      "name": "currentToken",
      "outputs": [
        {
          "internalType": "uint256",
          "name": "",
          "type": "uint256"
        }
      ],
      "stateMutability": "view",
      "type": "function"
    },
    {
      "inputs": [
        {
          "internalType": "uint256",
          "name": "tokenId",
          "type": "uint256"
        }
      ],
      "name": "getApproved",
      "outputs": [
        {
          "internalType": "address",
          "name": "",
          "type": "address"
        }
      ],
      "stateMutability": "view",
      "type": "function"
    },
    {
      "inputs": [
        {
          "internalType": "address",
          "name": "owner",
          "type": "address"
        },
        {
          "internalType": "address",
          "name": "operator",
          "type": "address"
        }
      ],
      "name": "isApprovedForAll",
      "outputs": [
        {
          "internalType": "bool",
          "name": "",
          "type": "bool"
        }
      ],
      "stateMutability": "view",
      "type": "function"
    },
    {
      "inputs": [
        {
          "internalType": "bytes32[]",
          "name": "_proof",
          "type": "bytes32[]"
        },
        {
          "internalType": "bytes32",
          "name": "_leaf",
          "type": "bytes32"
        }
      ],
      "name": "isValid",
      "outputs": [
        {
          "internalType": "bool",
          "name": "",
          "type": "bool"
        }
      ],
      "stateMutability": "view",
      "type": "function"
    },
    {
      "inputs": [],
      "name": "max_supply",
      "outputs": [
        {
          "internalType": "uint256",
          "name": "",
          "type": "uint256"
        }
      ],
      "stateMutability": "view",
      "type": "function"
    },
    {
      "inputs": [
        {
          "internalType": "bytes32[]",
          "name": "_proof",
          "type": "bytes32[]"
        }
      ],
      "name": "mint",
      "outputs": [],
      "stateMutability": "nonpayable",
      "type": "function"
    },
    {
      "inputs": [],
      "name": "name",
      "outputs": [
        {
          "internalType": "string",
          "name": "",
          "type": "string"
        }
      ],
      "stateMutability": "view",
      "type": "function"
    },
    {
      "inputs": [],
      "name": "owner",
      "outputs": [
        {
          "internalType": "address",
          "name": "",
          "type": "address"
        }
      ],
      "stateMutability": "view",
      "type": "function"
    },
    {
      "inputs": [
        {
          "internalType": "uint256",
          "name": "tokenId",
          "type": "uint256"
        }
      ],
      "name": "ownerOf",
      "outputs": [
        {
          "internalType": "address",
          "name": "",
          "type": "address"
        }
      ],
      "stateMutability": "view",
      "type": "function"
    },
    {
      "inputs": [],
      "name": "publicSaleEnabled",
      "outputs": [
        {
          "internalType": "bool",
          "name": "",
          "type": "bool"
        }
      ],
      "stateMutability": "view",
      "type": "function"
    },
    {
      "inputs": [],
      "name": "renounceOwnership",
      "outputs": [],
      "stateMutability": "nonpayable",
      "type": "function"
    },
    {
      "inputs": [
        {
          "internalType": "address",
          "name": "from",
          "type": "address"
        },
        {
          "internalType": "address",
          "name": "to",
          "type": "address"
        },
        {
          "internalType": "uint256",
          "name": "tokenId",
          "type": "uint256"
        }
      ],
      "name": "safeTransferFrom",
      "outputs": [],
      "stateMutability": "nonpayable",
      "type": "function"
    },
    {
      "inputs": [
        {
          "internalType": "address",
          "name": "from",
          "type": "address"
        },
        {
          "internalType": "address",
          "name": "to",
          "type": "address"
        },
        {
          "internalType": "uint256",
          "name": "tokenId",
          "type": "uint256"
        },
        {
          "internalType": "bytes",
          "name": "_data",
          "type": "bytes"
        }
      ],
      "name": "safeTransferFrom",
      "outputs": [],
      "stateMutability": "nonpayable",
      "type": "function"
    },
    {
      "inputs": [
        {
          "internalType": "uint256",
          "name": "_amountMintPerAccount",
          "type": "uint256"
        }
      ],
      "name": "setAmountMintPerAccount",
      "outputs": [],
      "stateMutability": "nonpayable",
      "type": "function"
    },
    {
      "inputs": [
        {
          "internalType": "address",
          "name": "operator",
          "type": "address"
        },
        {
          "internalType": "bool",
          "name": "approved",
          "type": "bool"
        }
      ],
      "name": "setApprovalForAll",
      "outputs": [],
      "stateMutability": "nonpayable",
      "type": "function"
    },
    {
      "inputs": [
        {
          "internalType": "bool",
          "name": "_state",
          "type": "bool"
        }
      ],
      "name": "setPublicSaleEnabled",
      "outputs": [],
      "stateMutability": "nonpayable",
      "type": "function"
    },
    {
      "inputs": [
        {
          "internalType": "bytes32",
          "name": "_whitelistRoot",
          "type": "bytes32"
        }
      ],
      "name": "setWhitelistRoot",
      "outputs": [],
      "stateMutability": "nonpayable",
      "type": "function"
    },
    {
      "inputs": [
        {
          "internalType": "bytes4",
          "name": "interfaceId",
          "type": "bytes4"
        }
      ],
      "name": "supportsInterface",
      "outputs": [
        {
          "internalType": "bool",
          "name": "",
          "type": "bool"
        }
      ],
      "stateMutability": "view",
      "type": "function"
    },
    {
      "inputs": [],
      "name": "symbol",
      "outputs": [
        {
          "internalType": "string",
          "name": "",
          "type": "string"
        }
      ],
      "stateMutability": "view",
      "type": "function"
    },
    {
      "inputs": [
        {
          "internalType": "uint256",
          "name": "_tokenId",
          "type": "uint256"
        }
      ],
      "name": "tokenURI",
      "outputs": [
        {
          "internalType": "string",
          "name": "",
          "type": "string"
        }
      ],
      "stateMutability": "view",
      "type": "function"
    },
    {
      "inputs": [
        {
          "internalType": "address",
          "name": "from",
          "type": "address"
        },
        {
          "internalType": "address",
          "name": "to",
          "type": "address"
        },
        {
          "internalType": "uint256",
          "name": "tokenId",
          "type": "uint256"
        }
      ],
      "name": "transferFrom",
      "outputs": [],
      "stateMutability": "nonpayable",
      "type": "function"
    },
    {
      "inputs": [
        {
          "internalType": "address",
          "name": "newOwner",
          "type": "address"
        }
      ],
      "name": "transferOwnership",
      "outputs": [],
      "stateMutability": "nonpayable",
      "type": "function"
    },
    {
      "inputs": [],
      "name": "uriPrefix",
      "outputs": [
        {
          "internalType": "string",
          "name": "",
          "type": "string"
        }
      ],
      "stateMutability": "view",
      "type": "function"
    },
    {
      "inputs": [],
      "name": "uriSuffix",
      "outputs": [
        {
          "internalType": "string",
          "name": "",
          "type": "string"
        }
      ],
      "stateMutability": "view",
      "type": "function"
    },
    {
      "inputs": [],
      "name": "whitelistRoot",
      "outputs": [
        {
          "internalType": "bytes32",
          "name": "",
          "type": "bytes32"
        }
      ],
      "stateMutability": "view",
      "type": "function"
    },
    {
      "inputs": [],
      "name": "withdraw",
      "outputs": [],
      "stateMutability": "nonpayable",
      "type": "function"
    }
  ],
  "bytecode": "0x608060405260405180602001604052806000815250600790805190602001906200002b92919062000257565b506040518060400160405280600581526020017f2e6a736f6e000000000000000000000000000000000000000000000000000000815250600890805190602001906200007992919062000257565b506113886009556001600a556000600b553480156200009757600080fd5b5060405162003eab38038062003eab8339818101604052810190620000bd91906200031e565b6040518060400160405280601f81526020017f4f72652052616964202d20456c73652045786368616e6765205469636b6574008152506040518060400160405280600581526020017f454c534554000000000000000000000000000000000000000000000000000000815250620001496200013d6200018b60201b60201c565b6200019360201b60201c565b81600190805190602001906200016192919062000257565b5080600290805190602001906200017a92919062000257565b50505080600c8190555050620003d3565b600033905090565b60008060009054906101000a900473ffffffffffffffffffffffffffffffffffffffff169050816000806101000a81548173ffffffffffffffffffffffffffffffffffffffff021916908373ffffffffffffffffffffffffffffffffffffffff1602179055508173ffffffffffffffffffffffffffffffffffffffff168173ffffffffffffffffffffffffffffffffffffffff167f8be0079c531659141344cd1fd0a4f28419497f9722a3daafe3b4186f6b6457e060405160405180910390a35050565b828054620002659062000354565b90600052602060002090601f016020900481019282620002895760008555620002d5565b82601f10620002a457805160ff1916838001178555620002d5565b82800160010185558215620002d5579182015b82811115620002d4578251825591602001919060010190620002b7565b5b509050620002e49190620002e8565b5090565b5b8082111562000303576000816000905550600101620002e9565b5090565b6000815190506200031881620003b9565b92915050565b6000602082840312156200033157600080fd5b6000620003418482850162000307565b91505092915050565b6000819050919050565b600060028204905060018216806200036d57607f821691505b602082108114156200038457620003836200038a565b5b50919050565b7f4e487b7100000000000000000000000000000000000000000000000000000000600052602260045260246000fd5b620003c4816200034a565b8114620003d057600080fd5b50565b613ac880620003e36000396000f3fe608060405234801561001057600080fd5b50600436106101f05760003560e01c8063836c081d1161010f578063b88d4fde116100a2578063e8a3d48511610071578063e8a3d4851461056f578063e985e9c51461058d578063f2fde38b146105bd578063f5aa406d146105d9576101f0565b8063b88d4fde146104d5578063b8a20ed0146104f1578063c87b56dd14610521578063d547cfb714610551576101f0565b806395d89b41116100de57806395d89b4114610461578063a22cb4651461047f578063a827b5ff1461049b578063b77a147b146104b9576101f0565b8063836c081d146103eb5780638720fbef146104095780638a333b50146104255780638da5cb5b14610443576101f0565b80633ccfd60b1161018757806362b99ad41161015657806362b99ad4146103635780636352211e1461038157806370a08231146103b1578063715018a6146103e1576101f0565b80633ccfd60b1461030357806342842e0e1461030d57806342966c68146103295780635503a0e814610345576101f0565b806311296660116101c3578063112966601461028f57806323b872dd146102ab5780632ab91bba146102c7578063386bfc98146102e5576101f0565b806301ffc9a7146101f557806306fdde0314610225578063081812fc14610243578063095ea7b314610273575b600080fd5b61020f600480360381019061020a91906127e9565b6105f5565b60405161021c9190612d48565b60405180910390f35b61022d6106d7565b60405161023a9190612d7e565b60405180910390f35b61025d6004803603810190610258919061283b565b610769565b60405161026a9190612ce1565b60405180910390f35b61028d600480360381019061028891906126c6565b6107ee565b005b6102a960048036038101906102a4919061283b565b610906565b005b6102c560048036038101906102c091906125c0565b61098c565b005b6102cf6109ec565b6040516102dc9190612d48565b60405180910390f35b6102ed6109ff565b6040516102fa9190612d63565b60405180910390f35b61030b610a05565b005b610327600480360381019061032291906125c0565b610aca565b005b610343600480360381019061033e919061283b565b610aea565b005b61034d610b46565b60405161035a9190612d7e565b60405180910390f35b61036b610bd4565b6040516103789190612d7e565b60405180910390f35b61039b6004803603810190610396919061283b565b610c62565b6040516103a89190612ce1565b60405180910390f35b6103cb60048036038101906103c6919061255b565b610d14565b6040516103d89190613020565b60405180910390f35b6103e9610dcc565b005b6103f3610e54565b6040516104009190613020565b60405180910390f35b610423600480360381019061041e9190612797565b610e5a565b005b61042d610ef3565b60405161043a9190613020565b60405180910390f35b61044b610ef9565b6040516104589190612ce1565b60405180910390f35b610469610f22565b6040516104769190612d7e565b60405180910390f35b6104996004803603810190610494919061268a565b610fb4565b005b6104a3610fca565b6040516104b09190613020565b60405180910390f35b6104d360048036038101906104ce9190612702565b610fd0565b005b6104ef60048036038101906104ea919061260f565b611148565b005b61050b60048036038101906105069190612743565b6111aa565b6040516105189190612d48565b60405180910390f35b61053b6004803603810190610536919061283b565b6111c1565b6040516105489190612d7e565b60405180910390f35b61055961126b565b6040516105669190612d7e565b60405180910390f35b61057761127a565b6040516105849190612d7e565b60405180910390f35b6105a760048036038101906105a29190612584565b61129a565b6040516105b49190612d48565b60405180910390f35b6105d760048036038101906105d2919061255b565b61132e565b005b6105f360048036038101906105ee91906127c0565b611426565b005b60007f80ac58cd000000000000000000000000000000000000000000000000000000007bffffffffffffffffffffffffffffffffffffffffffffffffffffffff1916827bffffffffffffffffffffffffffffffffffffffffffffffffffffffff191614806106c057507f5b5e139f000000000000000000000000000000000000000000000000000000007bffffffffffffffffffffffffffffffffffffffffffffffffffffffff1916827bffffffffffffffffffffffffffffffffffffffffffffffffffffffff1916145b806106d057506106cf826114ac565b5b9050919050565b6060600180546106e690613290565b80601f016020809104026020016040519081016040528092919081815260200182805461071290613290565b801561075f5780601f106107345761010080835404028352916020019161075f565b820191906000526020600020905b81548152906001019060200180831161074257829003601f168201915b5050505050905090565b600061077482611516565b6107b3576040517f08c379a00000000000000000000000000000000000000000000000000000000081526004016107aa90612f40565b60405180910390fd5b6005600083815260200190815260200160002060009054906101000a900473ffffffffffffffffffffffffffffffffffffffff169050919050565b60006107f982610c62565b90508073ffffffffffffffffffffffffffffffffffffffff168373ffffffffffffffffffffffffffffffffffffffff16141561086a576040517f08c379a000000000000000000000000000000000000000000000000000000000815260040161086190612fc0565b60405180910390fd5b8073ffffffffffffffffffffffffffffffffffffffff16610889611582565b73ffffffffffffffffffffffffffffffffffffffff1614806108b857506108b7816108b2611582565b61129a565b5b6108f7576040517f08c379a00000000000000000000000000000000000000000000000000000000081526004016108ee90612ea0565b60405180910390fd5b610901838361158a565b505050565b61090e611582565b73ffffffffffffffffffffffffffffffffffffffff1661092c610ef9565b73ffffffffffffffffffffffffffffffffffffffff1614610982576040517f08c379a000000000000000000000000000000000000000000000000000000000815260040161097990612f60565b60405180910390fd5b80600a8190555050565b61099d610997611582565b82611643565b6109dc576040517f08c379a00000000000000000000000000000000000000000000000000000000081526004016109d390612fe0565b60405180910390fd5b6109e7838383611721565b505050565b600d60009054906101000a900460ff1681565b600c5481565b610a0d611582565b73ffffffffffffffffffffffffffffffffffffffff16610a2b610ef9565b73ffffffffffffffffffffffffffffffffffffffff1614610a81576040517f08c379a0000000000000000000000000000000000000000000000000000000008152600401610a7890612f60565b60405180910390fd5b3373ffffffffffffffffffffffffffffffffffffffff166108fc479081150290604051600060405180830381858888f19350505050158015610ac7573d6000803e3d6000fd5b50565b610ae583838360405180602001604052806000815250611148565b505050565b610afb610af5611582565b82611643565b610b3a576040517f08c379a0000000000000000000000000000000000000000000000000000000008152600401610b3190613000565b60405180910390fd5b610b4381611988565b50565b60088054610b5390613290565b80601f0160208091040260200160405190810160405280929190818152602001828054610b7f90613290565b8015610bcc5780601f10610ba157610100808354040283529160200191610bcc565b820191906000526020600020905b815481529060010190602001808311610baf57829003601f168201915b505050505081565b60078054610be190613290565b80601f0160208091040260200160405190810160405280929190818152602001828054610c0d90613290565b8015610c5a5780601f10610c2f57610100808354040283529160200191610c5a565b820191906000526020600020905b815481529060010190602001808311610c3d57829003601f168201915b505050505081565b6000806003600084815260200190815260200160002060009054906101000a900473ffffffffffffffffffffffffffffffffffffffff169050600073ffffffffffffffffffffffffffffffffffffffff168173ffffffffffffffffffffffffffffffffffffffff161415610d0b576040517f08c379a0000000000000000000000000000000000000000000000000000000008152600401610d0290612ee0565b60405180910390fd5b80915050919050565b60008073ffffffffffffffffffffffffffffffffffffffff168273ffffffffffffffffffffffffffffffffffffffff161415610d85576040517f08c379a0000000000000000000000000000000000000000000000000000000008152600401610d7c90612ec0565b60405180910390fd5b600460008373ffffffffffffffffffffffffffffffffffffffff1673ffffffffffffffffffffffffffffffffffffffff168152602001908152602001600020549050919050565b610dd4611582565b73ffffffffffffffffffffffffffffffffffffffff16610df2610ef9565b73ffffffffffffffffffffffffffffffffffffffff1614610e48576040517f08c379a0000000000000000000000000000000000000000000000000000000008152600401610e3f90612f60565b60405180910390fd5b610e526000611aa5565b565b600b5481565b610e62611582565b73ffffffffffffffffffffffffffffffffffffffff16610e80610ef9565b73ffffffffffffffffffffffffffffffffffffffff1614610ed6576040517f08c379a0000000000000000000000000000000000000000000000000000000008152600401610ecd90612f60565b60405180910390fd5b80600d60006101000a81548160ff02191690831515021790555050565b60095481565b60008060009054906101000a900473ffffffffffffffffffffffffffffffffffffffff16905090565b606060028054610f3190613290565b80601f0160208091040260200160405190810160405280929190818152602001828054610f5d90613290565b8015610faa5780601f10610f7f57610100808354040283529160200191610faa565b820191906000526020600020905b815481529060010190602001808311610f8d57829003601f168201915b5050505050905090565b610fc6610fbf611582565b8383611b69565b5050565b600a5481565b600a54610fdc33610d14565b1061101c576040517f08c379a000000000000000000000000000000000000000000000000000000000815260040161101390612f80565b60405180910390fd5b600954600b5410611062576040517f08c379a000000000000000000000000000000000000000000000000000000000815260040161105990612e00565b60405180910390fd5b600d60009054906101000a900460ff16806110a957506110a8813360405160200161108d9190612c95565b604051602081830303815290604052805190602001206111aa565b5b6110e8576040517f08c379a00000000000000000000000000000000000000000000000000000000081526004016110df90612f20565b60405180910390fd5b6001600b60008282546110fb9190613115565b9250508190555061110e33600b54611cd6565b7ff5535ccd9f40eb4bc73fac8710dbb2effbf3329da83f62b35d9aa88161bb85ca3360405161113d9190612ce1565b60405180910390a150565b611159611153611582565b83611643565b611198576040517f08c379a000000000000000000000000000000000000000000000000000000000815260040161118f90612fe0565b60405180910390fd5b6111a484848484611cf4565b50505050565b60006111b983600c5484611d50565b905092915050565b60606111cc82611516565b61120b576040517f08c379a000000000000000000000000000000000000000000000000000000000815260040161120290612fa0565b60405180910390fd5b6000611215611d67565b905060008151116112355760405180602001604052806000815250611263565b8061123f84611d87565b600860405160200161125393929190612cb0565b6040516020818303038152906040525b915050919050565b6060611275611d67565b905090565b6060604051806060016040528060368152602001613a5d60369139905090565b6000600660008473ffffffffffffffffffffffffffffffffffffffff1673ffffffffffffffffffffffffffffffffffffffff16815260200190815260200160002060008373ffffffffffffffffffffffffffffffffffffffff1673ffffffffffffffffffffffffffffffffffffffff16815260200190815260200160002060009054906101000a900460ff16905092915050565b611336611582565b73ffffffffffffffffffffffffffffffffffffffff16611354610ef9565b73ffffffffffffffffffffffffffffffffffffffff16146113aa576040517f08c379a00000000000000000000000000000000000000000000000000000000081526004016113a190612f60565b60405180910390fd5b600073ffffffffffffffffffffffffffffffffffffffff168173ffffffffffffffffffffffffffffffffffffffff16141561141a576040517f08c379a000000000000000000000000000000000000000000000000000000000815260040161141190612dc0565b60405180910390fd5b61142381611aa5565b50565b61142e611582565b73ffffffffffffffffffffffffffffffffffffffff1661144c610ef9565b73ffffffffffffffffffffffffffffffffffffffff16146114a2576040517f08c379a000000000000000000000000000000000000000000000000000000000815260040161149990612f60565b60405180910390fd5b80600c8190555050565b60007f01ffc9a7000000000000000000000000000000000000000000000000000000007bffffffffffffffffffffffffffffffffffffffffffffffffffffffff1916827bffffffffffffffffffffffffffffffffffffffffffffffffffffffff1916149050919050565b60008073ffffffffffffffffffffffffffffffffffffffff166003600084815260200190815260200160002060009054906101000a900473ffffffffffffffffffffffffffffffffffffffff1673ffffffffffffffffffffffffffffffffffffffff1614159050919050565b600033905090565b816005600083815260200190815260200160002060006101000a81548173ffffffffffffffffffffffffffffffffffffffff021916908373ffffffffffffffffffffffffffffffffffffffff160217905550808273ffffffffffffffffffffffffffffffffffffffff166115fd83610c62565b73ffffffffffffffffffffffffffffffffffffffff167f8c5be1e5ebec7d5bd14f71427d1e84f3dd0314c0f7b2291e5b200ac8c7c3b92560405160405180910390a45050565b600061164e82611516565b61168d576040517f08c379a000000000000000000000000000000000000000000000000000000000815260040161168490612e80565b60405180910390fd5b600061169883610c62565b90508073ffffffffffffffffffffffffffffffffffffffff168473ffffffffffffffffffffffffffffffffffffffff16148061170757508373ffffffffffffffffffffffffffffffffffffffff166116ef84610769565b73ffffffffffffffffffffffffffffffffffffffff16145b806117185750611717818561129a565b5b91505092915050565b8273ffffffffffffffffffffffffffffffffffffffff1661174182610c62565b73ffffffffffffffffffffffffffffffffffffffff1614611797576040517f08c379a000000000000000000000000000000000000000000000000000000000815260040161178e90612de0565b60405180910390fd5b600073ffffffffffffffffffffffffffffffffffffffff168273ffffffffffffffffffffffffffffffffffffffff161415611807576040517f08c379a00000000000000000000000000000000000000000000000000000000081526004016117fe90612e40565b60405180910390fd5b611812838383611f34565b61181d60008261158a565b6001600460008573ffffffffffffffffffffffffffffffffffffffff1673ffffffffffffffffffffffffffffffffffffffff168152602001908152602001600020600082825461186d919061319c565b925050819055506001600460008473ffffffffffffffffffffffffffffffffffffffff1673ffffffffffffffffffffffffffffffffffffffff16815260200190815260200160002060008282546118c49190613115565b92505081905550816003600083815260200190815260200160002060006101000a81548173ffffffffffffffffffffffffffffffffffffffff021916908373ffffffffffffffffffffffffffffffffffffffff160217905550808273ffffffffffffffffffffffffffffffffffffffff168473ffffffffffffffffffffffffffffffffffffffff167fddf252ad1be2c89b69c2b068fc378daa952ba7f163c4a11628f55a4df523b3ef60405160405180910390a4611983838383611f39565b505050565b600061199382610c62565b90506119a181600084611f34565b6119ac60008361158a565b6001600460008373ffffffffffffffffffffffffffffffffffffffff1673ffffffffffffffffffffffffffffffffffffffff16815260200190815260200160002060008282546119fc919061319c565b925050819055506003600083815260200190815260200160002060006101000a81549073ffffffffffffffffffffffffffffffffffffffff021916905581600073ffffffffffffffffffffffffffffffffffffffff168273ffffffffffffffffffffffffffffffffffffffff167fddf252ad1be2c89b69c2b068fc378daa952ba7f163c4a11628f55a4df523b3ef60405160405180910390a4611aa181600084611f39565b5050565b60008060009054906101000a900473ffffffffffffffffffffffffffffffffffffffff169050816000806101000a81548173ffffffffffffffffffffffffffffffffffffffff021916908373ffffffffffffffffffffffffffffffffffffffff1602179055508173ffffffffffffffffffffffffffffffffffffffff168173ffffffffffffffffffffffffffffffffffffffff167f8be0079c531659141344cd1fd0a4f28419497f9722a3daafe3b4186f6b6457e060405160405180910390a35050565b8173ffffffffffffffffffffffffffffffffffffffff168373ffffffffffffffffffffffffffffffffffffffff161415611bd8576040517f08c379a0000000000000000000000000000000000000000000000000000000008152600401611bcf90612e60565b60405180910390fd5b80600660008573ffffffffffffffffffffffffffffffffffffffff1673ffffffffffffffffffffffffffffffffffffffff16815260200190815260200160002060008473ffffffffffffffffffffffffffffffffffffffff1673ffffffffffffffffffffffffffffffffffffffff16815260200190815260200160002060006101000a81548160ff0219169083151502179055508173ffffffffffffffffffffffffffffffffffffffff168373ffffffffffffffffffffffffffffffffffffffff167f17307eab39ab6107e8899845ad3d59bd9653f200f220920489ca2b5937696c3183604051611cc99190612d48565b60405180910390a3505050565b611cf0828260405180602001604052806000815250611f3e565b5050565b611cff848484611721565b611d0b84848484611f99565b611d4a576040517f08c379a0000000000000000000000000000000000000000000000000000000008152600401611d4190612da0565b60405180910390fd5b50505050565b600082611d5d8584612130565b1490509392505050565b6060604051806060016040528060368152602001613a2760369139905090565b60606000821415611dcf576040518060400160405280600181526020017f30000000000000000000000000000000000000000000000000000000000000008152509050611f2f565b600082905060005b60008214611e01578080611dea906132f3565b915050600a82611dfa919061316b565b9150611dd7565b60008167ffffffffffffffff811115611e43577f4e487b7100000000000000000000000000000000000000000000000000000000600052604160045260246000fd5b6040519080825280601f01601f191660200182016040528015611e755781602001600182028036833780820191505090505b5090505b60008514611f2857600182611e8e919061319c565b9150600a85611e9d9190613360565b6030611ea99190613115565b60f81b818381518110611ee5577f4e487b7100000000000000000000000000000000000000000000000000000000600052603260045260246000fd5b60200101907effffffffffffffffffffffffffffffffffffffffffffffffffffffffffffff1916908160001a905350600a85611f21919061316b565b9450611e79565b8093505050505b919050565b505050565b505050565b611f4883836121cb565b611f556000848484611f99565b611f94576040517f08c379a0000000000000000000000000000000000000000000000000000000008152600401611f8b90612da0565b60405180910390fd5b505050565b6000611fba8473ffffffffffffffffffffffffffffffffffffffff166123a5565b15612123578373ffffffffffffffffffffffffffffffffffffffff1663150b7a02611fe3611582565b8786866040518563ffffffff1660e01b81526004016120059493929190612cfc565b602060405180830381600087803b15801561201f57600080fd5b505af192505050801561205057506040513d601f19601f8201168201806040525081019061204d9190612812565b60015b6120d3573d8060008114612080576040519150601f19603f3d011682016040523d82523d6000602084013e612085565b606091505b506000815114156120cb576040517f08c379a00000000000000000000000000000000000000000000000000000000081526004016120c290612da0565b60405180910390fd5b805181602001fd5b63150b7a0260e01b7bffffffffffffffffffffffffffffffffffffffffffffffffffffffff1916817bffffffffffffffffffffffffffffffffffffffffffffffffffffffff191614915050612128565b600190505b949350505050565b60008082905060005b84518110156121c057600085828151811061217d577f4e487b7100000000000000000000000000000000000000000000000000000000600052603260045260246000fd5b6020026020010151905080831161219f5761219883826123c8565b92506121ac565b6121a981846123c8565b92505b5080806121b8906132f3565b915050612139565b508091505092915050565b600073ffffffffffffffffffffffffffffffffffffffff168273ffffffffffffffffffffffffffffffffffffffff16141561223b576040517f08c379a000000000000000000000000000000000000000000000000000000000815260040161223290612f00565b60405180910390fd5b61224481611516565b15612284576040517f08c379a000000000000000000000000000000000000000000000000000000000815260040161227b90612e20565b60405180910390fd5b61229060008383611f34565b6001600460008473ffffffffffffffffffffffffffffffffffffffff1673ffffffffffffffffffffffffffffffffffffffff16815260200190815260200160002060008282546122e09190613115565b92505081905550816003600083815260200190815260200160002060006101000a81548173ffffffffffffffffffffffffffffffffffffffff021916908373ffffffffffffffffffffffffffffffffffffffff160217905550808273ffffffffffffffffffffffffffffffffffffffff16600073ffffffffffffffffffffffffffffffffffffffff167fddf252ad1be2c89b69c2b068fc378daa952ba7f163c4a11628f55a4df523b3ef60405160405180910390a46123a160008383611f39565b5050565b6000808273ffffffffffffffffffffffffffffffffffffffff163b119050919050565b600082600052816020526040600020905092915050565b60006123f26123ed84613060565b61303b565b9050808382526020820190508285602086028201111561241157600080fd5b60005b85811015612441578161242788826124dd565b845260208401935060208301925050600181019050612414565b5050509392505050565b600061245e6124598461308c565b61303b565b90508281526020810184848401111561247657600080fd5b61248184828561324e565b509392505050565b600081359050612498816139b3565b92915050565b600082601f8301126124af57600080fd5b81356124bf8482602086016123df565b91505092915050565b6000813590506124d7816139ca565b92915050565b6000813590506124ec816139e1565b92915050565b600081359050612501816139f8565b92915050565b600081519050612516816139f8565b92915050565b600082601f83011261252d57600080fd5b813561253d84826020860161244b565b91505092915050565b60008135905061255581613a0f565b92915050565b60006020828403121561256d57600080fd5b600061257b84828501612489565b91505092915050565b6000806040838503121561259757600080fd5b60006125a585828601612489565b92505060206125b685828601612489565b9150509250929050565b6000806000606084860312156125d557600080fd5b60006125e386828701612489565b93505060206125f486828701612489565b925050604061260586828701612546565b9150509250925092565b6000806000806080858703121561262557600080fd5b600061263387828801612489565b945050602061264487828801612489565b935050604061265587828801612546565b925050606085013567ffffffffffffffff81111561267257600080fd5b61267e8782880161251c565b91505092959194509250565b6000806040838503121561269d57600080fd5b60006126ab85828601612489565b92505060206126bc858286016124c8565b9150509250929050565b600080604083850312156126d957600080fd5b60006126e785828601612489565b92505060206126f885828601612546565b9150509250929050565b60006020828403121561271457600080fd5b600082013567ffffffffffffffff81111561272e57600080fd5b61273a8482850161249e565b91505092915050565b6000806040838503121561275657600080fd5b600083013567ffffffffffffffff81111561277057600080fd5b61277c8582860161249e565b925050602061278d858286016124dd565b9150509250929050565b6000602082840312156127a957600080fd5b60006127b7848285016124c8565b91505092915050565b6000602082840312156127d257600080fd5b60006127e0848285016124dd565b91505092915050565b6000602082840312156127fb57600080fd5b6000612809848285016124f2565b91505092915050565b60006020828403121561282457600080fd5b600061283284828501612507565b91505092915050565b60006020828403121561284d57600080fd5b600061285b84828501612546565b91505092915050565b61286d816131d0565b82525050565b61288461287f826131d0565b61333c565b82525050565b612893816131e2565b82525050565b6128a2816131ee565b82525050565b60006128b3826130d2565b6128bd81856130e8565b93506128cd81856020860161325d565b6128d68161344d565b840191505092915050565b60006128ec826130dd565b6128f681856130f9565b935061290681856020860161325d565b61290f8161344d565b840191505092915050565b6000612925826130dd565b61292f818561310a565b935061293f81856020860161325d565b80840191505092915050565b6000815461295881613290565b612962818661310a565b9450600182166000811461297d576001811461298e576129c1565b60ff198316865281860193506129c1565b612997856130bd565b60005b838110156129b95781548189015260018201915060208101905061299a565b838801955050505b50505092915050565b60006129d76032836130f9565b91506129e28261346b565b604082019050919050565b60006129fa6026836130f9565b9150612a05826134ba565b604082019050919050565b6000612a1d6025836130f9565b9150612a2882613509565b604082019050919050565b6000612a40601e836130f9565b9150612a4b82613558565b602082019050919050565b6000612a63601c836130f9565b9150612a6e82613581565b602082019050919050565b6000612a866024836130f9565b9150612a91826135aa565b604082019050919050565b6000612aa96019836130f9565b9150612ab4826135f9565b602082019050919050565b6000612acc602c836130f9565b9150612ad782613622565b604082019050919050565b6000612aef6038836130f9565b9150612afa82613671565b604082019050919050565b6000612b12602a836130f9565b9150612b1d826136c0565b604082019050919050565b6000612b356029836130f9565b9150612b408261370f565b604082019050919050565b6000612b586020836130f9565b9150612b638261375e565b602082019050919050565b6000612b7b6017836130f9565b9150612b8682613787565b602082019050919050565b6000612b9e602c836130f9565b9150612ba9826137b0565b604082019050919050565b6000612bc16020836130f9565b9150612bcc826137ff565b602082019050919050565b6000612be46022836130f9565b9150612bef82613828565b604082019050919050565b6000612c07602f836130f9565b9150612c1282613877565b604082019050919050565b6000612c2a6021836130f9565b9150612c35826138c6565b604082019050919050565b6000612c4d6031836130f9565b9150612c5882613915565b604082019050919050565b6000612c706030836130f9565b9150612c7b82613964565b604082019050919050565b612c8f81613244565b82525050565b6000612ca18284612873565b60148201915081905092915050565b6000612cbc828661291a565b9150612cc8828561291a565b9150612cd4828461294b565b9150819050949350505050565b6000602082019050612cf66000830184612864565b92915050565b6000608082019050612d116000830187612864565b612d1e6020830186612864565b612d2b6040830185612c86565b8181036060830152612d3d81846128a8565b905095945050505050565b6000602082019050612d5d600083018461288a565b92915050565b6000602082019050612d786000830184612899565b92915050565b60006020820190508181036000830152612d9881846128e1565b905092915050565b60006020820190508181036000830152612db9816129ca565b9050919050565b60006020820190508181036000830152612dd9816129ed565b9050919050565b60006020820190508181036000830152612df981612a10565b9050919050565b60006020820190508181036000830152612e1981612a33565b9050919050565b60006020820190508181036000830152612e3981612a56565b9050919050565b60006020820190508181036000830152612e5981612a79565b9050919050565b60006020820190508181036000830152612e7981612a9c565b9050919050565b60006020820190508181036000830152612e9981612abf565b9050919050565b60006020820190508181036000830152612eb981612ae2565b9050919050565b60006020820190508181036000830152612ed981612b05565b9050919050565b60006020820190508181036000830152612ef981612b28565b9050919050565b60006020820190508181036000830152612f1981612b4b565b9050919050565b60006020820190508181036000830152612f3981612b6e565b9050919050565b60006020820190508181036000830152612f5981612b91565b9050919050565b60006020820190508181036000830152612f7981612bb4565b9050919050565b60006020820190508181036000830152612f9981612bd7565b9050919050565b60006020820190508181036000830152612fb981612bfa565b9050919050565b60006020820190508181036000830152612fd981612c1d565b9050919050565b60006020820190508181036000830152612ff981612c40565b9050919050565b6000602082019050818103600083015261301981612c63565b9050919050565b60006020820190506130356000830184612c86565b92915050565b6000613045613056565b905061305182826132c2565b919050565b6000604051905090565b600067ffffffffffffffff82111561307b5761307a61341e565b5b602082029050602081019050919050565b600067ffffffffffffffff8211156130a7576130a661341e565b5b6130b08261344d565b9050602081019050919050565b60008190508160005260206000209050919050565b600081519050919050565b600081519050919050565b600082825260208201905092915050565b600082825260208201905092915050565b600081905092915050565b600061312082613244565b915061312b83613244565b9250827fffffffffffffffffffffffffffffffffffffffffffffffffffffffffffffffff038211156131605761315f613391565b5b828201905092915050565b600061317682613244565b915061318183613244565b925082613191576131906133c0565b5b828204905092915050565b60006131a782613244565b91506131b283613244565b9250828210156131c5576131c4613391565b5b828203905092915050565b60006131db82613224565b9050919050565b60008115159050919050565b6000819050919050565b60007fffffffff0000000000000000000000000000000000000000000000000000000082169050919050565b600073ffffffffffffffffffffffffffffffffffffffff82169050919050565b6000819050919050565b82818337600083830152505050565b60005b8381101561327b578082015181840152602081019050613260565b8381111561328a576000848401525b50505050565b600060028204905060018216806132a857607f821691505b602082108114156132bc576132bb6133ef565b5b50919050565b6132cb8261344d565b810181811067ffffffffffffffff821117156132ea576132e961341e565b5b80604052505050565b60006132fe82613244565b91507fffffffffffffffffffffffffffffffffffffffffffffffffffffffffffffffff82141561333157613330613391565b5b600182019050919050565b60006133478261334e565b9050919050565b60006133598261345e565b9050919050565b600061336b82613244565b915061337683613244565b925082613386576133856133c0565b5b828206905092915050565b7f4e487b7100000000000000000000000000000000000000000000000000000000600052601160045260246000fd5b7f4e487b7100000000000000000000000000000000000000000000000000000000600052601260045260246000fd5b7f4e487b7100000000000000000000000000000000000000000000000000000000600052602260045260246000fd5b7f4e487b7100000000000000000000000000000000000000000000000000000000600052604160045260246000fd5b6000601f19601f8301169050919050565b60008160601b9050919050565b7f4552433732313a207472616e7366657220746f206e6f6e20455243373231526560008201527f63656976657220696d706c656d656e7465720000000000000000000000000000602082015250565b7f4f776e61626c653a206e6577206f776e657220697320746865207a65726f206160008201527f6464726573730000000000000000000000000000000000000000000000000000602082015250565b7f4552433732313a207472616e736665722066726f6d20696e636f72726563742060008201527f6f776e6572000000000000000000000000000000000000000000000000000000602082015250565b7f4e6f206d6f7265204e465420617661696c61626c6520746f206d696e74210000600082015250565b7f4552433732313a20746f6b656e20616c7265616479206d696e74656400000000600082015250565b7f4552433732313a207472616e7366657220746f20746865207a65726f2061646460008201527f7265737300000000000000000000000000000000000000000000000000000000602082015250565b7f4552433732313a20617070726f766520746f2063616c6c657200000000000000600082015250565b7f4552433732313a206f70657261746f7220717565727920666f72206e6f6e657860008201527f697374656e7420746f6b656e0000000000000000000000000000000000000000602082015250565b7f4552433732313a20617070726f76652063616c6c6572206973206e6f74206f7760008201527f6e6572206e6f7220617070726f76656420666f7220616c6c0000000000000000602082015250565b7f4552433732313a2062616c616e636520717565727920666f7220746865207a6560008201527f726f206164647265737300000000000000000000000000000000000000000000602082015250565b7f4552433732313a206f776e657220717565727920666f72206e6f6e657869737460008201527f656e7420746f6b656e0000000000000000000000000000000000000000000000602082015250565b7f4552433732313a206d696e7420746f20746865207a65726f2061646472657373600082015250565b7f596f7520617265206e6f742077686974656c6973746564000000000000000000600082015250565b7f4552433732313a20617070726f76656420717565727920666f72206e6f6e657860008201527f697374656e7420746f6b656e0000000000000000000000000000000000000000602082015250565b7f4f776e61626c653a2063616c6c6572206973206e6f7420746865206f776e6572600082015250565b7f456163682061646472657373206d6179206f6e6c79206d696e742078204e465460008201527f7321000000000000000000000000000000000000000000000000000000000000602082015250565b7f4552433732314d657461646174613a2055524920717565727920666f72206e6f60008201527f6e6578697374656e7420746f6b656e0000000000000000000000000000000000602082015250565b7f4552433732313a20617070726f76616c20746f2063757272656e74206f776e6560008201527f7200000000000000000000000000000000000000000000000000000000000000602082015250565b7f4552433732313a207472616e736665722063616c6c6572206973206e6f74206f60008201527f776e6572206e6f7220617070726f766564000000000000000000000000000000602082015250565b7f4552433732314275726e61626c653a2063616c6c6572206973206e6f74206f7760008201527f6e6572206e6f7220617070726f76656400000000000000000000000000000000602082015250565b6139bc816131d0565b81146139c757600080fd5b50565b6139d3816131e2565b81146139de57600080fd5b50565b6139ea816131ee565b81146139f557600080fd5b50565b613a01816131f8565b8114613a0c57600080fd5b50565b613a1881613244565b8114613a2357600080fd5b5056fe697066733a2f2f516d65614134776278544850457035384b536b6776665773315a705552536d326372597357333553574d50776f4d2f697066733a2f2f516d646d5350614e4661427a56523347534644666d50374447394a6461686e4475315039344c35483434593544522fa2646970667358221220bc5bcb7ee4a417c862686c02c3c876d3668115e47345d17ec51c301ddaa4835b64736f6c63430008040033",
  "linkReferences": {},
  "deployedLinkReferences": {}
}