{
  "_format": "hh-sol-artifact-1",
  "contractName": "NFT",
  "sourceName": "src/backend/contracts/NFT.sol",
  "abi": [
    {
      "inputs": [
        {
          "internalType": "address",
          "name": "_teamWallet",
          "type": "address"
        },
        {
          "internalType": "address[]",
          "name": "_usersToWhitelist",
          "type": "address[]"
        }
      ],
      "stateMutability": "nonpayable",
      "type": "constructor"
    },
    {
      "anonymous": false,
      "inputs": [
        {
          "indexed": true,
          "internalType": "address",
          "name": "owner",
          "type": "address"
        },
        {
          "indexed": true,
          "internalType": "address",
          "name": "approved",
          "type": "address"
        },
        {
          "indexed": true,
          "internalType": "uint256",
          "name": "tokenId",
          "type": "uint256"
        }
      ],
      "name": "Approval",
      "type": "event"
    },
    {
      "anonymous": false,
      "inputs": [
        {
          "indexed": true,
          "internalType": "address",
          "name": "owner",
          "type": "address"
        },
        {
          "indexed": true,
          "internalType": "address",
          "name": "operator",
          "type": "address"
        },
        {
          "indexed": false,
          "internalType": "bool",
          "name": "approved",
          "type": "bool"
        }
      ],
      "name": "ApprovalForAll",
      "type": "event"
    },
    {
      "anonymous": false,
      "inputs": [
        {
          "indexed": false,
          "internalType": "address",
          "name": "user",
          "type": "address"
        }
      ],
      "name": "MintSuccessful",
      "type": "event"
    },
    {
      "anonymous": false,
      "inputs": [
        {
          "indexed": true,
          "internalType": "address",
          "name": "previousOwner",
          "type": "address"
        },
        {
          "indexed": true,
          "internalType": "address",
          "name": "newOwner",
          "type": "address"
        }
      ],
      "name": "OwnershipTransferred",
      "type": "event"
    },
    {
      "anonymous": false,
      "inputs": [
        {
          "indexed": true,
          "internalType": "address",
          "name": "from",
          "type": "address"
        },
        {
          "indexed": true,
          "internalType": "address",
          "name": "to",
          "type": "address"
        },
        {
          "indexed": true,
          "internalType": "uint256",
          "name": "tokenId",
          "type": "uint256"
        }
      ],
      "name": "Transfer",
      "type": "event"
    },
    {
      "inputs": [],
      "name": "amountMintPerAccount",
      "outputs": [
        {
          "internalType": "uint256",
          "name": "",
          "type": "uint256"
        }
      ],
      "stateMutability": "view",
      "type": "function"
    },
    {
      "inputs": [
        {
          "internalType": "address",
          "name": "to",
          "type": "address"
        },
        {
          "internalType": "uint256",
          "name": "tokenId",
          "type": "uint256"
        }
      ],
      "name": "approve",
      "outputs": [],
      "stateMutability": "nonpayable",
      "type": "function"
    },
    {
      "inputs": [
        {
          "internalType": "address",
          "name": "owner",
          "type": "address"
        }
      ],
      "name": "balanceOf",
      "outputs": [
        {
          "internalType": "uint256",
          "name": "",
          "type": "uint256"
        }
      ],
      "stateMutability": "view",
      "type": "function"
    },
    {
      "inputs": [],
      "name": "baseTokenURI",
      "outputs": [
        {
          "internalType": "string",
          "name": "",
          "type": "string"
        }
      ],
      "stateMutability": "pure",
      "type": "function"
    },
    {
      "inputs": [
        {
          "internalType": "uint256",
          "name": "tokenId",
          "type": "uint256"
        }
      ],
      "name": "burn",
      "outputs": [],
      "stateMutability": "nonpayable",
      "type": "function"
    },
    {
      "inputs": [],
      "name": "contractURI",
      "outputs": [
        {
          "internalType": "string",
          "name": "",
          "type": "string"
        }
      ],
      "stateMutability": "pure",
      "type": "function"
    },
    {
      "inputs": [],
      "name": "currentToken",
      "outputs": [
        {
          "internalType": "uint256",
          "name": "",
          "type": "uint256"
        }
      ],
      "stateMutability": "view",
      "type": "function"
    },
    {
      "inputs": [
        {
          "internalType": "uint256",
          "name": "tokenId",
          "type": "uint256"
        }
      ],
      "name": "getApproved",
      "outputs": [
        {
          "internalType": "address",
          "name": "",
          "type": "address"
        }
      ],
      "stateMutability": "view",
      "type": "function"
    },
    {
      "inputs": [
        {
          "internalType": "address",
          "name": "owner",
          "type": "address"
        },
        {
          "internalType": "address",
          "name": "operator",
          "type": "address"
        }
      ],
      "name": "isApprovedForAll",
      "outputs": [
        {
          "internalType": "bool",
          "name": "",
          "type": "bool"
        }
      ],
      "stateMutability": "view",
      "type": "function"
    },
    {
      "inputs": [
        {
          "internalType": "address",
          "name": "_user",
          "type": "address"
        }
      ],
      "name": "isWhitelisted",
      "outputs": [
        {
          "internalType": "bool",
          "name": "",
          "type": "bool"
        }
      ],
      "stateMutability": "view",
      "type": "function"
    },
    {
      "inputs": [],
      "name": "max_supply",
      "outputs": [
        {
          "internalType": "uint256",
          "name": "",
          "type": "uint256"
        }
      ],
      "stateMutability": "view",
      "type": "function"
    },
    {
      "inputs": [],
      "name": "mint",
      "outputs": [],
      "stateMutability": "nonpayable",
      "type": "function"
    },
    {
      "inputs": [],
      "name": "name",
      "outputs": [
        {
          "internalType": "string",
          "name": "",
          "type": "string"
        }
      ],
      "stateMutability": "view",
      "type": "function"
    },
    {
      "inputs": [],
      "name": "owner",
      "outputs": [
        {
          "internalType": "address",
          "name": "",
          "type": "address"
        }
      ],
      "stateMutability": "view",
      "type": "function"
    },
    {
      "inputs": [
        {
          "internalType": "uint256",
          "name": "tokenId",
          "type": "uint256"
        }
      ],
      "name": "ownerOf",
      "outputs": [
        {
          "internalType": "address",
          "name": "",
          "type": "address"
        }
      ],
      "stateMutability": "view",
      "type": "function"
    },
    {
      "inputs": [],
      "name": "publicSaleEnabled",
      "outputs": [
        {
          "internalType": "bool",
          "name": "",
          "type": "bool"
        }
      ],
      "stateMutability": "view",
      "type": "function"
    },
    {
      "inputs": [],
      "name": "renounceOwnership",
      "outputs": [],
      "stateMutability": "nonpayable",
      "type": "function"
    },
    {
      "inputs": [
        {
          "internalType": "address",
          "name": "from",
          "type": "address"
        },
        {
          "internalType": "address",
          "name": "to",
          "type": "address"
        },
        {
          "internalType": "uint256",
          "name": "tokenId",
          "type": "uint256"
        }
      ],
      "name": "safeTransferFrom",
      "outputs": [],
      "stateMutability": "nonpayable",
      "type": "function"
    },
    {
      "inputs": [
        {
          "internalType": "address",
          "name": "from",
          "type": "address"
        },
        {
          "internalType": "address",
          "name": "to",
          "type": "address"
        },
        {
          "internalType": "uint256",
          "name": "tokenId",
          "type": "uint256"
        },
        {
          "internalType": "bytes",
          "name": "_data",
          "type": "bytes"
        }
      ],
      "name": "safeTransferFrom",
      "outputs": [],
      "stateMutability": "nonpayable",
      "type": "function"
    },
    {
      "inputs": [
        {
          "internalType": "uint256",
          "name": "_amountMintPerAccount",
          "type": "uint256"
        }
      ],
      "name": "setAmountMintPerAccount",
      "outputs": [],
      "stateMutability": "nonpayable",
      "type": "function"
    },
    {
      "inputs": [
        {
          "internalType": "address",
          "name": "operator",
          "type": "address"
        },
        {
          "internalType": "bool",
          "name": "approved",
          "type": "bool"
        }
      ],
      "name": "setApprovalForAll",
      "outputs": [],
      "stateMutability": "nonpayable",
      "type": "function"
    },
    {
      "inputs": [
        {
          "internalType": "bool",
          "name": "_state",
          "type": "bool"
        }
      ],
      "name": "setPublicSaleEnabled",
      "outputs": [],
      "stateMutability": "nonpayable",
      "type": "function"
    },
    {
      "inputs": [
        {
          "internalType": "bytes4",
          "name": "interfaceId",
          "type": "bytes4"
        }
      ],
      "name": "supportsInterface",
      "outputs": [
        {
          "internalType": "bool",
          "name": "",
          "type": "bool"
        }
      ],
      "stateMutability": "view",
      "type": "function"
    },
    {
      "inputs": [],
      "name": "symbol",
      "outputs": [
        {
          "internalType": "string",
          "name": "",
          "type": "string"
        }
      ],
      "stateMutability": "view",
      "type": "function"
    },
    {
      "inputs": [
        {
          "internalType": "uint256",
          "name": "_tokenId",
          "type": "uint256"
        }
      ],
      "name": "tokenURI",
      "outputs": [
        {
          "internalType": "string",
          "name": "",
          "type": "string"
        }
      ],
      "stateMutability": "view",
      "type": "function"
    },
    {
      "inputs": [
        {
          "internalType": "address",
          "name": "from",
          "type": "address"
        },
        {
          "internalType": "address",
          "name": "to",
          "type": "address"
        },
        {
          "internalType": "uint256",
          "name": "tokenId",
          "type": "uint256"
        }
      ],
      "name": "transferFrom",
      "outputs": [],
      "stateMutability": "nonpayable",
      "type": "function"
    },
    {
      "inputs": [
        {
          "internalType": "address",
          "name": "newOwner",
          "type": "address"
        }
      ],
      "name": "transferOwnership",
      "outputs": [],
      "stateMutability": "nonpayable",
      "type": "function"
    },
    {
      "inputs": [],
      "name": "uriPrefix",
      "outputs": [
        {
          "internalType": "string",
          "name": "",
          "type": "string"
        }
      ],
      "stateMutability": "view",
      "type": "function"
    },
    {
      "inputs": [],
      "name": "uriSuffix",
      "outputs": [
        {
          "internalType": "string",
          "name": "",
          "type": "string"
        }
      ],
      "stateMutability": "view",
      "type": "function"
    },
    {
      "inputs": [
        {
          "internalType": "address[]",
          "name": "_users",
          "type": "address[]"
        }
      ],
      "name": "whitelistUsersAdd",
      "outputs": [],
      "stateMutability": "nonpayable",
      "type": "function"
    },
    {
      "inputs": [
        {
          "internalType": "address[]",
          "name": "_users",
          "type": "address[]"
        }
      ],
      "name": "whitelistUsersReplace",
      "outputs": [],
      "stateMutability": "nonpayable",
      "type": "function"
    },
    {
      "inputs": [],
      "name": "withdraw",
      "outputs": [],
      "stateMutability": "nonpayable",
      "type": "function"
    }
  ],
  "bytecode": "0x608060405260405180602001604052806000815250600790805190602001906200002b929190620003ca565b506040518060400160405280600581526020017f2e6a736f6e0000000000000000000000000000000000000000000000000000008152506008908051906020019062000079929190620003ca565b506113886009556001600a556000600b553480156200009757600080fd5b50604051620043fd380380620043fd8339818101604052810190620000bd9190620005e5565b6040518060400160405280601481526020017f456c73652045786368616e6765205469636b65740000000000000000000000008152506040518060400160405280600581526020017f454c534554000000000000000000000000000000000000000000000000000000815250620001496200013d620001bf60201b60201c565b620001c760201b60201c565b816001908051906020019062000161929190620003ca565b5080600290805190602001906200017a929190620003ca565b505050600c60006200018d91906200045b565b80600c9080519060200190620001a59291906200047e565b50620001b7826200028b60201b60201c565b5050620008db565b600033905090565b60008060009054906101000a900473ffffffffffffffffffffffffffffffffffffffff169050816000806101000a81548173ffffffffffffffffffffffffffffffffffffffff021916908373ffffffffffffffffffffffffffffffffffffffff1602179055508173ffffffffffffffffffffffffffffffffffffffff168173ffffffffffffffffffffffffffffffffffffffff167f8be0079c531659141344cd1fd0a4f28419497f9722a3daafe3b4186f6b6457e060405160405180910390a35050565b6200029b620001bf60201b60201c565b73ffffffffffffffffffffffffffffffffffffffff16620002c1620003a160201b60201c565b73ffffffffffffffffffffffffffffffffffffffff16146200031a576040517f08c379a00000000000000000000000000000000000000000000000000000000081526004016200031190620006af565b60405180910390fd5b600073ffffffffffffffffffffffffffffffffffffffff168173ffffffffffffffffffffffffffffffffffffffff1614156200038d576040517f08c379a000000000000000000000000000000000000000000000000000000000815260040162000384906200068d565b60405180910390fd5b6200039e81620001c760201b60201c565b50565b60008060009054906101000a900473ffffffffffffffffffffffffffffffffffffffff16905090565b828054620003d8906200076e565b90600052602060002090601f016020900481019282620003fc576000855562000448565b82601f106200041757805160ff191683800117855562000448565b8280016001018555821562000448579182015b82811115620004475782518255916020019190600101906200042a565b5b5090506200045791906200050d565b5090565b50805460008255906000526020600020908101906200047b91906200050d565b50565b828054828255906000526020600020908101928215620004fa579160200282015b82811115620004f95782518260006101000a81548173ffffffffffffffffffffffffffffffffffffffff021916908373ffffffffffffffffffffffffffffffffffffffff160217905550916020019190600101906200049f565b5b5090506200050991906200050d565b5090565b5b80821115620005285760008160009055506001016200050e565b5090565b6000620005436200053d84620006fa565b620006d1565b905080838252602082019050828560208602820111156200056357600080fd5b60005b858110156200059757816200057c8882620005a1565b84526020840193506020830192505060018101905062000566565b5050509392505050565b600081519050620005b281620008c1565b92915050565b600082601f830112620005ca57600080fd5b8151620005dc8482602086016200052c565b91505092915050565b60008060408385031215620005f957600080fd5b60006200060985828601620005a1565b925050602083015167ffffffffffffffff8111156200062757600080fd5b6200063585828601620005b8565b9150509250929050565b60006200064e60268362000729565b91506200065b8262000849565b604082019050919050565b60006200067560208362000729565b9150620006828262000898565b602082019050919050565b60006020820190508181036000830152620006a8816200063f565b9050919050565b60006020820190508181036000830152620006ca8162000666565b9050919050565b6000620006dd620006f0565b9050620006eb8282620007a4565b919050565b6000604051905090565b600067ffffffffffffffff82111562000718576200071762000809565b5b602082029050602081019050919050565b600082825260208201905092915050565b600062000747826200074e565b9050919050565b600073ffffffffffffffffffffffffffffffffffffffff82169050919050565b600060028204905060018216806200078757607f821691505b602082108114156200079e576200079d620007da565b5b50919050565b620007af8262000838565b810181811067ffffffffffffffff82111715620007d157620007d062000809565b5b80604052505050565b7f4e487b7100000000000000000000000000000000000000000000000000000000600052602260045260246000fd5b7f4e487b7100000000000000000000000000000000000000000000000000000000600052604160045260246000fd5b6000601f19601f8301169050919050565b7f4f776e61626c653a206e6577206f776e657220697320746865207a65726f206160008201527f6464726573730000000000000000000000000000000000000000000000000000602082015250565b7f4f776e61626c653a2063616c6c6572206973206e6f7420746865206f776e6572600082015250565b620008cc816200073a565b8114620008d857600080fd5b50565b613b1280620008eb6000396000f3fe608060405234801561001057600080fd5b50600436106101f05760003560e01c8063715018a61161010f578063a8ea3254116100a2578063e8a3d48511610071578063e8a3d4851461055b578063e985e9c514610579578063f2fde38b146105a9578063f750b5cc146105c5576101f0565b8063a8ea3254146104d5578063b88d4fde146104f1578063c87b56dd1461050d578063d547cfb71461053d576101f0565b80638da5cb5b116100de5780638da5cb5b1461045f57806395d89b411461047d578063a22cb4651461049b578063a827b5ff146104b7576101f0565b8063715018a6146103fd578063836c081d146104075780638720fbef146104255780638a333b5014610441576101f0565b80633af32abf116101875780635503a0e8116101565780635503a0e81461036157806362b99ad41461037f5780636352211e1461039d57806370a08231146103cd576101f0565b80633af32abf146102ef5780633ccfd60b1461031f57806342842e0e1461032957806342966c6814610345576101f0565b806311296660116101c3578063112966601461028f5780631249c58b146102ab57806323b872dd146102b55780632ab91bba146102d1576101f0565b806301ffc9a7146101f557806306fdde0314610225578063081812fc14610243578063095ea7b314610273575b600080fd5b61020f600480360381019061020a919061290d565b6105e1565b60405161021c9190612e2b565b60405180910390f35b61022d6106c3565b60405161023a9190612e46565b60405180910390f35b61025d6004803603810190610258919061295f565b610755565b60405161026a9190612dc4565b60405180910390f35b61028d60048036038101906102889190612863565b6107da565b005b6102a960048036038101906102a4919061295f565b6108f2565b005b6102b3610978565b005b6102cf60048036038101906102ca919061275d565b610ac8565b005b6102d9610b28565b6040516102e69190612e2b565b60405180910390f35b610309600480360381019061030491906126f8565b610b3b565b6040516103169190612e2b565b60405180910390f35b610327610c0b565b005b610343600480360381019061033e919061275d565b610cd0565b005b61035f600480360381019061035a919061295f565b610cf0565b005b610369610d4c565b6040516103769190612e46565b60405180910390f35b610387610dda565b6040516103949190612e46565b60405180910390f35b6103b760048036038101906103b2919061295f565b610e68565b6040516103c49190612dc4565b60405180910390f35b6103e760048036038101906103e291906126f8565b610f1a565b6040516103f491906130e8565b60405180910390f35b610405610fd2565b005b61040f61105a565b60405161041c91906130e8565b60405180910390f35b61043f600480360381019061043a91906128e4565b611060565b005b6104496110f9565b60405161045691906130e8565b60405180910390f35b6104676110ff565b6040516104749190612dc4565b60405180910390f35b610485611128565b6040516104929190612e46565b60405180910390f35b6104b560048036038101906104b09190612827565b6111ba565b005b6104bf6111d0565b6040516104cc91906130e8565b60405180910390f35b6104ef60048036038101906104ea919061289f565b6111d6565b005b61050b600480360381019061050691906127ac565b61132e565b005b6105276004803603810190610522919061295f565b611390565b6040516105349190612e46565b60405180910390f35b61054561143a565b6040516105529190612e46565b60405180910390f35b610563611449565b6040516105709190612e46565b60405180910390f35b610593600480360381019061058e9190612721565b611469565b6040516105a09190612e2b565b60405180910390f35b6105c360048036038101906105be91906126f8565b6114fd565b005b6105df60048036038101906105da919061289f565b6115f5565b005b60007f80ac58cd000000000000000000000000000000000000000000000000000000007bffffffffffffffffffffffffffffffffffffffffffffffffffffffff1916827bffffffffffffffffffffffffffffffffffffffffffffffffffffffff191614806106ac57507f5b5e139f000000000000000000000000000000000000000000000000000000007bffffffffffffffffffffffffffffffffffffffffffffffffffffffff1916827bffffffffffffffffffffffffffffffffffffffffffffffffffffffff1916145b806106bc57506106bb82611695565b5b9050919050565b6060600180546106d290613322565b80601f01602080910402602001604051908101604052809291908181526020018280546106fe90613322565b801561074b5780601f106107205761010080835404028352916020019161074b565b820191906000526020600020905b81548152906001019060200180831161072e57829003601f168201915b5050505050905090565b6000610760826116ff565b61079f576040517f08c379a000000000000000000000000000000000000000000000000000000000815260040161079690613008565b60405180910390fd5b6005600083815260200190815260200160002060009054906101000a900473ffffffffffffffffffffffffffffffffffffffff169050919050565b60006107e582610e68565b90508073ffffffffffffffffffffffffffffffffffffffff168373ffffffffffffffffffffffffffffffffffffffff161415610856576040517f08c379a000000000000000000000000000000000000000000000000000000000815260040161084d90613088565b60405180910390fd5b8073ffffffffffffffffffffffffffffffffffffffff1661087561176b565b73ffffffffffffffffffffffffffffffffffffffff1614806108a457506108a38161089e61176b565b611469565b5b6108e3576040517f08c379a00000000000000000000000000000000000000000000000000000000081526004016108da90612f68565b60405180910390fd5b6108ed8383611773565b505050565b6108fa61176b565b73ffffffffffffffffffffffffffffffffffffffff166109186110ff565b73ffffffffffffffffffffffffffffffffffffffff161461096e576040517f08c379a000000000000000000000000000000000000000000000000000000000815260040161096590613028565b60405180910390fd5b80600a8190555050565b600a5461098433610f1a565b106109c4576040517f08c379a00000000000000000000000000000000000000000000000000000000081526004016109bb90613048565b60405180910390fd5b600954600b5410610a0a576040517f08c379a0000000000000000000000000000000000000000000000000000000008152600401610a0190612ec8565b60405180910390fd5b600d60009054906101000a900460ff1680610a2a5750610a2933610b3b565b5b610a69576040517f08c379a0000000000000000000000000000000000000000000000000000000008152600401610a6090612fe8565b60405180910390fd5b6001600b6000828254610a7c91906131b1565b92505081905550610a8f33600b5461182c565b7ff5535ccd9f40eb4bc73fac8710dbb2effbf3329da83f62b35d9aa88161bb85ca33604051610abe9190612dc4565b60405180910390a1565b610ad9610ad361176b565b8261184a565b610b18576040517f08c379a0000000000000000000000000000000000000000000000000000000008152600401610b0f906130a8565b60405180910390fd5b610b23838383611928565b505050565b600d60009054906101000a900460ff1681565b600080600c80549050905060005b81811015610bff578373ffffffffffffffffffffffffffffffffffffffff16600c8281548110610ba2577f4e487b7100000000000000000000000000000000000000000000000000000000600052603260045260246000fd5b9060005260206000200160009054906101000a900473ffffffffffffffffffffffffffffffffffffffff1673ffffffffffffffffffffffffffffffffffffffff161415610bf457600192505050610c06565b806001019050610b49565b5060009150505b919050565b610c1361176b565b73ffffffffffffffffffffffffffffffffffffffff16610c316110ff565b73ffffffffffffffffffffffffffffffffffffffff1614610c87576040517f08c379a0000000000000000000000000000000000000000000000000000000008152600401610c7e90613028565b60405180910390fd5b3373ffffffffffffffffffffffffffffffffffffffff166108fc479081150290604051600060405180830381858888f19350505050158015610ccd573d6000803e3d6000fd5b50565b610ceb8383836040518060200160405280600081525061132e565b505050565b610d01610cfb61176b565b8261184a565b610d40576040517f08c379a0000000000000000000000000000000000000000000000000000000008152600401610d37906130c8565b60405180910390fd5b610d4981611b8f565b50565b60088054610d5990613322565b80601f0160208091040260200160405190810160405280929190818152602001828054610d8590613322565b8015610dd25780601f10610da757610100808354040283529160200191610dd2565b820191906000526020600020905b815481529060010190602001808311610db557829003601f168201915b505050505081565b60078054610de790613322565b80601f0160208091040260200160405190810160405280929190818152602001828054610e1390613322565b8015610e605780601f10610e3557610100808354040283529160200191610e60565b820191906000526020600020905b815481529060010190602001808311610e4357829003601f168201915b505050505081565b6000806003600084815260200190815260200160002060009054906101000a900473ffffffffffffffffffffffffffffffffffffffff169050600073ffffffffffffffffffffffffffffffffffffffff168173ffffffffffffffffffffffffffffffffffffffff161415610f11576040517f08c379a0000000000000000000000000000000000000000000000000000000008152600401610f0890612fa8565b60405180910390fd5b80915050919050565b60008073ffffffffffffffffffffffffffffffffffffffff168273ffffffffffffffffffffffffffffffffffffffff161415610f8b576040517f08c379a0000000000000000000000000000000000000000000000000000000008152600401610f8290612f88565b60405180910390fd5b600460008373ffffffffffffffffffffffffffffffffffffffff1673ffffffffffffffffffffffffffffffffffffffff168152602001908152602001600020549050919050565b610fda61176b565b73ffffffffffffffffffffffffffffffffffffffff16610ff86110ff565b73ffffffffffffffffffffffffffffffffffffffff161461104e576040517f08c379a000000000000000000000000000000000000000000000000000000000815260040161104590613028565b60405180910390fd5b6110586000611cac565b565b600b5481565b61106861176b565b73ffffffffffffffffffffffffffffffffffffffff166110866110ff565b73ffffffffffffffffffffffffffffffffffffffff16146110dc576040517f08c379a00000000000000000000000000000000000000000000000000000000081526004016110d390613028565b60405180910390fd5b80600d60006101000a81548160ff02191690831515021790555050565b60095481565b60008060009054906101000a900473ffffffffffffffffffffffffffffffffffffffff16905090565b60606002805461113790613322565b80601f016020809104026020016040519081016040528092919081815260200182805461116390613322565b80156111b05780601f10611185576101008083540402835291602001916111b0565b820191906000526020600020905b81548152906001019060200180831161119357829003601f168201915b5050505050905090565b6111cc6111c561176b565b8383611d70565b5050565b600a5481565b6111de61176b565b73ffffffffffffffffffffffffffffffffffffffff166111fc6110ff565b73ffffffffffffffffffffffffffffffffffffffff1614611252576040517f08c379a000000000000000000000000000000000000000000000000000000000815260040161124990613028565b60405180910390fd5b600082829050905060005b818161ffff16101561132857600c84848361ffff168181106112a8577f4e487b7100000000000000000000000000000000000000000000000000000000600052603260045260246000fd5b90506020020160208101906112bd91906126f8565b9080600181540180825580915050600190039060005260206000200160009091909190916101000a81548173ffffffffffffffffffffffffffffffffffffffff021916908373ffffffffffffffffffffffffffffffffffffffff16021790555080600101905061125d565b50505050565b61133f61133961176b565b8361184a565b61137e576040517f08c379a0000000000000000000000000000000000000000000000000000000008152600401611375906130a8565b60405180910390fd5b61138a84848484611edd565b50505050565b606061139b826116ff565b6113da576040517f08c379a00000000000000000000000000000000000000000000000000000000081526004016113d190613068565b60405180910390fd5b60006113e4611f39565b905060008151116114045760405180602001604052806000815250611432565b8061140e84611f59565b600860405160200161142293929190612d93565b6040516020818303038152906040525b915050919050565b6060611444611f39565b905090565b6060604051806060016040528060368152602001613aa760369139905090565b6000600660008473ffffffffffffffffffffffffffffffffffffffff1673ffffffffffffffffffffffffffffffffffffffff16815260200190815260200160002060008373ffffffffffffffffffffffffffffffffffffffff1673ffffffffffffffffffffffffffffffffffffffff16815260200190815260200160002060009054906101000a900460ff16905092915050565b61150561176b565b73ffffffffffffffffffffffffffffffffffffffff166115236110ff565b73ffffffffffffffffffffffffffffffffffffffff1614611579576040517f08c379a000000000000000000000000000000000000000000000000000000000815260040161157090613028565b60405180910390fd5b600073ffffffffffffffffffffffffffffffffffffffff168173ffffffffffffffffffffffffffffffffffffffff1614156115e9576040517f08c379a00000000000000000000000000000000000000000000000000000000081526004016115e090612e88565b60405180910390fd5b6115f281611cac565b50565b6115fd61176b565b73ffffffffffffffffffffffffffffffffffffffff1661161b6110ff565b73ffffffffffffffffffffffffffffffffffffffff1614611671576040517f08c379a000000000000000000000000000000000000000000000000000000000815260040161166890613028565b60405180910390fd5b600c600061167f91906124ff565b8181600c9190611690929190612520565b505050565b60007f01ffc9a7000000000000000000000000000000000000000000000000000000007bffffffffffffffffffffffffffffffffffffffffffffffffffffffff1916827bffffffffffffffffffffffffffffffffffffffffffffffffffffffff1916149050919050565b60008073ffffffffffffffffffffffffffffffffffffffff166003600084815260200190815260200160002060009054906101000a900473ffffffffffffffffffffffffffffffffffffffff1673ffffffffffffffffffffffffffffffffffffffff1614159050919050565b600033905090565b816005600083815260200190815260200160002060006101000a81548173ffffffffffffffffffffffffffffffffffffffff021916908373ffffffffffffffffffffffffffffffffffffffff160217905550808273ffffffffffffffffffffffffffffffffffffffff166117e683610e68565b73ffffffffffffffffffffffffffffffffffffffff167f8c5be1e5ebec7d5bd14f71427d1e84f3dd0314c0f7b2291e5b200ac8c7c3b92560405160405180910390a45050565b611846828260405180602001604052806000815250612106565b5050565b6000611855826116ff565b611894576040517f08c379a000000000000000000000000000000000000000000000000000000000815260040161188b90612f48565b60405180910390fd5b600061189f83610e68565b90508073ffffffffffffffffffffffffffffffffffffffff168473ffffffffffffffffffffffffffffffffffffffff16148061190e57508373ffffffffffffffffffffffffffffffffffffffff166118f684610755565b73ffffffffffffffffffffffffffffffffffffffff16145b8061191f575061191e8185611469565b5b91505092915050565b8273ffffffffffffffffffffffffffffffffffffffff1661194882610e68565b73ffffffffffffffffffffffffffffffffffffffff161461199e576040517f08c379a000000000000000000000000000000000000000000000000000000000815260040161199590612ea8565b60405180910390fd5b600073ffffffffffffffffffffffffffffffffffffffff168273ffffffffffffffffffffffffffffffffffffffff161415611a0e576040517f08c379a0000000000000000000000000000000000000000000000000000000008152600401611a0590612f08565b60405180910390fd5b611a19838383612161565b611a24600082611773565b6001600460008573ffffffffffffffffffffffffffffffffffffffff1673ffffffffffffffffffffffffffffffffffffffff1681526020019081526020016000206000828254611a749190613238565b925050819055506001600460008473ffffffffffffffffffffffffffffffffffffffff1673ffffffffffffffffffffffffffffffffffffffff1681526020019081526020016000206000828254611acb91906131b1565b92505081905550816003600083815260200190815260200160002060006101000a81548173ffffffffffffffffffffffffffffffffffffffff021916908373ffffffffffffffffffffffffffffffffffffffff160217905550808273ffffffffffffffffffffffffffffffffffffffff168473ffffffffffffffffffffffffffffffffffffffff167fddf252ad1be2c89b69c2b068fc378daa952ba7f163c4a11628f55a4df523b3ef60405160405180910390a4611b8a838383612166565b505050565b6000611b9a82610e68565b9050611ba881600084612161565b611bb3600083611773565b6001600460008373ffffffffffffffffffffffffffffffffffffffff1673ffffffffffffffffffffffffffffffffffffffff1681526020019081526020016000206000828254611c039190613238565b925050819055506003600083815260200190815260200160002060006101000a81549073ffffffffffffffffffffffffffffffffffffffff021916905581600073ffffffffffffffffffffffffffffffffffffffff168273ffffffffffffffffffffffffffffffffffffffff167fddf252ad1be2c89b69c2b068fc378daa952ba7f163c4a11628f55a4df523b3ef60405160405180910390a4611ca881600084612166565b5050565b60008060009054906101000a900473ffffffffffffffffffffffffffffffffffffffff169050816000806101000a81548173ffffffffffffffffffffffffffffffffffffffff021916908373ffffffffffffffffffffffffffffffffffffffff1602179055508173ffffffffffffffffffffffffffffffffffffffff168173ffffffffffffffffffffffffffffffffffffffff167f8be0079c531659141344cd1fd0a4f28419497f9722a3daafe3b4186f6b6457e060405160405180910390a35050565b8173ffffffffffffffffffffffffffffffffffffffff168373ffffffffffffffffffffffffffffffffffffffff161415611ddf576040517f08c379a0000000000000000000000000000000000000000000000000000000008152600401611dd690612f28565b60405180910390fd5b80600660008573ffffffffffffffffffffffffffffffffffffffff1673ffffffffffffffffffffffffffffffffffffffff16815260200190815260200160002060008473ffffffffffffffffffffffffffffffffffffffff1673ffffffffffffffffffffffffffffffffffffffff16815260200190815260200160002060006101000a81548160ff0219169083151502179055508173ffffffffffffffffffffffffffffffffffffffff168373ffffffffffffffffffffffffffffffffffffffff167f17307eab39ab6107e8899845ad3d59bd9653f200f220920489ca2b5937696c3183604051611ed09190612e2b565b60405180910390a3505050565b611ee8848484611928565b611ef48484848461216b565b611f33576040517f08c379a0000000000000000000000000000000000000000000000000000000008152600401611f2a90612e68565b60405180910390fd5b50505050565b6060604051806060016040528060368152602001613a7160369139905090565b60606000821415611fa1576040518060400160405280600181526020017f30000000000000000000000000000000000000000000000000000000000000008152509050612101565b600082905060005b60008214611fd3578080611fbc90613385565b915050600a82611fcc9190613207565b9150611fa9565b60008167ffffffffffffffff811115612015577f4e487b7100000000000000000000000000000000000000000000000000000000600052604160045260246000fd5b6040519080825280601f01601f1916602001820160405280156120475781602001600182028036833780820191505090505b5090505b600085146120fa576001826120609190613238565b9150600a8561206f91906133ce565b603061207b91906131b1565b60f81b8183815181106120b7577f4e487b7100000000000000000000000000000000000000000000000000000000600052603260045260246000fd5b60200101907effffffffffffffffffffffffffffffffffffffffffffffffffffffffffffff1916908160001a905350600a856120f39190613207565b945061204b565b8093505050505b919050565b6121108383612302565b61211d600084848461216b565b61215c576040517f08c379a000000000000000000000000000000000000000000000000000000000815260040161215390612e68565b60405180910390fd5b505050565b505050565b505050565b600061218c8473ffffffffffffffffffffffffffffffffffffffff166124dc565b156122f5578373ffffffffffffffffffffffffffffffffffffffff1663150b7a026121b561176b565b8786866040518563ffffffff1660e01b81526004016121d79493929190612ddf565b602060405180830381600087803b1580156121f157600080fd5b505af192505050801561222257506040513d601f19601f8201168201806040525081019061221f9190612936565b60015b6122a5573d8060008114612252576040519150601f19603f3d011682016040523d82523d6000602084013e612257565b606091505b5060008151141561229d576040517f08c379a000000000000000000000000000000000000000000000000000000000815260040161229490612e68565b60405180910390fd5b805181602001fd5b63150b7a0260e01b7bffffffffffffffffffffffffffffffffffffffffffffffffffffffff1916817bffffffffffffffffffffffffffffffffffffffffffffffffffffffff1916149150506122fa565b600190505b949350505050565b600073ffffffffffffffffffffffffffffffffffffffff168273ffffffffffffffffffffffffffffffffffffffff161415612372576040517f08c379a000000000000000000000000000000000000000000000000000000000815260040161236990612fc8565b60405180910390fd5b61237b816116ff565b156123bb576040517f08c379a00000000000000000000000000000000000000000000000000000000081526004016123b290612ee8565b60405180910390fd5b6123c760008383612161565b6001600460008473ffffffffffffffffffffffffffffffffffffffff1673ffffffffffffffffffffffffffffffffffffffff168152602001908152602001600020600082825461241791906131b1565b92505081905550816003600083815260200190815260200160002060006101000a81548173ffffffffffffffffffffffffffffffffffffffff021916908373ffffffffffffffffffffffffffffffffffffffff160217905550808273ffffffffffffffffffffffffffffffffffffffff16600073ffffffffffffffffffffffffffffffffffffffff167fddf252ad1be2c89b69c2b068fc378daa952ba7f163c4a11628f55a4df523b3ef60405160405180910390a46124d860008383612166565b5050565b6000808273ffffffffffffffffffffffffffffffffffffffff163b119050919050565b508054600082559060005260206000209081019061251d91906125c0565b50565b8280548282559060005260206000209081019282156125af579160200282015b828111156125ae57823573ffffffffffffffffffffffffffffffffffffffff168260006101000a81548173ffffffffffffffffffffffffffffffffffffffff021916908373ffffffffffffffffffffffffffffffffffffffff16021790555091602001919060010190612540565b5b5090506125bc91906125c0565b5090565b5b808211156125d95760008160009055506001016125c1565b5090565b60006125f06125eb84613128565b613103565b90508281526020810184848401111561260857600080fd5b6126138482856132e0565b509392505050565b60008135905061262a81613a14565b92915050565b60008083601f84011261264257600080fd5b8235905067ffffffffffffffff81111561265b57600080fd5b60208301915083602082028301111561267357600080fd5b9250929050565b60008135905061268981613a2b565b92915050565b60008135905061269e81613a42565b92915050565b6000815190506126b381613a42565b92915050565b600082601f8301126126ca57600080fd5b81356126da8482602086016125dd565b91505092915050565b6000813590506126f281613a59565b92915050565b60006020828403121561270a57600080fd5b60006127188482850161261b565b91505092915050565b6000806040838503121561273457600080fd5b60006127428582860161261b565b92505060206127538582860161261b565b9150509250929050565b60008060006060848603121561277257600080fd5b60006127808682870161261b565b93505060206127918682870161261b565b92505060406127a2868287016126e3565b9150509250925092565b600080600080608085870312156127c257600080fd5b60006127d08782880161261b565b94505060206127e18782880161261b565b93505060406127f2878288016126e3565b925050606085013567ffffffffffffffff81111561280f57600080fd5b61281b878288016126b9565b91505092959194509250565b6000806040838503121561283a57600080fd5b60006128488582860161261b565b92505060206128598582860161267a565b9150509250929050565b6000806040838503121561287657600080fd5b60006128848582860161261b565b9250506020612895858286016126e3565b9150509250929050565b600080602083850312156128b257600080fd5b600083013567ffffffffffffffff8111156128cc57600080fd5b6128d885828601612630565b92509250509250929050565b6000602082840312156128f657600080fd5b60006129048482850161267a565b91505092915050565b60006020828403121561291f57600080fd5b600061292d8482850161268f565b91505092915050565b60006020828403121561294857600080fd5b6000612956848285016126a4565b91505092915050565b60006020828403121561297157600080fd5b600061297f848285016126e3565b91505092915050565b6129918161326c565b82525050565b6129a08161327e565b82525050565b60006129b18261316e565b6129bb8185613184565b93506129cb8185602086016132ef565b6129d4816134bb565b840191505092915050565b60006129ea82613179565b6129f48185613195565b9350612a048185602086016132ef565b612a0d816134bb565b840191505092915050565b6000612a2382613179565b612a2d81856131a6565b9350612a3d8185602086016132ef565b80840191505092915050565b60008154612a5681613322565b612a6081866131a6565b94506001821660008114612a7b5760018114612a8c57612abf565b60ff19831686528186019350612abf565b612a9585613159565b60005b83811015612ab757815481890152600182019150602081019050612a98565b838801955050505b50505092915050565b6000612ad5603283613195565b9150612ae0826134cc565b604082019050919050565b6000612af8602683613195565b9150612b038261351b565b604082019050919050565b6000612b1b602583613195565b9150612b268261356a565b604082019050919050565b6000612b3e601e83613195565b9150612b49826135b9565b602082019050919050565b6000612b61601c83613195565b9150612b6c826135e2565b602082019050919050565b6000612b84602483613195565b9150612b8f8261360b565b604082019050919050565b6000612ba7601983613195565b9150612bb28261365a565b602082019050919050565b6000612bca602c83613195565b9150612bd582613683565b604082019050919050565b6000612bed603883613195565b9150612bf8826136d2565b604082019050919050565b6000612c10602a83613195565b9150612c1b82613721565b604082019050919050565b6000612c33602983613195565b9150612c3e82613770565b604082019050919050565b6000612c56602083613195565b9150612c61826137bf565b602082019050919050565b6000612c79601783613195565b9150612c84826137e8565b602082019050919050565b6000612c9c602c83613195565b9150612ca782613811565b604082019050919050565b6000612cbf602083613195565b9150612cca82613860565b602082019050919050565b6000612ce2602283613195565b9150612ced82613889565b604082019050919050565b6000612d05602f83613195565b9150612d10826138d8565b604082019050919050565b6000612d28602183613195565b9150612d3382613927565b604082019050919050565b6000612d4b603183613195565b9150612d5682613976565b604082019050919050565b6000612d6e603083613195565b9150612d79826139c5565b604082019050919050565b612d8d816132d6565b82525050565b6000612d9f8286612a18565b9150612dab8285612a18565b9150612db78284612a49565b9150819050949350505050565b6000602082019050612dd96000830184612988565b92915050565b6000608082019050612df46000830187612988565b612e016020830186612988565b612e0e6040830185612d84565b8181036060830152612e2081846129a6565b905095945050505050565b6000602082019050612e406000830184612997565b92915050565b60006020820190508181036000830152612e6081846129df565b905092915050565b60006020820190508181036000830152612e8181612ac8565b9050919050565b60006020820190508181036000830152612ea181612aeb565b9050919050565b60006020820190508181036000830152612ec181612b0e565b9050919050565b60006020820190508181036000830152612ee181612b31565b9050919050565b60006020820190508181036000830152612f0181612b54565b9050919050565b60006020820190508181036000830152612f2181612b77565b9050919050565b60006020820190508181036000830152612f4181612b9a565b9050919050565b60006020820190508181036000830152612f6181612bbd565b9050919050565b60006020820190508181036000830152612f8181612be0565b9050919050565b60006020820190508181036000830152612fa181612c03565b9050919050565b60006020820190508181036000830152612fc181612c26565b9050919050565b60006020820190508181036000830152612fe181612c49565b9050919050565b6000602082019050818103600083015261300181612c6c565b9050919050565b6000602082019050818103600083015261302181612c8f565b9050919050565b6000602082019050818103600083015261304181612cb2565b9050919050565b6000602082019050818103600083015261306181612cd5565b9050919050565b6000602082019050818103600083015261308181612cf8565b9050919050565b600060208201905081810360008301526130a181612d1b565b9050919050565b600060208201905081810360008301526130c181612d3e565b9050919050565b600060208201905081810360008301526130e181612d61565b9050919050565b60006020820190506130fd6000830184612d84565b92915050565b600061310d61311e565b90506131198282613354565b919050565b6000604051905090565b600067ffffffffffffffff8211156131435761314261348c565b5b61314c826134bb565b9050602081019050919050565b60008190508160005260206000209050919050565b600081519050919050565b600081519050919050565b600082825260208201905092915050565b600082825260208201905092915050565b600081905092915050565b60006131bc826132d6565b91506131c7836132d6565b9250827fffffffffffffffffffffffffffffffffffffffffffffffffffffffffffffffff038211156131fc576131fb6133ff565b5b828201905092915050565b6000613212826132d6565b915061321d836132d6565b92508261322d5761322c61342e565b5b828204905092915050565b6000613243826132d6565b915061324e836132d6565b925082821015613261576132606133ff565b5b828203905092915050565b6000613277826132b6565b9050919050565b60008115159050919050565b60007fffffffff0000000000000000000000000000000000000000000000000000000082169050919050565b600073ffffffffffffffffffffffffffffffffffffffff82169050919050565b6000819050919050565b82818337600083830152505050565b60005b8381101561330d5780820151818401526020810190506132f2565b8381111561331c576000848401525b50505050565b6000600282049050600182168061333a57607f821691505b6020821081141561334e5761334d61345d565b5b50919050565b61335d826134bb565b810181811067ffffffffffffffff8211171561337c5761337b61348c565b5b80604052505050565b6000613390826132d6565b91507fffffffffffffffffffffffffffffffffffffffffffffffffffffffffffffffff8214156133c3576133c26133ff565b5b600182019050919050565b60006133d9826132d6565b91506133e4836132d6565b9250826133f4576133f361342e565b5b828206905092915050565b7f4e487b7100000000000000000000000000000000000000000000000000000000600052601160045260246000fd5b7f4e487b7100000000000000000000000000000000000000000000000000000000600052601260045260246000fd5b7f4e487b7100000000000000000000000000000000000000000000000000000000600052602260045260246000fd5b7f4e487b7100000000000000000000000000000000000000000000000000000000600052604160045260246000fd5b6000601f19601f8301169050919050565b7f4552433732313a207472616e7366657220746f206e6f6e20455243373231526560008201527f63656976657220696d706c656d656e7465720000000000000000000000000000602082015250565b7f4f776e61626c653a206e6577206f776e657220697320746865207a65726f206160008201527f6464726573730000000000000000000000000000000000000000000000000000602082015250565b7f4552433732313a207472616e736665722066726f6d20696e636f72726563742060008201527f6f776e6572000000000000000000000000000000000000000000000000000000602082015250565b7f4e6f206d6f7265204e465420617661696c61626c6520746f206d696e74210000600082015250565b7f4552433732313a20746f6b656e20616c7265616479206d696e74656400000000600082015250565b7f4552433732313a207472616e7366657220746f20746865207a65726f2061646460008201527f7265737300000000000000000000000000000000000000000000000000000000602082015250565b7f4552433732313a20617070726f766520746f2063616c6c657200000000000000600082015250565b7f4552433732313a206f70657261746f7220717565727920666f72206e6f6e657860008201527f697374656e7420746f6b656e0000000000000000000000000000000000000000602082015250565b7f4552433732313a20617070726f76652063616c6c6572206973206e6f74206f7760008201527f6e6572206e6f7220617070726f76656420666f7220616c6c0000000000000000602082015250565b7f4552433732313a2062616c616e636520717565727920666f7220746865207a6560008201527f726f206164647265737300000000000000000000000000000000000000000000602082015250565b7f4552433732313a206f776e657220717565727920666f72206e6f6e657869737460008201527f656e7420746f6b656e0000000000000000000000000000000000000000000000602082015250565b7f4552433732313a206d696e7420746f20746865207a65726f2061646472657373600082015250565b7f596f7520617265206e6f742077686974656c6973746564000000000000000000600082015250565b7f4552433732313a20617070726f76656420717565727920666f72206e6f6e657860008201527f697374656e7420746f6b656e0000000000000000000000000000000000000000602082015250565b7f4f776e61626c653a2063616c6c6572206973206e6f7420746865206f776e6572600082015250565b7f456163682061646472657373206d6179206f6e6c79206d696e742078204e465460008201527f7321000000000000000000000000000000000000000000000000000000000000602082015250565b7f4552433732314d657461646174613a2055524920717565727920666f72206e6f60008201527f6e6578697374656e7420746f6b656e0000000000000000000000000000000000602082015250565b7f4552433732313a20617070726f76616c20746f2063757272656e74206f776e6560008201527f7200000000000000000000000000000000000000000000000000000000000000602082015250565b7f4552433732313a207472616e736665722063616c6c6572206973206e6f74206f60008201527f776e6572206e6f7220617070726f766564000000000000000000000000000000602082015250565b7f4552433732314275726e61626c653a2063616c6c6572206973206e6f74206f7760008201527f6e6572206e6f7220617070726f76656400000000000000000000000000000000602082015250565b613a1d8161326c565b8114613a2857600080fd5b50565b613a348161327e565b8114613a3f57600080fd5b50565b613a4b8161328a565b8114613a5657600080fd5b50565b613a62816132d6565b8114613a6d57600080fd5b5056fe697066733a2f2f516d65614134776278544850457035384b536b6776665773315a705552536d326372597357333553574d50776f4d2f697066733a2f2f516d646d5350614e4661427a56523347534644666d50374447394a6461686e4475315039344c35483434593544522fa2646970667358221220cb24ac3e1dd08f3159713db136d1c52148b28b79ce085592e990e745c28ee95d64736f6c63430008040033",
  "linkReferences": {},
  "deployedLinkReferences": {}
}