{
  "_format": "hh-sol-artifact-1",
  "contractName": "NFT",
  "sourceName": "src/backend/contracts/NFT.sol",
  "abi": [
    {
      "inputs": [
        {
          "internalType": "bytes32",
          "name": "_whitelistRoot",
          "type": "bytes32"
        }
      ],
      "stateMutability": "nonpayable",
      "type": "constructor"
    },
    {
      "anonymous": false,
      "inputs": [
        {
          "indexed": true,
          "internalType": "address",
          "name": "owner",
          "type": "address"
        },
        {
          "indexed": true,
          "internalType": "address",
          "name": "approved",
          "type": "address"
        },
        {
          "indexed": true,
          "internalType": "uint256",
          "name": "tokenId",
          "type": "uint256"
        }
      ],
      "name": "Approval",
      "type": "event"
    },
    {
      "anonymous": false,
      "inputs": [
        {
          "indexed": true,
          "internalType": "address",
          "name": "owner",
          "type": "address"
        },
        {
          "indexed": true,
          "internalType": "address",
          "name": "operator",
          "type": "address"
        },
        {
          "indexed": false,
          "internalType": "bool",
          "name": "approved",
          "type": "bool"
        }
      ],
      "name": "ApprovalForAll",
      "type": "event"
    },
    {
      "anonymous": false,
      "inputs": [
        {
          "indexed": false,
          "internalType": "address",
          "name": "user",
          "type": "address"
        }
      ],
      "name": "MintSuccessful",
      "type": "event"
    },
    {
      "anonymous": false,
      "inputs": [
        {
          "indexed": true,
          "internalType": "address",
          "name": "previousOwner",
          "type": "address"
        },
        {
          "indexed": true,
          "internalType": "address",
          "name": "newOwner",
          "type": "address"
        }
      ],
      "name": "OwnershipTransferred",
      "type": "event"
    },
    {
      "anonymous": false,
      "inputs": [
        {
          "indexed": true,
          "internalType": "address",
          "name": "from",
          "type": "address"
        },
        {
          "indexed": true,
          "internalType": "address",
          "name": "to",
          "type": "address"
        },
        {
          "indexed": true,
          "internalType": "uint256",
          "name": "tokenId",
          "type": "uint256"
        }
      ],
      "name": "Transfer",
      "type": "event"
    },
    {
      "inputs": [],
      "name": "amountMintPerAccount",
      "outputs": [
        {
          "internalType": "uint256",
          "name": "",
          "type": "uint256"
        }
      ],
      "stateMutability": "view",
      "type": "function"
    },
    {
      "inputs": [
        {
          "internalType": "address",
          "name": "to",
          "type": "address"
        },
        {
          "internalType": "uint256",
          "name": "tokenId",
          "type": "uint256"
        }
      ],
      "name": "approve",
      "outputs": [],
      "stateMutability": "nonpayable",
      "type": "function"
    },
    {
      "inputs": [
        {
          "internalType": "address",
          "name": "owner",
          "type": "address"
        }
      ],
      "name": "balanceOf",
      "outputs": [
        {
          "internalType": "uint256",
          "name": "",
          "type": "uint256"
        }
      ],
      "stateMutability": "view",
      "type": "function"
    },
    {
      "inputs": [],
      "name": "baseTokenURI",
      "outputs": [
        {
          "internalType": "string",
          "name": "",
          "type": "string"
        }
      ],
      "stateMutability": "pure",
      "type": "function"
    },
    {
      "inputs": [
        {
          "internalType": "uint256",
          "name": "tokenId",
          "type": "uint256"
        }
      ],
      "name": "burn",
      "outputs": [],
      "stateMutability": "nonpayable",
      "type": "function"
    },
    {
      "inputs": [],
      "name": "contractURI",
      "outputs": [
        {
          "internalType": "string",
          "name": "",
          "type": "string"
        }
      ],
      "stateMutability": "pure",
      "type": "function"
    },
    {
      "inputs": [],
      "name": "currentToken",
      "outputs": [
        {
          "internalType": "uint256",
          "name": "",
          "type": "uint256"
        }
      ],
      "stateMutability": "view",
      "type": "function"
    },
    {
      "inputs": [
        {
          "internalType": "uint256",
          "name": "tokenId",
          "type": "uint256"
        }
      ],
      "name": "getApproved",
      "outputs": [
        {
          "internalType": "address",
          "name": "",
          "type": "address"
        }
      ],
      "stateMutability": "view",
      "type": "function"
    },
    {
      "inputs": [
        {
          "internalType": "address",
          "name": "owner",
          "type": "address"
        },
        {
          "internalType": "address",
          "name": "operator",
          "type": "address"
        }
      ],
      "name": "isApprovedForAll",
      "outputs": [
        {
          "internalType": "bool",
          "name": "",
          "type": "bool"
        }
      ],
      "stateMutability": "view",
      "type": "function"
    },
    {
      "inputs": [
        {
          "internalType": "bytes32[]",
          "name": "_proof",
          "type": "bytes32[]"
        },
        {
          "internalType": "bytes32",
          "name": "_leaf",
          "type": "bytes32"
        }
      ],
      "name": "isValid",
      "outputs": [
        {
          "internalType": "bool",
          "name": "",
          "type": "bool"
        }
      ],
      "stateMutability": "view",
      "type": "function"
    },
    {
      "inputs": [
        {
          "internalType": "address",
          "name": "_user",
          "type": "address"
        }
      ],
      "name": "isWhitelisted",
      "outputs": [
        {
          "internalType": "bool",
          "name": "",
          "type": "bool"
        }
      ],
      "stateMutability": "view",
      "type": "function"
    },
    {
      "inputs": [],
      "name": "max_supply",
      "outputs": [
        {
          "internalType": "uint256",
          "name": "",
          "type": "uint256"
        }
      ],
      "stateMutability": "view",
      "type": "function"
    },
    {
      "inputs": [
        {
          "internalType": "bytes32[]",
          "name": "_proof",
          "type": "bytes32[]"
        }
      ],
      "name": "mint",
      "outputs": [],
      "stateMutability": "nonpayable",
      "type": "function"
    },
    {
      "inputs": [],
      "name": "name",
      "outputs": [
        {
          "internalType": "string",
          "name": "",
          "type": "string"
        }
      ],
      "stateMutability": "view",
      "type": "function"
    },
    {
      "inputs": [],
      "name": "owner",
      "outputs": [
        {
          "internalType": "address",
          "name": "",
          "type": "address"
        }
      ],
      "stateMutability": "view",
      "type": "function"
    },
    {
      "inputs": [
        {
          "internalType": "uint256",
          "name": "tokenId",
          "type": "uint256"
        }
      ],
      "name": "ownerOf",
      "outputs": [
        {
          "internalType": "address",
          "name": "",
          "type": "address"
        }
      ],
      "stateMutability": "view",
      "type": "function"
    },
    {
      "inputs": [],
      "name": "publicSaleEnabled",
      "outputs": [
        {
          "internalType": "bool",
          "name": "",
          "type": "bool"
        }
      ],
      "stateMutability": "view",
      "type": "function"
    },
    {
      "inputs": [],
      "name": "renounceOwnership",
      "outputs": [],
      "stateMutability": "nonpayable",
      "type": "function"
    },
    {
      "inputs": [
        {
          "internalType": "address",
          "name": "from",
          "type": "address"
        },
        {
          "internalType": "address",
          "name": "to",
          "type": "address"
        },
        {
          "internalType": "uint256",
          "name": "tokenId",
          "type": "uint256"
        }
      ],
      "name": "safeTransferFrom",
      "outputs": [],
      "stateMutability": "nonpayable",
      "type": "function"
    },
    {
      "inputs": [
        {
          "internalType": "address",
          "name": "from",
          "type": "address"
        },
        {
          "internalType": "address",
          "name": "to",
          "type": "address"
        },
        {
          "internalType": "uint256",
          "name": "tokenId",
          "type": "uint256"
        },
        {
          "internalType": "bytes",
          "name": "_data",
          "type": "bytes"
        }
      ],
      "name": "safeTransferFrom",
      "outputs": [],
      "stateMutability": "nonpayable",
      "type": "function"
    },
    {
      "inputs": [
        {
          "internalType": "uint256",
          "name": "_amountMintPerAccount",
          "type": "uint256"
        }
      ],
      "name": "setAmountMintPerAccount",
      "outputs": [],
      "stateMutability": "nonpayable",
      "type": "function"
    },
    {
      "inputs": [
        {
          "internalType": "address",
          "name": "operator",
          "type": "address"
        },
        {
          "internalType": "bool",
          "name": "approved",
          "type": "bool"
        }
      ],
      "name": "setApprovalForAll",
      "outputs": [],
      "stateMutability": "nonpayable",
      "type": "function"
    },
    {
      "inputs": [
        {
          "internalType": "bool",
          "name": "_state",
          "type": "bool"
        }
      ],
      "name": "setPublicSaleEnabled",
      "outputs": [],
      "stateMutability": "nonpayable",
      "type": "function"
    },
    {
      "inputs": [
        {
          "internalType": "bytes32",
          "name": "_whitelistRoot",
          "type": "bytes32"
        }
      ],
      "name": "setWhitelistRoot",
      "outputs": [],
      "stateMutability": "nonpayable",
      "type": "function"
    },
    {
      "inputs": [
        {
          "internalType": "bytes4",
          "name": "interfaceId",
          "type": "bytes4"
        }
      ],
      "name": "supportsInterface",
      "outputs": [
        {
          "internalType": "bool",
          "name": "",
          "type": "bool"
        }
      ],
      "stateMutability": "view",
      "type": "function"
    },
    {
      "inputs": [],
      "name": "symbol",
      "outputs": [
        {
          "internalType": "string",
          "name": "",
          "type": "string"
        }
      ],
      "stateMutability": "view",
      "type": "function"
    },
    {
      "inputs": [
        {
          "internalType": "uint256",
          "name": "_tokenId",
          "type": "uint256"
        }
      ],
      "name": "tokenURI",
      "outputs": [
        {
          "internalType": "string",
          "name": "",
          "type": "string"
        }
      ],
      "stateMutability": "view",
      "type": "function"
    },
    {
      "inputs": [
        {
          "internalType": "address",
          "name": "from",
          "type": "address"
        },
        {
          "internalType": "address",
          "name": "to",
          "type": "address"
        },
        {
          "internalType": "uint256",
          "name": "tokenId",
          "type": "uint256"
        }
      ],
      "name": "transferFrom",
      "outputs": [],
      "stateMutability": "nonpayable",
      "type": "function"
    },
    {
      "inputs": [
        {
          "internalType": "address",
          "name": "newOwner",
          "type": "address"
        }
      ],
      "name": "transferOwnership",
      "outputs": [],
      "stateMutability": "nonpayable",
      "type": "function"
    },
    {
      "inputs": [],
      "name": "uriPrefix",
      "outputs": [
        {
          "internalType": "string",
          "name": "",
          "type": "string"
        }
      ],
      "stateMutability": "view",
      "type": "function"
    },
    {
      "inputs": [],
      "name": "uriSuffix",
      "outputs": [
        {
          "internalType": "string",
          "name": "",
          "type": "string"
        }
      ],
      "stateMutability": "view",
      "type": "function"
    },
    {
      "inputs": [],
      "name": "whitelistRoot",
      "outputs": [
        {
          "internalType": "bytes32",
          "name": "",
          "type": "bytes32"
        }
      ],
      "stateMutability": "view",
      "type": "function"
    },
    {
      "inputs": [
        {
          "internalType": "address[]",
          "name": "_users",
          "type": "address[]"
        }
      ],
      "name": "whitelistUsersAdd",
      "outputs": [],
      "stateMutability": "nonpayable",
      "type": "function"
    },
    {
      "inputs": [
        {
          "internalType": "address[]",
          "name": "_users",
          "type": "address[]"
        }
      ],
      "name": "whitelistUsersReplace",
      "outputs": [],
      "stateMutability": "nonpayable",
      "type": "function"
    },
    {
      "inputs": [],
      "name": "withdraw",
      "outputs": [],
      "stateMutability": "nonpayable",
      "type": "function"
    }
  ],
  "bytecode": "0x608060405260405180602001604052806000815250600790805190602001906200002b92919062000257565b506040518060400160405280600581526020017f2e6a736f6e000000000000000000000000000000000000000000000000000000815250600890805190602001906200007992919062000257565b506113886009556001600a556000600b553480156200009757600080fd5b5060405162004369380380620043698339818101604052810190620000bd91906200031e565b6040518060400160405280601481526020017f456c73652045786368616e6765205469636b65740000000000000000000000008152506040518060400160405280600581526020017f454c534554000000000000000000000000000000000000000000000000000000815250620001496200013d6200018b60201b60201c565b6200019360201b60201c565b81600190805190602001906200016192919062000257565b5080600290805190602001906200017a92919062000257565b50505080600c8190555050620003d3565b600033905090565b60008060009054906101000a900473ffffffffffffffffffffffffffffffffffffffff169050816000806101000a81548173ffffffffffffffffffffffffffffffffffffffff021916908373ffffffffffffffffffffffffffffffffffffffff1602179055508173ffffffffffffffffffffffffffffffffffffffff168173ffffffffffffffffffffffffffffffffffffffff167f8be0079c531659141344cd1fd0a4f28419497f9722a3daafe3b4186f6b6457e060405160405180910390a35050565b828054620002659062000354565b90600052602060002090601f016020900481019282620002895760008555620002d5565b82601f10620002a457805160ff1916838001178555620002d5565b82800160010185558215620002d5579182015b82811115620002d4578251825591602001919060010190620002b7565b5b509050620002e49190620002e8565b5090565b5b8082111562000303576000816000905550600101620002e9565b5090565b6000815190506200031881620003b9565b92915050565b6000602082840312156200033157600080fd5b6000620003418482850162000307565b91505092915050565b6000819050919050565b600060028204905060018216806200036d57607f821691505b602082108114156200038457620003836200038a565b5b50919050565b7f4e487b7100000000000000000000000000000000000000000000000000000000600052602260045260246000fd5b620003c4816200034a565b8114620003d057600080fd5b50565b613f8680620003e36000396000f3fe608060405234801561001057600080fd5b50600436106102115760003560e01c8063836c081d11610125578063b88d4fde116100ad578063e8a3d4851161007c578063e8a3d485146105dc578063e985e9c5146105fa578063f2fde38b1461062a578063f5aa406d14610646578063f750b5cc1461066257610211565b8063b88d4fde14610542578063b8a20ed01461055e578063c87b56dd1461058e578063d547cfb7146105be57610211565b806395d89b41116100f457806395d89b41146104b2578063a22cb465146104d0578063a827b5ff146104ec578063a8ea32541461050a578063b77a147b1461052657610211565b8063836c081d1461043c5780638720fbef1461045a5780638a333b50146104765780638da5cb5b1461049457610211565b80633af32abf116101a85780635503a0e8116101775780635503a0e81461039657806362b99ad4146103b45780636352211e146103d257806370a0823114610402578063715018a61461043257610211565b80633af32abf146103245780633ccfd60b1461035457806342842e0e1461035e57806342966c681461037a57610211565b806311296660116101e457806311296660146102b057806323b872dd146102cc5780632ab91bba146102e8578063386bfc981461030657610211565b806301ffc9a71461021657806306fdde0314610246578063081812fc14610264578063095ea7b314610294575b600080fd5b610230600480360381019061022b9190612ca7565b61067e565b60405161023d9190613206565b60405180910390f35b61024e610760565b60405161025b919061323c565b60405180910390f35b61027e60048036038101906102799190612cf9565b6107f2565b60405161028b919061319f565b60405180910390f35b6102ae60048036038101906102a99190612b3f565b610877565b005b6102ca60048036038101906102c59190612cf9565b61098f565b005b6102e660048036038101906102e19190612a39565b610a15565b005b6102f0610a75565b6040516102fd9190613206565b60405180910390f35b61030e610a88565b60405161031b9190613221565b60405180910390f35b61033e600480360381019061033991906129d4565b610a8e565b60405161034b9190613206565b60405180910390f35b61035c610b5e565b005b61037860048036038101906103739190612a39565b610c23565b005b610394600480360381019061038f9190612cf9565b610c43565b005b61039e610c9f565b6040516103ab919061323c565b60405180910390f35b6103bc610d2d565b6040516103c9919061323c565b60405180910390f35b6103ec60048036038101906103e79190612cf9565b610dbb565b6040516103f9919061319f565b60405180910390f35b61041c600480360381019061041791906129d4565b610e6d565b60405161042991906134de565b60405180910390f35b61043a610f25565b005b610444610fad565b60405161045191906134de565b60405180910390f35b610474600480360381019061046f9190612c55565b610fb3565b005b61047e61104c565b60405161048b91906134de565b60405180910390f35b61049c611052565b6040516104a9919061319f565b60405180910390f35b6104ba61107b565b6040516104c7919061323c565b60405180910390f35b6104ea60048036038101906104e59190612b03565b61110d565b005b6104f4611123565b60405161050191906134de565b60405180910390f35b610524600480360381019061051f9190612b7b565b611129565b005b610540600480360381019061053b9190612bc0565b611281565b005b61055c60048036038101906105579190612a88565b6113f9565b005b61057860048036038101906105739190612c01565b61145b565b6040516105859190613206565b60405180910390f35b6105a860048036038101906105a39190612cf9565b611472565b6040516105b5919061323c565b60405180910390f35b6105c661151c565b6040516105d3919061323c565b60405180910390f35b6105e461152b565b6040516105f1919061323c565b60405180910390f35b610614600480360381019061060f91906129fd565b61154b565b6040516106219190613206565b60405180910390f35b610644600480360381019061063f91906129d4565b6115df565b005b610660600480360381019061065b9190612c7e565b6116d7565b005b61067c60048036038101906106779190612b7b565b61175d565b005b60007f80ac58cd000000000000000000000000000000000000000000000000000000007bffffffffffffffffffffffffffffffffffffffffffffffffffffffff1916827bffffffffffffffffffffffffffffffffffffffffffffffffffffffff1916148061074957507f5b5e139f000000000000000000000000000000000000000000000000000000007bffffffffffffffffffffffffffffffffffffffffffffffffffffffff1916827bffffffffffffffffffffffffffffffffffffffffffffffffffffffff1916145b806107595750610758826117fd565b5b9050919050565b60606001805461076f9061374e565b80601f016020809104026020016040519081016040528092919081815260200182805461079b9061374e565b80156107e85780601f106107bd576101008083540402835291602001916107e8565b820191906000526020600020905b8154815290600101906020018083116107cb57829003601f168201915b5050505050905090565b60006107fd82611867565b61083c576040517f08c379a0000000000000000000000000000000000000000000000000000000008152600401610833906133fe565b60405180910390fd5b6005600083815260200190815260200160002060009054906101000a900473ffffffffffffffffffffffffffffffffffffffff169050919050565b600061088282610dbb565b90508073ffffffffffffffffffffffffffffffffffffffff168373ffffffffffffffffffffffffffffffffffffffff1614156108f3576040517f08c379a00000000000000000000000000000000000000000000000000000000081526004016108ea9061347e565b60405180910390fd5b8073ffffffffffffffffffffffffffffffffffffffff166109126118d3565b73ffffffffffffffffffffffffffffffffffffffff16148061094157506109408161093b6118d3565b61154b565b5b610980576040517f08c379a00000000000000000000000000000000000000000000000000000000081526004016109779061335e565b60405180910390fd5b61098a83836118db565b505050565b6109976118d3565b73ffffffffffffffffffffffffffffffffffffffff166109b5611052565b73ffffffffffffffffffffffffffffffffffffffff1614610a0b576040517f08c379a0000000000000000000000000000000000000000000000000000000008152600401610a029061341e565b60405180910390fd5b80600a8190555050565b610a26610a206118d3565b82611994565b610a65576040517f08c379a0000000000000000000000000000000000000000000000000000000008152600401610a5c9061349e565b60405180910390fd5b610a70838383611a72565b505050565b600e60009054906101000a900460ff1681565b600c5481565b600080600d80549050905060005b81811015610b52578373ffffffffffffffffffffffffffffffffffffffff16600d8281548110610af5577f4e487b7100000000000000000000000000000000000000000000000000000000600052603260045260246000fd5b9060005260206000200160009054906101000a900473ffffffffffffffffffffffffffffffffffffffff1673ffffffffffffffffffffffffffffffffffffffff161415610b4757600192505050610b59565b806001019050610a9c565b5060009150505b919050565b610b666118d3565b73ffffffffffffffffffffffffffffffffffffffff16610b84611052565b73ffffffffffffffffffffffffffffffffffffffff1614610bda576040517f08c379a0000000000000000000000000000000000000000000000000000000008152600401610bd19061341e565b60405180910390fd5b3373ffffffffffffffffffffffffffffffffffffffff166108fc479081150290604051600060405180830381858888f19350505050158015610c20573d6000803e3d6000fd5b50565b610c3e838383604051806020016040528060008152506113f9565b505050565b610c54610c4e6118d3565b82611994565b610c93576040517f08c379a0000000000000000000000000000000000000000000000000000000008152600401610c8a906134be565b60405180910390fd5b610c9c81611cd9565b50565b60088054610cac9061374e565b80601f0160208091040260200160405190810160405280929190818152602001828054610cd89061374e565b8015610d255780601f10610cfa57610100808354040283529160200191610d25565b820191906000526020600020905b815481529060010190602001808311610d0857829003601f168201915b505050505081565b60078054610d3a9061374e565b80601f0160208091040260200160405190810160405280929190818152602001828054610d669061374e565b8015610db35780601f10610d8857610100808354040283529160200191610db3565b820191906000526020600020905b815481529060010190602001808311610d9657829003601f168201915b505050505081565b6000806003600084815260200190815260200160002060009054906101000a900473ffffffffffffffffffffffffffffffffffffffff169050600073ffffffffffffffffffffffffffffffffffffffff168173ffffffffffffffffffffffffffffffffffffffff161415610e64576040517f08c379a0000000000000000000000000000000000000000000000000000000008152600401610e5b9061339e565b60405180910390fd5b80915050919050565b60008073ffffffffffffffffffffffffffffffffffffffff168273ffffffffffffffffffffffffffffffffffffffff161415610ede576040517f08c379a0000000000000000000000000000000000000000000000000000000008152600401610ed59061337e565b60405180910390fd5b600460008373ffffffffffffffffffffffffffffffffffffffff1673ffffffffffffffffffffffffffffffffffffffff168152602001908152602001600020549050919050565b610f2d6118d3565b73ffffffffffffffffffffffffffffffffffffffff16610f4b611052565b73ffffffffffffffffffffffffffffffffffffffff1614610fa1576040517f08c379a0000000000000000000000000000000000000000000000000000000008152600401610f989061341e565b60405180910390fd5b610fab6000611df6565b565b600b5481565b610fbb6118d3565b73ffffffffffffffffffffffffffffffffffffffff16610fd9611052565b73ffffffffffffffffffffffffffffffffffffffff161461102f576040517f08c379a00000000000000000000000000000000000000000000000000000000081526004016110269061341e565b60405180910390fd5b80600e60006101000a81548160ff02191690831515021790555050565b60095481565b60008060009054906101000a900473ffffffffffffffffffffffffffffffffffffffff16905090565b60606002805461108a9061374e565b80601f01602080910402602001604051908101604052809291908181526020018280546110b69061374e565b80156111035780601f106110d857610100808354040283529160200191611103565b820191906000526020600020905b8154815290600101906020018083116110e657829003601f168201915b5050505050905090565b61111f6111186118d3565b8383611eba565b5050565b600a5481565b6111316118d3565b73ffffffffffffffffffffffffffffffffffffffff1661114f611052565b73ffffffffffffffffffffffffffffffffffffffff16146111a5576040517f08c379a000000000000000000000000000000000000000000000000000000000815260040161119c9061341e565b60405180910390fd5b600082829050905060005b818161ffff16101561127b57600d84848361ffff168181106111fb577f4e487b7100000000000000000000000000000000000000000000000000000000600052603260045260246000fd5b905060200201602081019061121091906129d4565b9080600181540180825580915050600190039060005260206000200160009091909190916101000a81548173ffffffffffffffffffffffffffffffffffffffff021916908373ffffffffffffffffffffffffffffffffffffffff1602179055508060010190506111b0565b50505050565b600a5461128d33610e6d565b106112cd576040517f08c379a00000000000000000000000000000000000000000000000000000000081526004016112c49061343e565b60405180910390fd5b600954600b5410611313576040517f08c379a000000000000000000000000000000000000000000000000000000000815260040161130a906132be565b60405180910390fd5b600e60009054906101000a900460ff168061135a5750611359813360405160200161133e9190613153565b6040516020818303038152906040528051906020012061145b565b5b611399576040517f08c379a0000000000000000000000000000000000000000000000000000000008152600401611390906133de565b60405180910390fd5b6001600b60008282546113ac91906135d3565b925050819055506113bf33600b54612027565b7ff5535ccd9f40eb4bc73fac8710dbb2effbf3329da83f62b35d9aa88161bb85ca336040516113ee919061319f565b60405180910390a150565b61140a6114046118d3565b83611994565b611449576040517f08c379a00000000000000000000000000000000000000000000000000000000081526004016114409061349e565b60405180910390fd5b61145584848484612045565b50505050565b600061146a83600c54846120a1565b905092915050565b606061147d82611867565b6114bc576040517f08c379a00000000000000000000000000000000000000000000000000000000081526004016114b39061345e565b60405180910390fd5b60006114c66120b8565b905060008151116114e65760405180602001604052806000815250611514565b806114f0846120d8565b60086040516020016115049392919061316e565b6040516020818303038152906040525b915050919050565b60606115266120b8565b905090565b6060604051806060016040528060368152602001613f1b60369139905090565b6000600660008473ffffffffffffffffffffffffffffffffffffffff1673ffffffffffffffffffffffffffffffffffffffff16815260200190815260200160002060008373ffffffffffffffffffffffffffffffffffffffff1673ffffffffffffffffffffffffffffffffffffffff16815260200190815260200160002060009054906101000a900460ff16905092915050565b6115e76118d3565b73ffffffffffffffffffffffffffffffffffffffff16611605611052565b73ffffffffffffffffffffffffffffffffffffffff161461165b576040517f08c379a00000000000000000000000000000000000000000000000000000000081526004016116529061341e565b60405180910390fd5b600073ffffffffffffffffffffffffffffffffffffffff168173ffffffffffffffffffffffffffffffffffffffff1614156116cb576040517f08c379a00000000000000000000000000000000000000000000000000000000081526004016116c29061327e565b60405180910390fd5b6116d481611df6565b50565b6116df6118d3565b73ffffffffffffffffffffffffffffffffffffffff166116fd611052565b73ffffffffffffffffffffffffffffffffffffffff1614611753576040517f08c379a000000000000000000000000000000000000000000000000000000000815260040161174a9061341e565b60405180910390fd5b80600c8190555050565b6117656118d3565b73ffffffffffffffffffffffffffffffffffffffff16611783611052565b73ffffffffffffffffffffffffffffffffffffffff16146117d9576040517f08c379a00000000000000000000000000000000000000000000000000000000081526004016117d09061341e565b60405180910390fd5b600d60006117e79190612730565b8181600d91906117f8929190612751565b505050565b60007f01ffc9a7000000000000000000000000000000000000000000000000000000007bffffffffffffffffffffffffffffffffffffffffffffffffffffffff1916827bffffffffffffffffffffffffffffffffffffffffffffffffffffffff1916149050919050565b60008073ffffffffffffffffffffffffffffffffffffffff166003600084815260200190815260200160002060009054906101000a900473ffffffffffffffffffffffffffffffffffffffff1673ffffffffffffffffffffffffffffffffffffffff1614159050919050565b600033905090565b816005600083815260200190815260200160002060006101000a81548173ffffffffffffffffffffffffffffffffffffffff021916908373ffffffffffffffffffffffffffffffffffffffff160217905550808273ffffffffffffffffffffffffffffffffffffffff1661194e83610dbb565b73ffffffffffffffffffffffffffffffffffffffff167f8c5be1e5ebec7d5bd14f71427d1e84f3dd0314c0f7b2291e5b200ac8c7c3b92560405160405180910390a45050565b600061199f82611867565b6119de576040517f08c379a00000000000000000000000000000000000000000000000000000000081526004016119d59061333e565b60405180910390fd5b60006119e983610dbb565b90508073ffffffffffffffffffffffffffffffffffffffff168473ffffffffffffffffffffffffffffffffffffffff161480611a5857508373ffffffffffffffffffffffffffffffffffffffff16611a40846107f2565b73ffffffffffffffffffffffffffffffffffffffff16145b80611a695750611a68818561154b565b5b91505092915050565b8273ffffffffffffffffffffffffffffffffffffffff16611a9282610dbb565b73ffffffffffffffffffffffffffffffffffffffff1614611ae8576040517f08c379a0000000000000000000000000000000000000000000000000000000008152600401611adf9061329e565b60405180910390fd5b600073ffffffffffffffffffffffffffffffffffffffff168273ffffffffffffffffffffffffffffffffffffffff161415611b58576040517f08c379a0000000000000000000000000000000000000000000000000000000008152600401611b4f906132fe565b60405180910390fd5b611b63838383612285565b611b6e6000826118db565b6001600460008573ffffffffffffffffffffffffffffffffffffffff1673ffffffffffffffffffffffffffffffffffffffff1681526020019081526020016000206000828254611bbe919061365a565b925050819055506001600460008473ffffffffffffffffffffffffffffffffffffffff1673ffffffffffffffffffffffffffffffffffffffff1681526020019081526020016000206000828254611c1591906135d3565b92505081905550816003600083815260200190815260200160002060006101000a81548173ffffffffffffffffffffffffffffffffffffffff021916908373ffffffffffffffffffffffffffffffffffffffff160217905550808273ffffffffffffffffffffffffffffffffffffffff168473ffffffffffffffffffffffffffffffffffffffff167fddf252ad1be2c89b69c2b068fc378daa952ba7f163c4a11628f55a4df523b3ef60405160405180910390a4611cd483838361228a565b505050565b6000611ce482610dbb565b9050611cf281600084612285565b611cfd6000836118db565b6001600460008373ffffffffffffffffffffffffffffffffffffffff1673ffffffffffffffffffffffffffffffffffffffff1681526020019081526020016000206000828254611d4d919061365a565b925050819055506003600083815260200190815260200160002060006101000a81549073ffffffffffffffffffffffffffffffffffffffff021916905581600073ffffffffffffffffffffffffffffffffffffffff168273ffffffffffffffffffffffffffffffffffffffff167fddf252ad1be2c89b69c2b068fc378daa952ba7f163c4a11628f55a4df523b3ef60405160405180910390a4611df28160008461228a565b5050565b60008060009054906101000a900473ffffffffffffffffffffffffffffffffffffffff169050816000806101000a81548173ffffffffffffffffffffffffffffffffffffffff021916908373ffffffffffffffffffffffffffffffffffffffff1602179055508173ffffffffffffffffffffffffffffffffffffffff168173ffffffffffffffffffffffffffffffffffffffff167f8be0079c531659141344cd1fd0a4f28419497f9722a3daafe3b4186f6b6457e060405160405180910390a35050565b8173ffffffffffffffffffffffffffffffffffffffff168373ffffffffffffffffffffffffffffffffffffffff161415611f29576040517f08c379a0000000000000000000000000000000000000000000000000000000008152600401611f209061331e565b60405180910390fd5b80600660008573ffffffffffffffffffffffffffffffffffffffff1673ffffffffffffffffffffffffffffffffffffffff16815260200190815260200160002060008473ffffffffffffffffffffffffffffffffffffffff1673ffffffffffffffffffffffffffffffffffffffff16815260200190815260200160002060006101000a81548160ff0219169083151502179055508173ffffffffffffffffffffffffffffffffffffffff168373ffffffffffffffffffffffffffffffffffffffff167f17307eab39ab6107e8899845ad3d59bd9653f200f220920489ca2b5937696c318360405161201a9190613206565b60405180910390a3505050565b61204182826040518060200160405280600081525061228f565b5050565b612050848484611a72565b61205c848484846122ea565b61209b576040517f08c379a00000000000000000000000000000000000000000000000000000000081526004016120929061325e565b60405180910390fd5b50505050565b6000826120ae8584612481565b1490509392505050565b6060604051806060016040528060368152602001613ee560369139905090565b60606000821415612120576040518060400160405280600181526020017f30000000000000000000000000000000000000000000000000000000000000008152509050612280565b600082905060005b6000821461215257808061213b906137b1565b915050600a8261214b9190613629565b9150612128565b60008167ffffffffffffffff811115612194577f4e487b7100000000000000000000000000000000000000000000000000000000600052604160045260246000fd5b6040519080825280601f01601f1916602001820160405280156121c65781602001600182028036833780820191505090505b5090505b60008514612279576001826121df919061365a565b9150600a856121ee919061381e565b60306121fa91906135d3565b60f81b818381518110612236577f4e487b7100000000000000000000000000000000000000000000000000000000600052603260045260246000fd5b60200101907effffffffffffffffffffffffffffffffffffffffffffffffffffffffffffff1916908160001a905350600a856122729190613629565b94506121ca565b8093505050505b919050565b505050565b505050565b612299838361251c565b6122a660008484846122ea565b6122e5576040517f08c379a00000000000000000000000000000000000000000000000000000000081526004016122dc9061325e565b60405180910390fd5b505050565b600061230b8473ffffffffffffffffffffffffffffffffffffffff166126f6565b15612474578373ffffffffffffffffffffffffffffffffffffffff1663150b7a026123346118d3565b8786866040518563ffffffff1660e01b815260040161235694939291906131ba565b602060405180830381600087803b15801561237057600080fd5b505af19250505080156123a157506040513d601f19601f8201168201806040525081019061239e9190612cd0565b60015b612424573d80600081146123d1576040519150601f19603f3d011682016040523d82523d6000602084013e6123d6565b606091505b5060008151141561241c576040517f08c379a00000000000000000000000000000000000000000000000000000000081526004016124139061325e565b60405180910390fd5b805181602001fd5b63150b7a0260e01b7bffffffffffffffffffffffffffffffffffffffffffffffffffffffff1916817bffffffffffffffffffffffffffffffffffffffffffffffffffffffff191614915050612479565b600190505b949350505050565b60008082905060005b84518110156125115760008582815181106124ce577f4e487b7100000000000000000000000000000000000000000000000000000000600052603260045260246000fd5b602002602001015190508083116124f0576124e98382612719565b92506124fd565b6124fa8184612719565b92505b508080612509906137b1565b91505061248a565b508091505092915050565b600073ffffffffffffffffffffffffffffffffffffffff168273ffffffffffffffffffffffffffffffffffffffff16141561258c576040517f08c379a0000000000000000000000000000000000000000000000000000000008152600401612583906133be565b60405180910390fd5b61259581611867565b156125d5576040517f08c379a00000000000000000000000000000000000000000000000000000000081526004016125cc906132de565b60405180910390fd5b6125e160008383612285565b6001600460008473ffffffffffffffffffffffffffffffffffffffff1673ffffffffffffffffffffffffffffffffffffffff168152602001908152602001600020600082825461263191906135d3565b92505081905550816003600083815260200190815260200160002060006101000a81548173ffffffffffffffffffffffffffffffffffffffff021916908373ffffffffffffffffffffffffffffffffffffffff160217905550808273ffffffffffffffffffffffffffffffffffffffff16600073ffffffffffffffffffffffffffffffffffffffff167fddf252ad1be2c89b69c2b068fc378daa952ba7f163c4a11628f55a4df523b3ef60405160405180910390a46126f26000838361228a565b5050565b6000808273ffffffffffffffffffffffffffffffffffffffff163b119050919050565b600082600052816020526040600020905092915050565b508054600082559060005260206000209081019061274e91906127f1565b50565b8280548282559060005260206000209081019282156127e0579160200282015b828111156127df57823573ffffffffffffffffffffffffffffffffffffffff168260006101000a81548173ffffffffffffffffffffffffffffffffffffffff021916908373ffffffffffffffffffffffffffffffffffffffff16021790555091602001919060010190612771565b5b5090506127ed91906127f1565b5090565b5b8082111561280a5760008160009055506001016127f2565b5090565b600061282161281c8461351e565b6134f9565b9050808382526020820190508285602086028201111561284057600080fd5b60005b8581101561287057816128568882612956565b845260208401935060208301925050600181019050612843565b5050509392505050565b600061288d6128888461354a565b6134f9565b9050828152602081018484840111156128a557600080fd5b6128b084828561370c565b509392505050565b6000813590506128c781613e71565b92915050565b60008083601f8401126128df57600080fd5b8235905067ffffffffffffffff8111156128f857600080fd5b60208301915083602082028301111561291057600080fd5b9250929050565b600082601f83011261292857600080fd5b813561293884826020860161280e565b91505092915050565b60008135905061295081613e88565b92915050565b60008135905061296581613e9f565b92915050565b60008135905061297a81613eb6565b92915050565b60008151905061298f81613eb6565b92915050565b600082601f8301126129a657600080fd5b81356129b684826020860161287a565b91505092915050565b6000813590506129ce81613ecd565b92915050565b6000602082840312156129e657600080fd5b60006129f4848285016128b8565b91505092915050565b60008060408385031215612a1057600080fd5b6000612a1e858286016128b8565b9250506020612a2f858286016128b8565b9150509250929050565b600080600060608486031215612a4e57600080fd5b6000612a5c868287016128b8565b9350506020612a6d868287016128b8565b9250506040612a7e868287016129bf565b9150509250925092565b60008060008060808587031215612a9e57600080fd5b6000612aac878288016128b8565b9450506020612abd878288016128b8565b9350506040612ace878288016129bf565b925050606085013567ffffffffffffffff811115612aeb57600080fd5b612af787828801612995565b91505092959194509250565b60008060408385031215612b1657600080fd5b6000612b24858286016128b8565b9250506020612b3585828601612941565b9150509250929050565b60008060408385031215612b5257600080fd5b6000612b60858286016128b8565b9250506020612b71858286016129bf565b9150509250929050565b60008060208385031215612b8e57600080fd5b600083013567ffffffffffffffff811115612ba857600080fd5b612bb4858286016128cd565b92509250509250929050565b600060208284031215612bd257600080fd5b600082013567ffffffffffffffff811115612bec57600080fd5b612bf884828501612917565b91505092915050565b60008060408385031215612c1457600080fd5b600083013567ffffffffffffffff811115612c2e57600080fd5b612c3a85828601612917565b9250506020612c4b85828601612956565b9150509250929050565b600060208284031215612c6757600080fd5b6000612c7584828501612941565b91505092915050565b600060208284031215612c9057600080fd5b6000612c9e84828501612956565b91505092915050565b600060208284031215612cb957600080fd5b6000612cc78482850161296b565b91505092915050565b600060208284031215612ce257600080fd5b6000612cf084828501612980565b91505092915050565b600060208284031215612d0b57600080fd5b6000612d19848285016129bf565b91505092915050565b612d2b8161368e565b82525050565b612d42612d3d8261368e565b6137fa565b82525050565b612d51816136a0565b82525050565b612d60816136ac565b82525050565b6000612d7182613590565b612d7b81856135a6565b9350612d8b81856020860161371b565b612d948161390b565b840191505092915050565b6000612daa8261359b565b612db481856135b7565b9350612dc481856020860161371b565b612dcd8161390b565b840191505092915050565b6000612de38261359b565b612ded81856135c8565b9350612dfd81856020860161371b565b80840191505092915050565b60008154612e168161374e565b612e2081866135c8565b94506001821660008114612e3b5760018114612e4c57612e7f565b60ff19831686528186019350612e7f565b612e558561357b565b60005b83811015612e7757815481890152600182019150602081019050612e58565b838801955050505b50505092915050565b6000612e956032836135b7565b9150612ea082613929565b604082019050919050565b6000612eb86026836135b7565b9150612ec382613978565b604082019050919050565b6000612edb6025836135b7565b9150612ee6826139c7565b604082019050919050565b6000612efe601e836135b7565b9150612f0982613a16565b602082019050919050565b6000612f21601c836135b7565b9150612f2c82613a3f565b602082019050919050565b6000612f446024836135b7565b9150612f4f82613a68565b604082019050919050565b6000612f676019836135b7565b9150612f7282613ab7565b602082019050919050565b6000612f8a602c836135b7565b9150612f9582613ae0565b604082019050919050565b6000612fad6038836135b7565b9150612fb882613b2f565b604082019050919050565b6000612fd0602a836135b7565b9150612fdb82613b7e565b604082019050919050565b6000612ff36029836135b7565b9150612ffe82613bcd565b604082019050919050565b60006130166020836135b7565b915061302182613c1c565b602082019050919050565b60006130396017836135b7565b915061304482613c45565b602082019050919050565b600061305c602c836135b7565b915061306782613c6e565b604082019050919050565b600061307f6020836135b7565b915061308a82613cbd565b602082019050919050565b60006130a26022836135b7565b91506130ad82613ce6565b604082019050919050565b60006130c5602f836135b7565b91506130d082613d35565b604082019050919050565b60006130e86021836135b7565b91506130f382613d84565b604082019050919050565b600061310b6031836135b7565b915061311682613dd3565b604082019050919050565b600061312e6030836135b7565b915061313982613e22565b604082019050919050565b61314d81613702565b82525050565b600061315f8284612d31565b60148201915081905092915050565b600061317a8286612dd8565b91506131868285612dd8565b91506131928284612e09565b9150819050949350505050565b60006020820190506131b46000830184612d22565b92915050565b60006080820190506131cf6000830187612d22565b6131dc6020830186612d22565b6131e96040830185613144565b81810360608301526131fb8184612d66565b905095945050505050565b600060208201905061321b6000830184612d48565b92915050565b60006020820190506132366000830184612d57565b92915050565b600060208201905081810360008301526132568184612d9f565b905092915050565b6000602082019050818103600083015261327781612e88565b9050919050565b6000602082019050818103600083015261329781612eab565b9050919050565b600060208201905081810360008301526132b781612ece565b9050919050565b600060208201905081810360008301526132d781612ef1565b9050919050565b600060208201905081810360008301526132f781612f14565b9050919050565b6000602082019050818103600083015261331781612f37565b9050919050565b6000602082019050818103600083015261333781612f5a565b9050919050565b6000602082019050818103600083015261335781612f7d565b9050919050565b6000602082019050818103600083015261337781612fa0565b9050919050565b6000602082019050818103600083015261339781612fc3565b9050919050565b600060208201905081810360008301526133b781612fe6565b9050919050565b600060208201905081810360008301526133d781613009565b9050919050565b600060208201905081810360008301526133f78161302c565b9050919050565b600060208201905081810360008301526134178161304f565b9050919050565b6000602082019050818103600083015261343781613072565b9050919050565b6000602082019050818103600083015261345781613095565b9050919050565b60006020820190508181036000830152613477816130b8565b9050919050565b60006020820190508181036000830152613497816130db565b9050919050565b600060208201905081810360008301526134b7816130fe565b9050919050565b600060208201905081810360008301526134d781613121565b9050919050565b60006020820190506134f36000830184613144565b92915050565b6000613503613514565b905061350f8282613780565b919050565b6000604051905090565b600067ffffffffffffffff821115613539576135386138dc565b5b602082029050602081019050919050565b600067ffffffffffffffff821115613565576135646138dc565b5b61356e8261390b565b9050602081019050919050565b60008190508160005260206000209050919050565b600081519050919050565b600081519050919050565b600082825260208201905092915050565b600082825260208201905092915050565b600081905092915050565b60006135de82613702565b91506135e983613702565b9250827fffffffffffffffffffffffffffffffffffffffffffffffffffffffffffffffff0382111561361e5761361d61384f565b5b828201905092915050565b600061363482613702565b915061363f83613702565b92508261364f5761364e61387e565b5b828204905092915050565b600061366582613702565b915061367083613702565b9250828210156136835761368261384f565b5b828203905092915050565b6000613699826136e2565b9050919050565b60008115159050919050565b6000819050919050565b60007fffffffff0000000000000000000000000000000000000000000000000000000082169050919050565b600073ffffffffffffffffffffffffffffffffffffffff82169050919050565b6000819050919050565b82818337600083830152505050565b60005b8381101561373957808201518184015260208101905061371e565b83811115613748576000848401525b50505050565b6000600282049050600182168061376657607f821691505b6020821081141561377a576137796138ad565b5b50919050565b6137898261390b565b810181811067ffffffffffffffff821117156137a8576137a76138dc565b5b80604052505050565b60006137bc82613702565b91507fffffffffffffffffffffffffffffffffffffffffffffffffffffffffffffffff8214156137ef576137ee61384f565b5b600182019050919050565b60006138058261380c565b9050919050565b60006138178261391c565b9050919050565b600061382982613702565b915061383483613702565b9250826138445761384361387e565b5b828206905092915050565b7f4e487b7100000000000000000000000000000000000000000000000000000000600052601160045260246000fd5b7f4e487b7100000000000000000000000000000000000000000000000000000000600052601260045260246000fd5b7f4e487b7100000000000000000000000000000000000000000000000000000000600052602260045260246000fd5b7f4e487b7100000000000000000000000000000000000000000000000000000000600052604160045260246000fd5b6000601f19601f8301169050919050565b60008160601b9050919050565b7f4552433732313a207472616e7366657220746f206e6f6e20455243373231526560008201527f63656976657220696d706c656d656e7465720000000000000000000000000000602082015250565b7f4f776e61626c653a206e6577206f776e657220697320746865207a65726f206160008201527f6464726573730000000000000000000000000000000000000000000000000000602082015250565b7f4552433732313a207472616e736665722066726f6d20696e636f72726563742060008201527f6f776e6572000000000000000000000000000000000000000000000000000000602082015250565b7f4e6f206d6f7265204e465420617661696c61626c6520746f206d696e74210000600082015250565b7f4552433732313a20746f6b656e20616c7265616479206d696e74656400000000600082015250565b7f4552433732313a207472616e7366657220746f20746865207a65726f2061646460008201527f7265737300000000000000000000000000000000000000000000000000000000602082015250565b7f4552433732313a20617070726f766520746f2063616c6c657200000000000000600082015250565b7f4552433732313a206f70657261746f7220717565727920666f72206e6f6e657860008201527f697374656e7420746f6b656e0000000000000000000000000000000000000000602082015250565b7f4552433732313a20617070726f76652063616c6c6572206973206e6f74206f7760008201527f6e6572206e6f7220617070726f76656420666f7220616c6c0000000000000000602082015250565b7f4552433732313a2062616c616e636520717565727920666f7220746865207a6560008201527f726f206164647265737300000000000000000000000000000000000000000000602082015250565b7f4552433732313a206f776e657220717565727920666f72206e6f6e657869737460008201527f656e7420746f6b656e0000000000000000000000000000000000000000000000602082015250565b7f4552433732313a206d696e7420746f20746865207a65726f2061646472657373600082015250565b7f596f7520617265206e6f742077686974656c6973746564000000000000000000600082015250565b7f4552433732313a20617070726f76656420717565727920666f72206e6f6e657860008201527f697374656e7420746f6b656e0000000000000000000000000000000000000000602082015250565b7f4f776e61626c653a2063616c6c6572206973206e6f7420746865206f776e6572600082015250565b7f456163682061646472657373206d6179206f6e6c79206d696e742078204e465460008201527f7321000000000000000000000000000000000000000000000000000000000000602082015250565b7f4552433732314d657461646174613a2055524920717565727920666f72206e6f60008201527f6e6578697374656e7420746f6b656e0000000000000000000000000000000000602082015250565b7f4552433732313a20617070726f76616c20746f2063757272656e74206f776e6560008201527f7200000000000000000000000000000000000000000000000000000000000000602082015250565b7f4552433732313a207472616e736665722063616c6c6572206973206e6f74206f60008201527f776e6572206e6f7220617070726f766564000000000000000000000000000000602082015250565b7f4552433732314275726e61626c653a2063616c6c6572206973206e6f74206f7760008201527f6e6572206e6f7220617070726f76656400000000000000000000000000000000602082015250565b613e7a8161368e565b8114613e8557600080fd5b50565b613e91816136a0565b8114613e9c57600080fd5b50565b613ea8816136ac565b8114613eb357600080fd5b50565b613ebf816136b6565b8114613eca57600080fd5b50565b613ed681613702565b8114613ee157600080fd5b5056fe697066733a2f2f516d65614134776278544850457035384b536b6776665773315a705552536d326372597357333553574d50776f4d2f697066733a2f2f516d646d5350614e4661427a56523347534644666d50374447394a6461686e4475315039344c35483434593544522fa264697066735822122088f3e7bd9c7daf03451c360cfe1752a63fa6acf1c5169a999ee34995ba1bbca764736f6c63430008040033",
  "linkReferences": {},
  "deployedLinkReferences": {}
}