{
  "_format": "hh-sol-artifact-1",
  "contractName": "NFT",
  "sourceName": "src/backend/contracts/NFT.sol",
  "abi": [
    {
      "inputs": [
        {
          "internalType": "address",
          "name": "tokenAddress",
          "type": "address"
        },
        {
          "internalType": "uint64",
          "name": "subscriptionId",
          "type": "uint64"
        }
      ],
      "stateMutability": "nonpayable",
      "type": "constructor"
    },
    {
      "inputs": [
        {
          "internalType": "address",
          "name": "have",
          "type": "address"
        },
        {
          "internalType": "address",
          "name": "want",
          "type": "address"
        }
      ],
      "name": "OnlyCoordinatorCanFulfill",
      "type": "error"
    },
    {
      "anonymous": false,
      "inputs": [
        {
          "indexed": true,
          "internalType": "address",
          "name": "owner",
          "type": "address"
        },
        {
          "indexed": true,
          "internalType": "address",
          "name": "approved",
          "type": "address"
        },
        {
          "indexed": true,
          "internalType": "uint256",
          "name": "tokenId",
          "type": "uint256"
        }
      ],
      "name": "Approval",
      "type": "event"
    },
    {
      "anonymous": false,
      "inputs": [
        {
          "indexed": true,
          "internalType": "address",
          "name": "owner",
          "type": "address"
        },
        {
          "indexed": true,
          "internalType": "address",
          "name": "operator",
          "type": "address"
        },
        {
          "indexed": false,
          "internalType": "bool",
          "name": "approved",
          "type": "bool"
        }
      ],
      "name": "ApprovalForAll",
      "type": "event"
    },
    {
      "anonymous": false,
      "inputs": [
        {
          "indexed": false,
          "internalType": "address",
          "name": "user",
          "type": "address"
        }
      ],
      "name": "MintRequestSent",
      "type": "event"
    },
    {
      "anonymous": false,
      "inputs": [
        {
          "indexed": false,
          "internalType": "address",
          "name": "user",
          "type": "address"
        },
        {
          "indexed": false,
          "internalType": "uint256",
          "name": "tokenId",
          "type": "uint256"
        }
      ],
      "name": "MintSuccessful",
      "type": "event"
    },
    {
      "anonymous": false,
      "inputs": [
        {
          "indexed": true,
          "internalType": "address",
          "name": "previousOwner",
          "type": "address"
        },
        {
          "indexed": true,
          "internalType": "address",
          "name": "newOwner",
          "type": "address"
        }
      ],
      "name": "OwnershipTransferred",
      "type": "event"
    },
    {
      "anonymous": false,
      "inputs": [
        {
          "indexed": false,
          "internalType": "address",
          "name": "user",
          "type": "address"
        },
        {
          "indexed": false,
          "internalType": "uint256",
          "name": "tokenId",
          "type": "uint256"
        }
      ],
      "name": "Redeem",
      "type": "event"
    },
    {
      "anonymous": false,
      "inputs": [
        {
          "indexed": true,
          "internalType": "address",
          "name": "from",
          "type": "address"
        },
        {
          "indexed": true,
          "internalType": "address",
          "name": "to",
          "type": "address"
        },
        {
          "indexed": true,
          "internalType": "uint256",
          "name": "tokenId",
          "type": "uint256"
        }
      ],
      "name": "Transfer",
      "type": "event"
    },
    {
      "inputs": [
        {
          "internalType": "address",
          "name": "user",
          "type": "address"
        },
        {
          "internalType": "uint256",
          "name": "_tokenId",
          "type": "uint256"
        }
      ],
      "name": "airdrop",
      "outputs": [],
      "stateMutability": "nonpayable",
      "type": "function"
    },
    {
      "inputs": [
        {
          "internalType": "address",
          "name": "user",
          "type": "address"
        },
        {
          "internalType": "uint256",
          "name": "_random",
          "type": "uint256"
        }
      ],
      "name": "airdropRandom",
      "outputs": [],
      "stateMutability": "nonpayable",
      "type": "function"
    },
    {
      "inputs": [],
      "name": "amountMintPerAccount",
      "outputs": [
        {
          "internalType": "uint256",
          "name": "",
          "type": "uint256"
        }
      ],
      "stateMutability": "view",
      "type": "function"
    },
    {
      "inputs": [
        {
          "internalType": "address",
          "name": "to",
          "type": "address"
        },
        {
          "internalType": "uint256",
          "name": "tokenId",
          "type": "uint256"
        }
      ],
      "name": "approve",
      "outputs": [],
      "stateMutability": "nonpayable",
      "type": "function"
    },
    {
      "inputs": [
        {
          "internalType": "address",
          "name": "owner",
          "type": "address"
        }
      ],
      "name": "balanceOf",
      "outputs": [
        {
          "internalType": "uint256",
          "name": "",
          "type": "uint256"
        }
      ],
      "stateMutability": "view",
      "type": "function"
    },
    {
      "inputs": [],
      "name": "baseUri",
      "outputs": [
        {
          "internalType": "string",
          "name": "",
          "type": "string"
        }
      ],
      "stateMutability": "view",
      "type": "function"
    },
    {
      "inputs": [],
      "name": "contractURI",
      "outputs": [
        {
          "internalType": "string",
          "name": "",
          "type": "string"
        }
      ],
      "stateMutability": "pure",
      "type": "function"
    },
    {
      "inputs": [
        {
          "internalType": "uint256",
          "name": "tokenId",
          "type": "uint256"
        }
      ],
      "name": "getApproved",
      "outputs": [
        {
          "internalType": "address",
          "name": "",
          "type": "address"
        }
      ],
      "stateMutability": "view",
      "type": "function"
    },
    {
      "inputs": [],
      "name": "getAvailableTokensCount",
      "outputs": [
        {
          "internalType": "uint256",
          "name": "",
          "type": "uint256"
        }
      ],
      "stateMutability": "view",
      "type": "function"
    },
    {
      "inputs": [],
      "name": "getPrice",
      "outputs": [
        {
          "internalType": "uint256",
          "name": "",
          "type": "uint256"
        }
      ],
      "stateMutability": "view",
      "type": "function"
    },
    {
      "inputs": [],
      "name": "getRedeemedTokensTokenId",
      "outputs": [
        {
          "internalType": "uint16[]",
          "name": "",
          "type": "uint16[]"
        }
      ],
      "stateMutability": "view",
      "type": "function"
    },
    {
      "inputs": [],
      "name": "getRedeemedTokensUser",
      "outputs": [
        {
          "internalType": "address[]",
          "name": "",
          "type": "address[]"
        }
      ],
      "stateMutability": "view",
      "type": "function"
    },
    {
      "inputs": [],
      "name": "getTokensInitializedCount",
      "outputs": [
        {
          "internalType": "uint16",
          "name": "",
          "type": "uint16"
        }
      ],
      "stateMutability": "view",
      "type": "function"
    },
    {
      "inputs": [
        {
          "internalType": "uint16",
          "name": "_count",
          "type": "uint16"
        }
      ],
      "name": "initializeTokens",
      "outputs": [],
      "stateMutability": "nonpayable",
      "type": "function"
    },
    {
      "inputs": [
        {
          "internalType": "address",
          "name": "owner",
          "type": "address"
        },
        {
          "internalType": "address",
          "name": "operator",
          "type": "address"
        }
      ],
      "name": "isApprovedForAll",
      "outputs": [
        {
          "internalType": "bool",
          "name": "",
          "type": "bool"
        }
      ],
      "stateMutability": "view",
      "type": "function"
    },
    {
      "inputs": [],
      "name": "max_supply",
      "outputs": [
        {
          "internalType": "uint16",
          "name": "",
          "type": "uint16"
        }
      ],
      "stateMutability": "view",
      "type": "function"
    },
    {
      "inputs": [],
      "name": "mint",
      "outputs": [],
      "stateMutability": "nonpayable",
      "type": "function"
    },
    {
      "inputs": [],
      "name": "name",
      "outputs": [
        {
          "internalType": "string",
          "name": "",
          "type": "string"
        }
      ],
      "stateMutability": "view",
      "type": "function"
    },
    {
      "inputs": [],
      "name": "owner",
      "outputs": [
        {
          "internalType": "address",
          "name": "",
          "type": "address"
        }
      ],
      "stateMutability": "view",
      "type": "function"
    },
    {
      "inputs": [
        {
          "internalType": "uint256",
          "name": "tokenId",
          "type": "uint256"
        }
      ],
      "name": "ownerOf",
      "outputs": [
        {
          "internalType": "address",
          "name": "",
          "type": "address"
        }
      ],
      "stateMutability": "view",
      "type": "function"
    },
    {
      "inputs": [],
      "name": "price",
      "outputs": [
        {
          "internalType": "uint256",
          "name": "",
          "type": "uint256"
        }
      ],
      "stateMutability": "view",
      "type": "function"
    },
    {
      "inputs": [
        {
          "internalType": "uint256",
          "name": "requestId",
          "type": "uint256"
        },
        {
          "internalType": "uint256[]",
          "name": "randomWords",
          "type": "uint256[]"
        }
      ],
      "name": "rawFulfillRandomWords",
      "outputs": [],
      "stateMutability": "nonpayable",
      "type": "function"
    },
    {
      "inputs": [
        {
          "internalType": "uint16",
          "name": "_tokenId",
          "type": "uint16"
        }
      ],
      "name": "redeemAndBurn",
      "outputs": [],
      "stateMutability": "nonpayable",
      "type": "function"
    },
    {
      "inputs": [],
      "name": "renounceOwnership",
      "outputs": [],
      "stateMutability": "nonpayable",
      "type": "function"
    },
    {
      "inputs": [
        {
          "internalType": "uint256",
          "name": "",
          "type": "uint256"
        }
      ],
      "name": "s_randomWords",
      "outputs": [
        {
          "internalType": "uint256",
          "name": "",
          "type": "uint256"
        }
      ],
      "stateMutability": "view",
      "type": "function"
    },
    {
      "inputs": [],
      "name": "s_requestId",
      "outputs": [
        {
          "internalType": "uint256",
          "name": "",
          "type": "uint256"
        }
      ],
      "stateMutability": "view",
      "type": "function"
    },
    {
      "inputs": [
        {
          "internalType": "address",
          "name": "from",
          "type": "address"
        },
        {
          "internalType": "address",
          "name": "to",
          "type": "address"
        },
        {
          "internalType": "uint256",
          "name": "tokenId",
          "type": "uint256"
        }
      ],
      "name": "safeTransferFrom",
      "outputs": [],
      "stateMutability": "nonpayable",
      "type": "function"
    },
    {
      "inputs": [
        {
          "internalType": "address",
          "name": "from",
          "type": "address"
        },
        {
          "internalType": "address",
          "name": "to",
          "type": "address"
        },
        {
          "internalType": "uint256",
          "name": "tokenId",
          "type": "uint256"
        },
        {
          "internalType": "bytes",
          "name": "_data",
          "type": "bytes"
        }
      ],
      "name": "safeTransferFrom",
      "outputs": [],
      "stateMutability": "nonpayable",
      "type": "function"
    },
    {
      "inputs": [
        {
          "internalType": "uint256",
          "name": "_amountMintPerAccount",
          "type": "uint256"
        }
      ],
      "name": "setAmountMintPerAccount",
      "outputs": [],
      "stateMutability": "nonpayable",
      "type": "function"
    },
    {
      "inputs": [
        {
          "internalType": "address",
          "name": "operator",
          "type": "address"
        },
        {
          "internalType": "bool",
          "name": "approved",
          "type": "bool"
        }
      ],
      "name": "setApprovalForAll",
      "outputs": [],
      "stateMutability": "nonpayable",
      "type": "function"
    },
    {
      "inputs": [
        {
          "internalType": "string",
          "name": "_baseUri",
          "type": "string"
        }
      ],
      "name": "setBaseUri",
      "outputs": [],
      "stateMutability": "nonpayable",
      "type": "function"
    },
    {
      "inputs": [
        {
          "internalType": "uint256",
          "name": "_price",
          "type": "uint256"
        }
      ],
      "name": "setPrice",
      "outputs": [],
      "stateMutability": "nonpayable",
      "type": "function"
    },
    {
      "inputs": [
        {
          "internalType": "bytes4",
          "name": "interfaceId",
          "type": "bytes4"
        }
      ],
      "name": "supportsInterface",
      "outputs": [
        {
          "internalType": "bool",
          "name": "",
          "type": "bool"
        }
      ],
      "stateMutability": "view",
      "type": "function"
    },
    {
      "inputs": [],
      "name": "symbol",
      "outputs": [
        {
          "internalType": "string",
          "name": "",
          "type": "string"
        }
      ],
      "stateMutability": "view",
      "type": "function"
    },
    {
      "inputs": [],
      "name": "token",
      "outputs": [
        {
          "internalType": "contract ERC20",
          "name": "",
          "type": "address"
        }
      ],
      "stateMutability": "view",
      "type": "function"
    },
    {
      "inputs": [
        {
          "internalType": "uint256",
          "name": "_tokenId",
          "type": "uint256"
        }
      ],
      "name": "tokenURI",
      "outputs": [
        {
          "internalType": "string",
          "name": "",
          "type": "string"
        }
      ],
      "stateMutability": "view",
      "type": "function"
    },
    {
      "inputs": [
        {
          "internalType": "address",
          "name": "from",
          "type": "address"
        },
        {
          "internalType": "address",
          "name": "to",
          "type": "address"
        },
        {
          "internalType": "uint256",
          "name": "tokenId",
          "type": "uint256"
        }
      ],
      "name": "transferFrom",
      "outputs": [],
      "stateMutability": "nonpayable",
      "type": "function"
    },
    {
      "inputs": [
        {
          "internalType": "address",
          "name": "newOwner",
          "type": "address"
        }
      ],
      "name": "transferOwnership",
      "outputs": [],
      "stateMutability": "nonpayable",
      "type": "function"
    },
    {
      "inputs": [],
      "name": "uriSuffix",
      "outputs": [
        {
          "internalType": "string",
          "name": "",
          "type": "string"
        }
      ],
      "stateMutability": "view",
      "type": "function"
    },
    {
      "inputs": [],
      "name": "withdraw",
      "outputs": [],
      "stateMutability": "nonpayable",
      "type": "function"
    }
  ],
  "bytecode": "0x60a06040526040518060600160405280603681526020016200529860369139600990805190602001906200003592919062000437565b50611388600a60006101000a81548161ffff021916908361ffff1602179055506000600b55670de0b6b3a7640000600c5573271682deb8c4e0901d1a1550ad2e64d568e69909601260006101000a81548173ffffffffffffffffffffffffffffffffffffffff021916908373ffffffffffffffffffffffffffffffffffffffff1602179055507f8af398995b04c28e9951adb9721ef74c74f93e6a478f39e7e0777be13527e7ef60001b60135562030d40601460006101000a81548163ffffffff021916908363ffffffff1602179055506003601460046101000a81548161ffff021916908361ffff1602179055506001601460066101000a81548163ffffffff021916908363ffffffff1602179055503480156200015357600080fd5b50604051620052ce380380620052ce833981810160405281019062000179919062000515565b601260009054906101000a900473ffffffffffffffffffffffffffffffffffffffff166040518060400160405280600c81526020017f4f6c64204661726d204d616e00000000000000000000000000000000000000008152506040518060400160405280600381526020017f4f464d000000000000000000000000000000000000000000000000000000000081525081600090805190602001906200022092919062000437565b5080600190805190602001906200023992919062000437565b5050506200025c620002506200036960201b60201c565b6200037160201b60201c565b8073ffffffffffffffffffffffffffffffffffffffff1660808173ffffffffffffffffffffffffffffffffffffffff1660601b815250505081600860006101000a81548173ffffffffffffffffffffffffffffffffffffffff021916908373ffffffffffffffffffffffffffffffffffffffff160217905550601260009054906101000a900473ffffffffffffffffffffffffffffffffffffffff16601160086101000a81548173ffffffffffffffffffffffffffffffffffffffff021916908373ffffffffffffffffffffffffffffffffffffffff16021790555080601160006101000a81548167ffffffffffffffff021916908367ffffffffffffffff160217905550505062000637565b600033905090565b6000600760009054906101000a900473ffffffffffffffffffffffffffffffffffffffff16905081600760006101000a81548173ffffffffffffffffffffffffffffffffffffffff021916908373ffffffffffffffffffffffffffffffffffffffff1602179055508173ffffffffffffffffffffffffffffffffffffffff168173ffffffffffffffffffffffffffffffffffffffff167f8be0079c531659141344cd1fd0a4f28419497f9722a3daafe3b4186f6b6457e060405160405180910390a35050565b82805462000445906200059e565b90600052602060002090601f016020900481019282620004695760008555620004b5565b82601f106200048457805160ff1916838001178555620004b5565b82800160010185558215620004b5579182015b82811115620004b457825182559160200191906001019062000497565b5b509050620004c49190620004c8565b5090565b5b80821115620004e3576000816000905550600101620004c9565b5090565b600081519050620004f88162000603565b92915050565b6000815190506200050f816200061d565b92915050565b600080604083850312156200052957600080fd5b60006200053985828601620004e7565b92505060206200054c85828601620004fe565b9150509250929050565b600062000563826200056a565b9050919050565b600073ffffffffffffffffffffffffffffffffffffffff82169050919050565b600067ffffffffffffffff82169050919050565b60006002820490506001821680620005b757607f821691505b60208210811415620005ce57620005cd620005d4565b5b50919050565b7f4e487b7100000000000000000000000000000000000000000000000000000000600052602260045260246000fd5b6200060e8162000556565b81146200061a57600080fd5b50565b62000628816200058a565b81146200063457600080fd5b50565b60805160601c614c3b6200065d60003960008181610dc80152610e1c0152614c3b6000f3fe608060405234801561001057600080fd5b50600436106102485760003560e01c80638ba4cc3c1161013b578063b88d4fde116100b8578063ef6b85d41161007c578063ef6b85d41461067d578063f2fde38b1461069b578063f6eaffc8146106b7578063f8af6716146106e7578063fc0c546a1461070557610248565b8063b88d4fde146105c5578063c87b56dd146105e1578063e89e106a14610611578063e8a3d4851461062f578063e985e9c51461064d57610248565b80639abc8320116100ff5780639abc832014610533578063a035b1fe14610551578063a0bcfc7f1461056f578063a22cb4651461058b578063a827b5ff146105a757610248565b80638ba4cc3c146104a15780638da5cb5b146104bd57806391b7f5ed146104db57806395d89b41146104f757806398d5fdca1461051557610248565b80632dcd52f2116101c95780636b88c8de1161018d5780636b88c8de1461040f57806370a082311461042d578063715018a61461045d5780637587fe9d146104675780638a333b501461048357610248565b80632dcd52f21461037d5780633ccfd60b1461039b57806342842e0e146103a55780635503a0e8146103c15780636352211e146103df57610248565b80631249c58b116102105780631249c58b146103035780631a8fed491461030d5780631fe543e31461032957806323b872dd14610345578063289d57d61461036157610248565b806301ffc9a71461024d57806306fdde031461027d578063081812fc1461029b578063095ea7b3146102cb57806311296660146102e7575b600080fd5b61026760048036038101906102629190613541565b610723565b6040516102749190613d48565b60405180910390f35b610285610805565b6040516102929190613dd1565b60405180910390f35b6102b560048036038101906102b09190613601565b610897565b6040516102c29190613beb565b60405180910390f35b6102e560048036038101906102e091906134dc565b61091c565b005b61030160048036038101906102fc9190613601565b610a34565b005b61030b610aba565b005b610327600480360381019061032291906135d8565b610c56565b005b610343600480360381019061033e9190613653565b610dc6565b005b61035f600480360381019061035a91906133d6565b610e86565b005b61037b600480360381019061037691906135d8565b610ee6565b005b6103856110af565b60405161039291906140ae565b60405180910390f35b6103a36110bc565b005b6103bf60048036038101906103ba91906133d6565b611181565b005b6103c96111a1565b6040516103d69190613dd1565b60405180910390f35b6103f960048036038101906103f49190613601565b6111da565b6040516104069190613beb565b60405180910390f35b61041761128c565b6040516104249190613d26565b60405180910390f35b61044760048036038101906104429190613371565b61130c565b60405161045491906140ae565b60405180910390f35b6104656113c4565b005b610481600480360381019061047c91906134dc565b61144c565b005b61048b6114d6565b6040516104989190614093565b60405180910390f35b6104bb60048036038101906104b691906134dc565b6114ea565b005b6104c56115ad565b6040516104d29190613beb565b60405180910390f35b6104f560048036038101906104f09190613601565b6115d7565b005b6104ff61165d565b60405161050c9190613dd1565b60405180910390f35b61051d6116ef565b60405161052a91906140ae565b60405180910390f35b61053b6116f9565b6040516105489190613dd1565b60405180910390f35b610559611787565b60405161056691906140ae565b60405180910390f35b61058960048036038101906105849190613593565b61178d565b005b6105a560048036038101906105a091906134a0565b61181f565b005b6105af611835565b6040516105bc91906140ae565b60405180910390f35b6105df60048036038101906105da9190613425565b61183b565b005b6105fb60048036038101906105f69190613601565b61189d565b6040516106089190613dd1565b60405180910390f35b61061961197b565b60405161062691906140ae565b60405180910390f35b610637611981565b6040516106449190613dd1565b60405180910390f35b6106676004803603810190610662919061339a565b6119a1565b6040516106749190613d48565b60405180910390f35b610685611a35565b6040516106929190613d04565b60405180910390f35b6106b560048036038101906106b09190613371565b611ac3565b005b6106d160048036038101906106cc9190613601565b611bbb565b6040516106de91906140ae565b60405180910390f35b6106ef611bdf565b6040516106fc9190614093565b60405180910390f35b61070d611bf7565b60405161071a9190613db6565b60405180910390f35b60007f80ac58cd000000000000000000000000000000000000000000000000000000007bffffffffffffffffffffffffffffffffffffffffffffffffffffffff1916827bffffffffffffffffffffffffffffffffffffffffffffffffffffffff191614806107ee57507f5b5e139f000000000000000000000000000000000000000000000000000000007bffffffffffffffffffffffffffffffffffffffffffffffffffffffff1916827bffffffffffffffffffffffffffffffffffffffffffffffffffffffff1916145b806107fe57506107fd82611c1d565b5b9050919050565b6060600080546108149061441b565b80601f01602080910402602001604051908101604052809291908181526020018280546108409061441b565b801561088d5780601f106108625761010080835404028352916020019161088d565b820191906000526020600020905b81548152906001019060200180831161087057829003601f168201915b5050505050905090565b60006108a282611c87565b6108e1576040517f08c379a00000000000000000000000000000000000000000000000000000000081526004016108d890613f93565b60405180910390fd5b6004600083815260200190815260200160002060009054906101000a900473ffffffffffffffffffffffffffffffffffffffff169050919050565b6000610927826111da565b90508073ffffffffffffffffffffffffffffffffffffffff168373ffffffffffffffffffffffffffffffffffffffff161415610998576040517f08c379a000000000000000000000000000000000000000000000000000000000815260040161098f90614013565b60405180910390fd5b8073ffffffffffffffffffffffffffffffffffffffff166109b7611cf3565b73ffffffffffffffffffffffffffffffffffffffff1614806109e657506109e5816109e0611cf3565b6119a1565b5b610a25576040517f08c379a0000000000000000000000000000000000000000000000000000000008152600401610a1c90613ef3565b60405180910390fd5b610a2f8383611cfb565b505050565b610a3c611cf3565b73ffffffffffffffffffffffffffffffffffffffff16610a5a6115ad565b73ffffffffffffffffffffffffffffffffffffffff1614610ab0576040517f08c379a0000000000000000000000000000000000000000000000000000000008152600401610aa790613fb3565b60405180910390fd5b80600b8190555050565b6000600d8054905011610b02576040517f08c379a0000000000000000000000000000000000000000000000000000000008152600401610af990614073565b60405180910390fd5b6000600b541480610b1c5750600b54610b1a3361130c565b105b610b5b576040517f08c379a0000000000000000000000000000000000000000000000000000000008152600401610b5290613fd3565b60405180910390fd5b600860009054906101000a900473ffffffffffffffffffffffffffffffffffffffff1673ffffffffffffffffffffffffffffffffffffffff166323b872dd3330610ba36116ef565b6040518463ffffffff1660e01b8152600401610bc193929190613c2f565b602060405180830381600087803b158015610bdb57600080fd5b505af1158015610bef573d6000803e3d6000fd5b505050506040513d601f19601f82011682018060405250810190610c139190613518565b507fa7ff50923ec39d175a65bd008d51f39568b73da5d06a400c53fdba484edabac033604051610c439190613beb565b60405180910390a1610c5433611db4565b565b610c638161ffff166111da565b73ffffffffffffffffffffffffffffffffffffffff163373ffffffffffffffffffffffffffffffffffffffff1614610cd0576040517f08c379a0000000000000000000000000000000000000000000000000000000008152600401610cc790614053565b60405180910390fd5b600f339080600181540180825580915050600190039060005260206000200160009091909190916101000a81548173ffffffffffffffffffffffffffffffffffffffff021916908373ffffffffffffffffffffffffffffffffffffffff16021790555060108190806001815401808255809150506001900390600052602060002090601091828204019190066002029091909190916101000a81548161ffff021916908361ffff160217905550610d8a8161ffff16611f21565b7f222838db2794d11532d940e8dec38ae307ed0b63cd97c233322e221f998767a63382604051610dbb929190613cb2565b60405180910390a150565b7f000000000000000000000000000000000000000000000000000000000000000073ffffffffffffffffffffffffffffffffffffffff163373ffffffffffffffffffffffffffffffffffffffff1614610e7857337f00000000000000000000000000000000000000000000000000000000000000006040517f1cf993f4000000000000000000000000000000000000000000000000000000008152600401610e6f929190613c06565b60405180910390fd5b610e828282611f74565b5050565b610e97610e91611cf3565b82612108565b610ed6576040517f08c379a0000000000000000000000000000000000000000000000000000000008152600401610ecd90614033565b60405180910390fd5b610ee18383836121e6565b505050565b610eee611cf3565b73ffffffffffffffffffffffffffffffffffffffff16610f0c6115ad565b73ffffffffffffffffffffffffffffffffffffffff1614610f62576040517f08c379a0000000000000000000000000000000000000000000000000000000008152600401610f5990613fb3565b60405180910390fd5b6000600e60009054906101000a900461ffff169050600a60009054906101000a900461ffff1661ffff168282610f989190614200565b61ffff161115610fdd576040517f08c379a0000000000000000000000000000000000000000000000000000000008152600401610fd490613e73565b60405180910390fd5b600060018383610fed9190614200565b610ff79190614200565b905060006001836110089190614200565b90505b8161ffff168161ffff16101561107057600d8190806001815401808255809150506001900390600052602060002090601091828204019190066002029091909190916101000a81548161ffff021916908361ffff16021790555080600101905061100b565b5082600e60008282829054906101000a900461ffff166110909190614200565b92506101000a81548161ffff021916908361ffff160217905550505050565b6000600d80549050905090565b6110c4611cf3565b73ffffffffffffffffffffffffffffffffffffffff166110e26115ad565b73ffffffffffffffffffffffffffffffffffffffff1614611138576040517f08c379a000000000000000000000000000000000000000000000000000000000815260040161112f90613fb3565b60405180910390fd5b3373ffffffffffffffffffffffffffffffffffffffff166108fc479081150290604051600060405180830381858888f1935050505015801561117e573d6000803e3d6000fd5b50565b61119c8383836040518060200160405280600081525061183b565b505050565b6040518060400160405280600581526020017f2e6a736f6e00000000000000000000000000000000000000000000000000000081525081565b6000806002600084815260200190815260200160002060009054906101000a900473ffffffffffffffffffffffffffffffffffffffff169050600073ffffffffffffffffffffffffffffffffffffffff168173ffffffffffffffffffffffffffffffffffffffff161415611283576040517f08c379a000000000000000000000000000000000000000000000000000000000815260040161127a90613f33565b60405180910390fd5b80915050919050565b6060601080548060200260200160405190810160405280929190818152602001828054801561130257602002820191906000526020600020906000905b82829054906101000a900461ffff1661ffff16815260200190600201906020826001010492830192600103820291508084116112c95790505b5050505050905090565b60008073ffffffffffffffffffffffffffffffffffffffff168273ffffffffffffffffffffffffffffffffffffffff16141561137d576040517f08c379a000000000000000000000000000000000000000000000000000000000815260040161137490613f13565b60405180910390fd5b600360008373ffffffffffffffffffffffffffffffffffffffff1673ffffffffffffffffffffffffffffffffffffffff168152602001908152602001600020549050919050565b6113cc611cf3565b73ffffffffffffffffffffffffffffffffffffffff166113ea6115ad565b73ffffffffffffffffffffffffffffffffffffffff1614611440576040517f08c379a000000000000000000000000000000000000000000000000000000000815260040161143790613fb3565b60405180910390fd5b61144a600061244d565b565b611454611cf3565b73ffffffffffffffffffffffffffffffffffffffff166114726115ad565b73ffffffffffffffffffffffffffffffffffffffff16146114c8576040517f08c379a00000000000000000000000000000000000000000000000000000000081526004016114bf90613fb3565b60405180910390fd5b6114d28282612513565b5050565b600a60009054906101000a900461ffff1681565b6114f2611cf3565b73ffffffffffffffffffffffffffffffffffffffff166115106115ad565b73ffffffffffffffffffffffffffffffffffffffff1614611566576040517f08c379a000000000000000000000000000000000000000000000000000000000815260040161155d90613fb3565b60405180910390fd5b6115708282612715565b7f76020ece75bf679c701e656fcffc7e3df8354859b3b0eb7fee42b1378023bb3182826040516115a1929190613cdb565b60405180910390a15050565b6000600760009054906101000a900473ffffffffffffffffffffffffffffffffffffffff16905090565b6115df611cf3565b73ffffffffffffffffffffffffffffffffffffffff166115fd6115ad565b73ffffffffffffffffffffffffffffffffffffffff1614611653576040517f08c379a000000000000000000000000000000000000000000000000000000000815260040161164a90613fb3565b60405180910390fd5b80600c8190555050565b60606001805461166c9061441b565b80601f01602080910402602001604051908101604052809291908181526020018280546116989061441b565b80156116e55780601f106116ba576101008083540402835291602001916116e5565b820191906000526020600020905b8154815290600101906020018083116116c857829003601f168201915b5050505050905090565b6000600c54905090565b600980546117069061441b565b80601f01602080910402602001604051908101604052809291908181526020018280546117329061441b565b801561177f5780601f106117545761010080835404028352916020019161177f565b820191906000526020600020905b81548152906001019060200180831161176257829003601f168201915b505050505081565b600c5481565b611795611cf3565b73ffffffffffffffffffffffffffffffffffffffff166117b36115ad565b73ffffffffffffffffffffffffffffffffffffffff1614611809576040517f08c379a000000000000000000000000000000000000000000000000000000000815260040161180090613fb3565b60405180910390fd5b81816009919061181a929190613051565b505050565b61183161182a611cf3565b8383612733565b5050565b600b5481565b61184c611846611cf3565b83612108565b61188b576040517f08c379a000000000000000000000000000000000000000000000000000000000815260040161188290614033565b60405180910390fd5b611897848484846128a0565b50505050565b60606118a882611c87565b6118e7576040517f08c379a00000000000000000000000000000000000000000000000000000000081526004016118de90613f53565b60405180910390fd5b60006118f16128fc565b905060008151116119115760405180602001604052806000815250611973565b8061191b8461298e565b6040518060400160405280600581526020017f2e6a736f6e00000000000000000000000000000000000000000000000000000081525060405160200161196393929190613bba565b6040516020818303038152906040525b915050919050565b60165481565b6060604051806060016040528060368152602001614bd060369139905090565b6000600560008473ffffffffffffffffffffffffffffffffffffffff1673ffffffffffffffffffffffffffffffffffffffff16815260200190815260200160002060008373ffffffffffffffffffffffffffffffffffffffff1673ffffffffffffffffffffffffffffffffffffffff16815260200190815260200160002060009054906101000a900460ff16905092915050565b6060600f805480602002602001604051908101604052809291908181526020018280548015611ab957602002820191906000526020600020905b8160009054906101000a900473ffffffffffffffffffffffffffffffffffffffff1673ffffffffffffffffffffffffffffffffffffffff1681526020019060010190808311611a6f575b5050505050905090565b611acb611cf3565b73ffffffffffffffffffffffffffffffffffffffff16611ae96115ad565b73ffffffffffffffffffffffffffffffffffffffff1614611b3f576040517f08c379a0000000000000000000000000000000000000000000000000000000008152600401611b3690613fb3565b60405180910390fd5b600073ffffffffffffffffffffffffffffffffffffffff168173ffffffffffffffffffffffffffffffffffffffff161415611baf576040517f08c379a0000000000000000000000000000000000000000000000000000000008152600401611ba690613e13565b60405180910390fd5b611bb88161244d565b50565b60158181548110611bcb57600080fd5b906000526020600020016000915090505481565b6000600e60009054906101000a900461ffff16905090565b600860009054906101000a900473ffffffffffffffffffffffffffffffffffffffff1681565b60007f01ffc9a7000000000000000000000000000000000000000000000000000000007bffffffffffffffffffffffffffffffffffffffffffffffffffffffff1916827bffffffffffffffffffffffffffffffffffffffffffffffffffffffff1916149050919050565b60008073ffffffffffffffffffffffffffffffffffffffff166002600084815260200190815260200160002060009054906101000a900473ffffffffffffffffffffffffffffffffffffffff1673ffffffffffffffffffffffffffffffffffffffff1614159050919050565b600033905090565b816004600083815260200190815260200160002060006101000a81548173ffffffffffffffffffffffffffffffffffffffff021916908373ffffffffffffffffffffffffffffffffffffffff160217905550808273ffffffffffffffffffffffffffffffffffffffff16611d6e836111da565b73ffffffffffffffffffffffffffffffffffffffff167f8c5be1e5ebec7d5bd14f71427d1e84f3dd0314c0f7b2291e5b200ac8c7c3b92560405160405180910390a45050565b601160089054906101000a900473ffffffffffffffffffffffffffffffffffffffff1673ffffffffffffffffffffffffffffffffffffffff16635d3b1d30601354601160009054906101000a900467ffffffffffffffff16601460049054906101000a900461ffff16601460009054906101000a900463ffffffff16601460069054906101000a900463ffffffff166040518663ffffffff1660e01b8152600401611e63959493929190613d63565b602060405180830381600087803b158015611e7d57600080fd5b505af1158015611e91573d6000803e3d6000fd5b505050506040513d601f19601f82011682018060405250810190611eb5919061362a565b6016819055506017819080600181540180825580915050600190039060005260206000200160009091909190916101000a81548173ffffffffffffffffffffffffffffffffffffffff021916908373ffffffffffffffffffffffffffffffffffffffff16021790555050565b611f2a81612b3b565b6000600660008381526020019081526020016000208054611f4a9061441b565b905014611f7157600660008281526020019081526020016000206000611f7091906130d7565b5b50565b600060178054905011611fbc576040517f08c379a0000000000000000000000000000000000000000000000000000000008152600401611fb390613ff3565b60405180910390fd5b8060159080519060200190611fd2929190613117565b5061209760176001601780549050611fea91906142bf565b81548110612021577f4e487b7100000000000000000000000000000000000000000000000000000000600052603260045260246000fd5b9060005260206000200160009054906101000a900473ffffffffffffffffffffffffffffffffffffffff166015600081548110612087577f4e487b7100000000000000000000000000000000000000000000000000000000600052603260045260246000fd5b9060005260206000200154612513565b60178054806120cf577f4e487b7100000000000000000000000000000000000000000000000000000000600052603160045260246000fd5b6001900381819060005260206000200160006101000a81549073ffffffffffffffffffffffffffffffffffffffff021916905590555050565b600061211382611c87565b612152576040517f08c379a000000000000000000000000000000000000000000000000000000000815260040161214990613ed3565b60405180910390fd5b600061215d836111da565b90508073ffffffffffffffffffffffffffffffffffffffff168473ffffffffffffffffffffffffffffffffffffffff1614806121cc57508373ffffffffffffffffffffffffffffffffffffffff166121b484610897565b73ffffffffffffffffffffffffffffffffffffffff16145b806121dd57506121dc81856119a1565b5b91505092915050565b8273ffffffffffffffffffffffffffffffffffffffff16612206826111da565b73ffffffffffffffffffffffffffffffffffffffff161461225c576040517f08c379a000000000000000000000000000000000000000000000000000000000815260040161225390613e33565b60405180910390fd5b600073ffffffffffffffffffffffffffffffffffffffff168273ffffffffffffffffffffffffffffffffffffffff1614156122cc576040517f08c379a00000000000000000000000000000000000000000000000000000000081526004016122c390613e93565b60405180910390fd5b6122d7838383612c58565b6122e2600082611cfb565b6001600360008573ffffffffffffffffffffffffffffffffffffffff1673ffffffffffffffffffffffffffffffffffffffff168152602001908152602001600020600082825461233291906142bf565b925050819055506001600360008473ffffffffffffffffffffffffffffffffffffffff1673ffffffffffffffffffffffffffffffffffffffff16815260200190815260200160002060008282546123899190614238565b92505081905550816002600083815260200190815260200160002060006101000a81548173ffffffffffffffffffffffffffffffffffffffff021916908373ffffffffffffffffffffffffffffffffffffffff160217905550808273ffffffffffffffffffffffffffffffffffffffff168473ffffffffffffffffffffffffffffffffffffffff167fddf252ad1be2c89b69c2b068fc378daa952ba7f163c4a11628f55a4df523b3ef60405160405180910390a4612448838383612c5d565b505050565b6000600760009054906101000a900473ffffffffffffffffffffffffffffffffffffffff16905081600760006101000a81548173ffffffffffffffffffffffffffffffffffffffff021916908373ffffffffffffffffffffffffffffffffffffffff1602179055508173ffffffffffffffffffffffffffffffffffffffff168173ffffffffffffffffffffffffffffffffffffffff167f8be0079c531659141344cd1fd0a4f28419497f9722a3daafe3b4186f6b6457e060405160405180910390a35050565b6000600d805490508261252691906144c7565b90506000600d8281548110612564577f4e487b7100000000000000000000000000000000000000000000000000000000600052603260045260246000fd5b90600052602060002090601091828204019190066002029054906101000a900461ffff1661ffff169050600d6001600d805490506125a291906142bf565b815481106125d9577f4e487b7100000000000000000000000000000000000000000000000000000000600052603260045260246000fd5b90600052602060002090601091828204019190066002029054906101000a900461ffff16600d8381548110612637577f4e487b7100000000000000000000000000000000000000000000000000000000600052603260045260246000fd5b90600052602060002090601091828204019190066002026101000a81548161ffff021916908361ffff160217905550600d80548061269e577f4e487b7100000000000000000000000000000000000000000000000000000000600052603160045260246000fd5b60019003818190600052602060002090601091828204019190066002026101000a81549061ffff021916905590556126d68482612715565b7f76020ece75bf679c701e656fcffc7e3df8354859b3b0eb7fee42b1378023bb318482604051612707929190613cdb565b60405180910390a150505050565b61272f828260405180602001604052806000815250612c62565b5050565b8173ffffffffffffffffffffffffffffffffffffffff168373ffffffffffffffffffffffffffffffffffffffff1614156127a2576040517f08c379a000000000000000000000000000000000000000000000000000000000815260040161279990613eb3565b60405180910390fd5b80600560008573ffffffffffffffffffffffffffffffffffffffff1673ffffffffffffffffffffffffffffffffffffffff16815260200190815260200160002060008473ffffffffffffffffffffffffffffffffffffffff1673ffffffffffffffffffffffffffffffffffffffff16815260200190815260200160002060006101000a81548160ff0219169083151502179055508173ffffffffffffffffffffffffffffffffffffffff168373ffffffffffffffffffffffffffffffffffffffff167f17307eab39ab6107e8899845ad3d59bd9653f200f220920489ca2b5937696c31836040516128939190613d48565b60405180910390a3505050565b6128ab8484846121e6565b6128b784848484612cbd565b6128f6576040517f08c379a00000000000000000000000000000000000000000000000000000000081526004016128ed90613df3565b60405180910390fd5b50505050565b60606009805461290b9061441b565b80601f01602080910402602001604051908101604052809291908181526020018280546129379061441b565b80156129845780601f1061295957610100808354040283529160200191612984565b820191906000526020600020905b81548152906001019060200180831161296757829003601f168201915b5050505050905090565b606060008214156129d6576040518060400160405280600181526020017f30000000000000000000000000000000000000000000000000000000000000008152509050612b36565b600082905060005b60008214612a085780806129f19061447e565b915050600a82612a01919061428e565b91506129de565b60008167ffffffffffffffff811115612a4a577f4e487b7100000000000000000000000000000000000000000000000000000000600052604160045260246000fd5b6040519080825280601f01601f191660200182016040528015612a7c5781602001600182028036833780820191505090505b5090505b60008514612b2f57600182612a9591906142bf565b9150600a85612aa491906144c7565b6030612ab09190614238565b60f81b818381518110612aec577f4e487b7100000000000000000000000000000000000000000000000000000000600052603260045260246000fd5b60200101907effffffffffffffffffffffffffffffffffffffffffffffffffffffffffffff1916908160001a905350600a85612b28919061428e565b9450612a80565b8093505050505b919050565b6000612b46826111da565b9050612b5481600084612c58565b612b5f600083611cfb565b6001600360008373ffffffffffffffffffffffffffffffffffffffff1673ffffffffffffffffffffffffffffffffffffffff1681526020019081526020016000206000828254612baf91906142bf565b925050819055506002600083815260200190815260200160002060006101000a81549073ffffffffffffffffffffffffffffffffffffffff021916905581600073ffffffffffffffffffffffffffffffffffffffff168273ffffffffffffffffffffffffffffffffffffffff167fddf252ad1be2c89b69c2b068fc378daa952ba7f163c4a11628f55a4df523b3ef60405160405180910390a4612c5481600084612c5d565b5050565b505050565b505050565b612c6c8383612e54565b612c796000848484612cbd565b612cb8576040517f08c379a0000000000000000000000000000000000000000000000000000000008152600401612caf90613df3565b60405180910390fd5b505050565b6000612cde8473ffffffffffffffffffffffffffffffffffffffff1661302e565b15612e47578373ffffffffffffffffffffffffffffffffffffffff1663150b7a02612d07611cf3565b8786866040518563ffffffff1660e01b8152600401612d299493929190613c66565b602060405180830381600087803b158015612d4357600080fd5b505af1925050508015612d7457506040513d601f19601f82011682018060405250810190612d71919061356a565b60015b612df7573d8060008114612da4576040519150601f19603f3d011682016040523d82523d6000602084013e612da9565b606091505b50600081511415612def576040517f08c379a0000000000000000000000000000000000000000000000000000000008152600401612de690613df3565b60405180910390fd5b805181602001fd5b63150b7a0260e01b7bffffffffffffffffffffffffffffffffffffffffffffffffffffffff1916817bffffffffffffffffffffffffffffffffffffffffffffffffffffffff191614915050612e4c565b600190505b949350505050565b600073ffffffffffffffffffffffffffffffffffffffff168273ffffffffffffffffffffffffffffffffffffffff161415612ec4576040517f08c379a0000000000000000000000000000000000000000000000000000000008152600401612ebb90613f73565b60405180910390fd5b612ecd81611c87565b15612f0d576040517f08c379a0000000000000000000000000000000000000000000000000000000008152600401612f0490613e53565b60405180910390fd5b612f1960008383612c58565b6001600360008473ffffffffffffffffffffffffffffffffffffffff1673ffffffffffffffffffffffffffffffffffffffff1681526020019081526020016000206000828254612f699190614238565b92505081905550816002600083815260200190815260200160002060006101000a81548173ffffffffffffffffffffffffffffffffffffffff021916908373ffffffffffffffffffffffffffffffffffffffff160217905550808273ffffffffffffffffffffffffffffffffffffffff16600073ffffffffffffffffffffffffffffffffffffffff167fddf252ad1be2c89b69c2b068fc378daa952ba7f163c4a11628f55a4df523b3ef60405160405180910390a461302a60008383612c5d565b5050565b6000808273ffffffffffffffffffffffffffffffffffffffff163b119050919050565b82805461305d9061441b565b90600052602060002090601f01602090048101928261307f57600085556130c6565b82601f1061309857803560ff19168380011785556130c6565b828001600101855582156130c6579182015b828111156130c55782358255916020019190600101906130aa565b5b5090506130d39190613164565b5090565b5080546130e39061441b565b6000825580601f106130f55750613114565b601f0160209004906000526020600020908101906131139190613164565b5b50565b828054828255906000526020600020908101928215613153579160200282015b82811115613152578251825591602001919060010190613137565b5b5090506131609190613164565b5090565b5b8082111561317d576000816000905550600101613165565b5090565b600061319461318f846140ee565b6140c9565b905080838252602082019050828560208602820111156131b357600080fd5b60005b858110156131e357816131c98882613347565b8452602084019350602083019250506001810190506131b6565b5050509392505050565b60006132006131fb8461411a565b6140c9565b90508281526020810184848401111561321857600080fd5b6132238482856143d9565b509392505050565b60008135905061323a81614b5c565b92915050565b600082601f83011261325157600080fd5b8135613261848260208601613181565b91505092915050565b60008135905061327981614b73565b92915050565b60008151905061328e81614b73565b92915050565b6000813590506132a381614b8a565b92915050565b6000815190506132b881614b8a565b92915050565b600082601f8301126132cf57600080fd5b81356132df8482602086016131ed565b91505092915050565b60008083601f8401126132fa57600080fd5b8235905067ffffffffffffffff81111561331357600080fd5b60208301915083600182028301111561332b57600080fd5b9250929050565b60008135905061334181614ba1565b92915050565b60008135905061335681614bb8565b92915050565b60008151905061336b81614bb8565b92915050565b60006020828403121561338357600080fd5b60006133918482850161322b565b91505092915050565b600080604083850312156133ad57600080fd5b60006133bb8582860161322b565b92505060206133cc8582860161322b565b9150509250929050565b6000806000606084860312156133eb57600080fd5b60006133f98682870161322b565b935050602061340a8682870161322b565b925050604061341b86828701613347565b9150509250925092565b6000806000806080858703121561343b57600080fd5b60006134498782880161322b565b945050602061345a8782880161322b565b935050604061346b87828801613347565b925050606085013567ffffffffffffffff81111561348857600080fd5b613494878288016132be565b91505092959194509250565b600080604083850312156134b357600080fd5b60006134c18582860161322b565b92505060206134d28582860161326a565b9150509250929050565b600080604083850312156134ef57600080fd5b60006134fd8582860161322b565b925050602061350e85828601613347565b9150509250929050565b60006020828403121561352a57600080fd5b60006135388482850161327f565b91505092915050565b60006020828403121561355357600080fd5b600061356184828501613294565b91505092915050565b60006020828403121561357c57600080fd5b600061358a848285016132a9565b91505092915050565b600080602083850312156135a657600080fd5b600083013567ffffffffffffffff8111156135c057600080fd5b6135cc858286016132e8565b92509250509250929050565b6000602082840312156135ea57600080fd5b60006135f884828501613332565b91505092915050565b60006020828403121561361357600080fd5b600061362184828501613347565b91505092915050565b60006020828403121561363c57600080fd5b600061364a8482850161335c565b91505092915050565b6000806040838503121561366657600080fd5b600061367485828601613347565b925050602083013567ffffffffffffffff81111561369157600080fd5b61369d85828601613240565b9150509250929050565b60006136b383836136d7565b60208301905092915050565b60006136cb8383613b60565b60208301905092915050565b6136e0816142f3565b82525050565b6136ef816142f3565b82525050565b60006137008261416b565b61370a81856141b1565b93506137158361414b565b8060005b8381101561374657815161372d88826136a7565b975061373883614197565b925050600181019050613719565b5085935050505092915050565b600061375e82614176565b61376881856141c2565b93506137738361415b565b8060005b838110156137a457815161378b88826136bf565b9750613796836141a4565b925050600181019050613777565b5085935050505092915050565b6137ba81614305565b82525050565b6137c981614311565b82525050565b60006137da82614181565b6137e481856141d3565b93506137f48185602086016143e8565b6137fd816145b4565b840191505092915050565b613811816143a3565b82525050565b60006138228261418c565b61382c81856141e4565b935061383c8185602086016143e8565b613845816145b4565b840191505092915050565b600061385b8261418c565b61386581856141f5565b93506138758185602086016143e8565b80840191505092915050565b600061388e6032836141e4565b9150613899826145c5565b604082019050919050565b60006138b16026836141e4565b91506138bc82614614565b604082019050919050565b60006138d46025836141e4565b91506138df82614663565b604082019050919050565b60006138f7601c836141e4565b9150613902826146b2565b602082019050919050565b600061391a6031836141e4565b9150613925826146db565b604082019050919050565b600061393d6024836141e4565b91506139488261472a565b604082019050919050565b60006139606019836141e4565b915061396b82614779565b602082019050919050565b6000613983602c836141e4565b915061398e826147a2565b604082019050919050565b60006139a66038836141e4565b91506139b1826147f1565b604082019050919050565b60006139c9602a836141e4565b91506139d482614840565b604082019050919050565b60006139ec6029836141e4565b91506139f78261488f565b604082019050919050565b6000613a0f6030836141e4565b9150613a1a826148de565b604082019050919050565b6000613a326020836141e4565b9150613a3d8261492d565b602082019050919050565b6000613a55602c836141e4565b9150613a6082614956565b604082019050919050565b6000613a786020836141e4565b9150613a83826149a5565b602082019050919050565b6000613a9b6022836141e4565b9150613aa6826149ce565b604082019050919050565b6000613abe6012836141e4565b9150613ac982614a1d565b602082019050919050565b6000613ae16021836141e4565b9150613aec82614a46565b604082019050919050565b6000613b046031836141e4565b9150613b0f82614a95565b604082019050919050565b6000613b276023836141e4565b9150613b3282614ae4565b604082019050919050565b6000613b4a6019836141e4565b9150613b5582614b33565b602082019050919050565b613b6981614347565b82525050565b613b7881614347565b82525050565b613b87816143c7565b82525050565b613b9681614375565b82525050565b613ba58161437f565b82525050565b613bb48161438f565b82525050565b6000613bc68286613850565b9150613bd28285613850565b9150613bde8284613850565b9150819050949350505050565b6000602082019050613c0060008301846136e6565b92915050565b6000604082019050613c1b60008301856136e6565b613c2860208301846136e6565b9392505050565b6000606082019050613c4460008301866136e6565b613c5160208301856136e6565b613c5e6040830184613b8d565b949350505050565b6000608082019050613c7b60008301876136e6565b613c8860208301866136e6565b613c956040830185613b8d565b8181036060830152613ca781846137cf565b905095945050505050565b6000604082019050613cc760008301856136e6565b613cd46020830184613b7e565b9392505050565b6000604082019050613cf060008301856136e6565b613cfd6020830184613b8d565b9392505050565b60006020820190508181036000830152613d1e81846136f5565b905092915050565b60006020820190508181036000830152613d408184613753565b905092915050565b6000602082019050613d5d60008301846137b1565b92915050565b600060a082019050613d7860008301886137c0565b613d856020830187613bab565b613d926040830186613b6f565b613d9f6060830185613b9c565b613dac6080830184613b9c565b9695505050505050565b6000602082019050613dcb6000830184613808565b92915050565b60006020820190508181036000830152613deb8184613817565b905092915050565b60006020820190508181036000830152613e0c81613881565b9050919050565b60006020820190508181036000830152613e2c816138a4565b9050919050565b60006020820190508181036000830152613e4c816138c7565b9050919050565b60006020820190508181036000830152613e6c816138ea565b9050919050565b60006020820190508181036000830152613e8c8161390d565b9050919050565b60006020820190508181036000830152613eac81613930565b9050919050565b60006020820190508181036000830152613ecc81613953565b9050919050565b60006020820190508181036000830152613eec81613976565b9050919050565b60006020820190508181036000830152613f0c81613999565b9050919050565b60006020820190508181036000830152613f2c816139bc565b9050919050565b60006020820190508181036000830152613f4c816139df565b9050919050565b60006020820190508181036000830152613f6c81613a02565b9050919050565b60006020820190508181036000830152613f8c81613a25565b9050919050565b60006020820190508181036000830152613fac81613a48565b9050919050565b60006020820190508181036000830152613fcc81613a6b565b9050919050565b60006020820190508181036000830152613fec81613a8e565b9050919050565b6000602082019050818103600083015261400c81613ab1565b9050919050565b6000602082019050818103600083015261402c81613ad4565b9050919050565b6000602082019050818103600083015261404c81613af7565b9050919050565b6000602082019050818103600083015261406c81613b1a565b9050919050565b6000602082019050818103600083015261408c81613b3d565b9050919050565b60006020820190506140a86000830184613b6f565b92915050565b60006020820190506140c36000830184613b8d565b92915050565b60006140d36140e4565b90506140df828261444d565b919050565b6000604051905090565b600067ffffffffffffffff82111561410957614108614585565b5b602082029050602081019050919050565b600067ffffffffffffffff82111561413557614134614585565b5b61413e826145b4565b9050602081019050919050565b6000819050602082019050919050565b6000819050602082019050919050565b600081519050919050565b600081519050919050565b600081519050919050565b600081519050919050565b6000602082019050919050565b6000602082019050919050565b600082825260208201905092915050565b600082825260208201905092915050565b600082825260208201905092915050565b600082825260208201905092915050565b600081905092915050565b600061420b82614347565b915061421683614347565b92508261ffff0382111561422d5761422c6144f8565b5b828201905092915050565b600061424382614375565b915061424e83614375565b9250827fffffffffffffffffffffffffffffffffffffffffffffffffffffffffffffffff03821115614283576142826144f8565b5b828201905092915050565b600061429982614375565b91506142a483614375565b9250826142b4576142b3614527565b5b828204905092915050565b60006142ca82614375565b91506142d583614375565b9250828210156142e8576142e76144f8565b5b828203905092915050565b60006142fe82614355565b9050919050565b60008115159050919050565b6000819050919050565b60007fffffffff0000000000000000000000000000000000000000000000000000000082169050919050565b600061ffff82169050919050565b600073ffffffffffffffffffffffffffffffffffffffff82169050919050565b6000819050919050565b600063ffffffff82169050919050565b600067ffffffffffffffff82169050919050565b60006143ae826143b5565b9050919050565b60006143c082614355565b9050919050565b60006143d282614347565b9050919050565b82818337600083830152505050565b60005b838110156144065780820151818401526020810190506143eb565b83811115614415576000848401525b50505050565b6000600282049050600182168061443357607f821691505b6020821081141561444757614446614556565b5b50919050565b614456826145b4565b810181811067ffffffffffffffff8211171561447557614474614585565b5b80604052505050565b600061448982614375565b91507fffffffffffffffffffffffffffffffffffffffffffffffffffffffffffffffff8214156144bc576144bb6144f8565b5b600182019050919050565b60006144d282614375565b91506144dd83614375565b9250826144ed576144ec614527565b5b828206905092915050565b7f4e487b7100000000000000000000000000000000000000000000000000000000600052601160045260246000fd5b7f4e487b7100000000000000000000000000000000000000000000000000000000600052601260045260246000fd5b7f4e487b7100000000000000000000000000000000000000000000000000000000600052602260045260246000fd5b7f4e487b7100000000000000000000000000000000000000000000000000000000600052604160045260246000fd5b6000601f19601f8301169050919050565b7f4552433732313a207472616e7366657220746f206e6f6e20455243373231526560008201527f63656976657220696d706c656d656e7465720000000000000000000000000000602082015250565b7f4f776e61626c653a206e6577206f776e657220697320746865207a65726f206160008201527f6464726573730000000000000000000000000000000000000000000000000000602082015250565b7f4552433732313a207472616e736665722066726f6d20696e636f72726563742060008201527f6f776e6572000000000000000000000000000000000000000000000000000000602082015250565b7f4552433732313a20746f6b656e20616c7265616479206d696e74656400000000600082015250565b7f43616e6e6f7420696e697469616c697a65206d6f726520746f6b656e7320746860008201527f616e20746865206d61785f737570706c79000000000000000000000000000000602082015250565b7f4552433732313a207472616e7366657220746f20746865207a65726f2061646460008201527f7265737300000000000000000000000000000000000000000000000000000000602082015250565b7f4552433732313a20617070726f766520746f2063616c6c657200000000000000600082015250565b7f4552433732313a206f70657261746f7220717565727920666f72206e6f6e657860008201527f697374656e7420746f6b656e0000000000000000000000000000000000000000602082015250565b7f4552433732313a20617070726f76652063616c6c6572206973206e6f74206f7760008201527f6e6572206e6f7220617070726f76656420666f7220616c6c0000000000000000602082015250565b7f4552433732313a2062616c616e636520717565727920666f7220746865207a6560008201527f726f206164647265737300000000000000000000000000000000000000000000602082015250565b7f4552433732313a206f776e657220717565727920666f72206e6f6e657869737460008201527f656e7420746f6b656e0000000000000000000000000000000000000000000000602082015250565b7f4552433732314d657461646174613a2055524920717565727920666f72206e6f60008201527f6e6578697374656e7420746f6b656e2000000000000000000000000000000000602082015250565b7f4552433732313a206d696e7420746f20746865207a65726f2061646472657373600082015250565b7f4552433732313a20617070726f76656420717565727920666f72206e6f6e657860008201527f697374656e7420746f6b656e0000000000000000000000000000000000000000602082015250565b7f4f776e61626c653a2063616c6c6572206973206e6f7420746865206f776e6572600082015250565b7f456163682061646472657373206d6179206f6e6c79206d696e742078204e465460008201527f7321000000000000000000000000000000000000000000000000000000000000602082015250565b7f4e6f206d696e74657220696e2071756575650000000000000000000000000000600082015250565b7f4552433732313a20617070726f76616c20746f2063757272656e74206f776e6560008201527f7200000000000000000000000000000000000000000000000000000000000000602082015250565b7f4552433732313a207472616e736665722063616c6c6572206973206e6f74206f60008201527f776e6572206e6f7220617070726f766564000000000000000000000000000000602082015250565b7f596f7520617265206e6f7420746865206f776e6572206f66207468697320746f60008201527f6b656e0000000000000000000000000000000000000000000000000000000000602082015250565b7f4e6f206d6f726520746f6b656e7320617661696c61626c652100000000000000600082015250565b614b65816142f3565b8114614b7057600080fd5b50565b614b7c81614305565b8114614b8757600080fd5b50565b614b938161431b565b8114614b9e57600080fd5b50565b614baa81614347565b8114614bb557600080fd5b50565b614bc181614375565b8114614bcc57600080fd5b5056fe697066733a2f2f516d615965624b337a4566487066416d7652447648423562374d6d675259536563425936397059665063617432322fa26469706673582212204f9a9d0fe5210cbe50b1a32b832cfbe71634d91ddc92d96940adc3269827055064736f6c63430008040033697066733a2f2f516d4e506939336f796e776f69374e6d486d573741425467704d666151746d784b4a6f786d7058734a484e67474b2f",
  "linkReferences": {},
  "deployedLinkReferences": {}
}