{
  "_format": "hh-sol-artifact-1",
  "contractName": "NFT",
  "sourceName": "src/backend/contracts/NFT.sol",
  "abi": [
    {
      "inputs": [
        {
          "internalType": "address",
          "name": "_teamWallet",
          "type": "address"
        },
        {
          "internalType": "address[]",
          "name": "_usersToWhitelist",
          "type": "address[]"
        }
      ],
      "stateMutability": "nonpayable",
      "type": "constructor"
    },
    {
      "anonymous": false,
      "inputs": [
        {
          "indexed": true,
          "internalType": "address",
          "name": "owner",
          "type": "address"
        },
        {
          "indexed": true,
          "internalType": "address",
          "name": "approved",
          "type": "address"
        },
        {
          "indexed": true,
          "internalType": "uint256",
          "name": "tokenId",
          "type": "uint256"
        }
      ],
      "name": "Approval",
      "type": "event"
    },
    {
      "anonymous": false,
      "inputs": [
        {
          "indexed": true,
          "internalType": "address",
          "name": "owner",
          "type": "address"
        },
        {
          "indexed": true,
          "internalType": "address",
          "name": "operator",
          "type": "address"
        },
        {
          "indexed": false,
          "internalType": "bool",
          "name": "approved",
          "type": "bool"
        }
      ],
      "name": "ApprovalForAll",
      "type": "event"
    },
    {
      "anonymous": false,
      "inputs": [
        {
          "indexed": false,
          "internalType": "address",
          "name": "user",
          "type": "address"
        }
      ],
      "name": "MintSuccessful",
      "type": "event"
    },
    {
      "anonymous": false,
      "inputs": [
        {
          "indexed": true,
          "internalType": "address",
          "name": "previousOwner",
          "type": "address"
        },
        {
          "indexed": true,
          "internalType": "address",
          "name": "newOwner",
          "type": "address"
        }
      ],
      "name": "OwnershipTransferred",
      "type": "event"
    },
    {
      "anonymous": false,
      "inputs": [
        {
          "indexed": true,
          "internalType": "address",
          "name": "from",
          "type": "address"
        },
        {
          "indexed": true,
          "internalType": "address",
          "name": "to",
          "type": "address"
        },
        {
          "indexed": true,
          "internalType": "uint256",
          "name": "tokenId",
          "type": "uint256"
        }
      ],
      "name": "Transfer",
      "type": "event"
    },
    {
      "inputs": [],
      "name": "amountMintPerAccount",
      "outputs": [
        {
          "internalType": "uint256",
          "name": "",
          "type": "uint256"
        }
      ],
      "stateMutability": "view",
      "type": "function"
    },
    {
      "inputs": [
        {
          "internalType": "address",
          "name": "to",
          "type": "address"
        },
        {
          "internalType": "uint256",
          "name": "tokenId",
          "type": "uint256"
        }
      ],
      "name": "approve",
      "outputs": [],
      "stateMutability": "nonpayable",
      "type": "function"
    },
    {
      "inputs": [
        {
          "internalType": "address",
          "name": "owner",
          "type": "address"
        }
      ],
      "name": "balanceOf",
      "outputs": [
        {
          "internalType": "uint256",
          "name": "",
          "type": "uint256"
        }
      ],
      "stateMutability": "view",
      "type": "function"
    },
    {
      "inputs": [],
      "name": "baseTokenURI",
      "outputs": [
        {
          "internalType": "string",
          "name": "",
          "type": "string"
        }
      ],
      "stateMutability": "pure",
      "type": "function"
    },
    {
      "inputs": [
        {
          "internalType": "uint256",
          "name": "tokenId",
          "type": "uint256"
        }
      ],
      "name": "burn",
      "outputs": [],
      "stateMutability": "nonpayable",
      "type": "function"
    },
    {
      "inputs": [],
      "name": "contractURI",
      "outputs": [
        {
          "internalType": "string",
          "name": "",
          "type": "string"
        }
      ],
      "stateMutability": "pure",
      "type": "function"
    },
    {
      "inputs": [],
      "name": "currentToken",
      "outputs": [
        {
          "internalType": "uint256",
          "name": "",
          "type": "uint256"
        }
      ],
      "stateMutability": "view",
      "type": "function"
    },
    {
      "inputs": [
        {
          "internalType": "uint256",
          "name": "tokenId",
          "type": "uint256"
        }
      ],
      "name": "getApproved",
      "outputs": [
        {
          "internalType": "address",
          "name": "",
          "type": "address"
        }
      ],
      "stateMutability": "view",
      "type": "function"
    },
    {
      "inputs": [
        {
          "internalType": "address",
          "name": "owner",
          "type": "address"
        },
        {
          "internalType": "address",
          "name": "operator",
          "type": "address"
        }
      ],
      "name": "isApprovedForAll",
      "outputs": [
        {
          "internalType": "bool",
          "name": "",
          "type": "bool"
        }
      ],
      "stateMutability": "view",
      "type": "function"
    },
    {
      "inputs": [
        {
          "internalType": "address",
          "name": "_user",
          "type": "address"
        }
      ],
      "name": "isWhitelisted",
      "outputs": [
        {
          "internalType": "bool",
          "name": "",
          "type": "bool"
        }
      ],
      "stateMutability": "view",
      "type": "function"
    },
    {
      "inputs": [],
      "name": "max_supply",
      "outputs": [
        {
          "internalType": "uint256",
          "name": "",
          "type": "uint256"
        }
      ],
      "stateMutability": "view",
      "type": "function"
    },
    {
      "inputs": [],
      "name": "mint",
      "outputs": [],
      "stateMutability": "nonpayable",
      "type": "function"
    },
    {
      "inputs": [],
      "name": "name",
      "outputs": [
        {
          "internalType": "string",
          "name": "",
          "type": "string"
        }
      ],
      "stateMutability": "view",
      "type": "function"
    },
    {
      "inputs": [],
      "name": "owner",
      "outputs": [
        {
          "internalType": "address",
          "name": "",
          "type": "address"
        }
      ],
      "stateMutability": "view",
      "type": "function"
    },
    {
      "inputs": [
        {
          "internalType": "uint256",
          "name": "tokenId",
          "type": "uint256"
        }
      ],
      "name": "ownerOf",
      "outputs": [
        {
          "internalType": "address",
          "name": "",
          "type": "address"
        }
      ],
      "stateMutability": "view",
      "type": "function"
    },
    {
      "inputs": [],
      "name": "publicSaleEnabled",
      "outputs": [
        {
          "internalType": "bool",
          "name": "",
          "type": "bool"
        }
      ],
      "stateMutability": "view",
      "type": "function"
    },
    {
      "inputs": [],
      "name": "renounceOwnership",
      "outputs": [],
      "stateMutability": "nonpayable",
      "type": "function"
    },
    {
      "inputs": [
        {
          "internalType": "address",
          "name": "from",
          "type": "address"
        },
        {
          "internalType": "address",
          "name": "to",
          "type": "address"
        },
        {
          "internalType": "uint256",
          "name": "tokenId",
          "type": "uint256"
        }
      ],
      "name": "safeTransferFrom",
      "outputs": [],
      "stateMutability": "nonpayable",
      "type": "function"
    },
    {
      "inputs": [
        {
          "internalType": "address",
          "name": "from",
          "type": "address"
        },
        {
          "internalType": "address",
          "name": "to",
          "type": "address"
        },
        {
          "internalType": "uint256",
          "name": "tokenId",
          "type": "uint256"
        },
        {
          "internalType": "bytes",
          "name": "_data",
          "type": "bytes"
        }
      ],
      "name": "safeTransferFrom",
      "outputs": [],
      "stateMutability": "nonpayable",
      "type": "function"
    },
    {
      "inputs": [
        {
          "internalType": "uint256",
          "name": "_amountMintPerAccount",
          "type": "uint256"
        }
      ],
      "name": "setAmountMintPerAccount",
      "outputs": [],
      "stateMutability": "nonpayable",
      "type": "function"
    },
    {
      "inputs": [
        {
          "internalType": "address",
          "name": "operator",
          "type": "address"
        },
        {
          "internalType": "bool",
          "name": "approved",
          "type": "bool"
        }
      ],
      "name": "setApprovalForAll",
      "outputs": [],
      "stateMutability": "nonpayable",
      "type": "function"
    },
    {
      "inputs": [
        {
          "internalType": "bool",
          "name": "_state",
          "type": "bool"
        }
      ],
      "name": "setPublicSaleEnabled",
      "outputs": [],
      "stateMutability": "nonpayable",
      "type": "function"
    },
    {
      "inputs": [
        {
          "internalType": "bytes4",
          "name": "interfaceId",
          "type": "bytes4"
        }
      ],
      "name": "supportsInterface",
      "outputs": [
        {
          "internalType": "bool",
          "name": "",
          "type": "bool"
        }
      ],
      "stateMutability": "view",
      "type": "function"
    },
    {
      "inputs": [],
      "name": "symbol",
      "outputs": [
        {
          "internalType": "string",
          "name": "",
          "type": "string"
        }
      ],
      "stateMutability": "view",
      "type": "function"
    },
    {
      "inputs": [
        {
          "internalType": "uint256",
          "name": "_tokenId",
          "type": "uint256"
        }
      ],
      "name": "tokenURI",
      "outputs": [
        {
          "internalType": "string",
          "name": "",
          "type": "string"
        }
      ],
      "stateMutability": "view",
      "type": "function"
    },
    {
      "inputs": [
        {
          "internalType": "address",
          "name": "from",
          "type": "address"
        },
        {
          "internalType": "address",
          "name": "to",
          "type": "address"
        },
        {
          "internalType": "uint256",
          "name": "tokenId",
          "type": "uint256"
        }
      ],
      "name": "transferFrom",
      "outputs": [],
      "stateMutability": "nonpayable",
      "type": "function"
    },
    {
      "inputs": [
        {
          "internalType": "address",
          "name": "newOwner",
          "type": "address"
        }
      ],
      "name": "transferOwnership",
      "outputs": [],
      "stateMutability": "nonpayable",
      "type": "function"
    },
    {
      "inputs": [],
      "name": "uriPrefix",
      "outputs": [
        {
          "internalType": "string",
          "name": "",
          "type": "string"
        }
      ],
      "stateMutability": "view",
      "type": "function"
    },
    {
      "inputs": [],
      "name": "uriSuffix",
      "outputs": [
        {
          "internalType": "string",
          "name": "",
          "type": "string"
        }
      ],
      "stateMutability": "view",
      "type": "function"
    },
    {
      "inputs": [
        {
          "internalType": "address[]",
          "name": "_users",
          "type": "address[]"
        }
      ],
      "name": "whitelistUsers",
      "outputs": [],
      "stateMutability": "nonpayable",
      "type": "function"
    },
    {
      "inputs": [],
      "name": "withdraw",
      "outputs": [],
      "stateMutability": "nonpayable",
      "type": "function"
    }
  ],
  "bytecode": "0x608060405260405180602001604052806000815250600790805190602001906200002b929190620003ca565b506040518060400160405280600581526020017f2e6a736f6e0000000000000000000000000000000000000000000000000000008152506008908051906020019062000079929190620003ca565b506113886009556001600a556000600b553480156200009757600080fd5b506040516200427e3803806200427e8339818101604052810190620000bd9190620005e5565b6040518060400160405280601481526020017f456c73652045786368616e6765205469636b65740000000000000000000000008152506040518060400160405280600581526020017f454c534554000000000000000000000000000000000000000000000000000000815250620001496200013d620001bf60201b60201c565b620001c760201b60201c565b816001908051906020019062000161929190620003ca565b5080600290805190602001906200017a929190620003ca565b505050600c60006200018d91906200045b565b80600c9080519060200190620001a59291906200047e565b50620001b7826200028b60201b60201c565b5050620008db565b600033905090565b60008060009054906101000a900473ffffffffffffffffffffffffffffffffffffffff169050816000806101000a81548173ffffffffffffffffffffffffffffffffffffffff021916908373ffffffffffffffffffffffffffffffffffffffff1602179055508173ffffffffffffffffffffffffffffffffffffffff168173ffffffffffffffffffffffffffffffffffffffff167f8be0079c531659141344cd1fd0a4f28419497f9722a3daafe3b4186f6b6457e060405160405180910390a35050565b6200029b620001bf60201b60201c565b73ffffffffffffffffffffffffffffffffffffffff16620002c1620003a160201b60201c565b73ffffffffffffffffffffffffffffffffffffffff16146200031a576040517f08c379a00000000000000000000000000000000000000000000000000000000081526004016200031190620006af565b60405180910390fd5b600073ffffffffffffffffffffffffffffffffffffffff168173ffffffffffffffffffffffffffffffffffffffff1614156200038d576040517f08c379a000000000000000000000000000000000000000000000000000000000815260040162000384906200068d565b60405180910390fd5b6200039e81620001c760201b60201c565b50565b60008060009054906101000a900473ffffffffffffffffffffffffffffffffffffffff16905090565b828054620003d8906200076e565b90600052602060002090601f016020900481019282620003fc576000855562000448565b82601f106200041757805160ff191683800117855562000448565b8280016001018555821562000448579182015b82811115620004475782518255916020019190600101906200042a565b5b5090506200045791906200050d565b5090565b50805460008255906000526020600020908101906200047b91906200050d565b50565b828054828255906000526020600020908101928215620004fa579160200282015b82811115620004f95782518260006101000a81548173ffffffffffffffffffffffffffffffffffffffff021916908373ffffffffffffffffffffffffffffffffffffffff160217905550916020019190600101906200049f565b5b5090506200050991906200050d565b5090565b5b80821115620005285760008160009055506001016200050e565b5090565b6000620005436200053d84620006fa565b620006d1565b905080838252602082019050828560208602820111156200056357600080fd5b60005b858110156200059757816200057c8882620005a1565b84526020840193506020830192505060018101905062000566565b5050509392505050565b600081519050620005b281620008c1565b92915050565b600082601f830112620005ca57600080fd5b8151620005dc8482602086016200052c565b91505092915050565b60008060408385031215620005f957600080fd5b60006200060985828601620005a1565b925050602083015167ffffffffffffffff8111156200062757600080fd5b6200063585828601620005b8565b9150509250929050565b60006200064e60268362000729565b91506200065b8262000849565b604082019050919050565b60006200067560208362000729565b9150620006828262000898565b602082019050919050565b60006020820190508181036000830152620006a8816200063f565b9050919050565b60006020820190508181036000830152620006ca8162000666565b9050919050565b6000620006dd620006f0565b9050620006eb8282620007a4565b919050565b6000604051905090565b600067ffffffffffffffff82111562000718576200071762000809565b5b602082029050602081019050919050565b600082825260208201905092915050565b600062000747826200074e565b9050919050565b600073ffffffffffffffffffffffffffffffffffffffff82169050919050565b600060028204905060018216806200078757607f821691505b602082108114156200079e576200079d620007da565b5b50919050565b620007af8262000838565b810181811067ffffffffffffffff82111715620007d157620007d062000809565b5b80604052505050565b7f4e487b7100000000000000000000000000000000000000000000000000000000600052602260045260246000fd5b7f4e487b7100000000000000000000000000000000000000000000000000000000600052604160045260246000fd5b6000601f19601f8301169050919050565b7f4f776e61626c653a206e6577206f776e657220697320746865207a65726f206160008201527f6464726573730000000000000000000000000000000000000000000000000000602082015250565b7f4f776e61626c653a2063616c6c6572206973206e6f7420746865206f776e6572600082015250565b620008cc816200073a565b8114620008d857600080fd5b50565b61399380620008eb6000396000f3fe608060405234801561001057600080fd5b50600436106101e55760003560e01c806370a082311161010f578063a827b5ff116100a2578063e8a3d48511610071578063e8a3d48514610534578063e985e9c514610552578063edec5f2714610582578063f2fde38b1461059e576101e5565b8063a827b5ff146104ac578063b88d4fde146104ca578063c87b56dd146104e6578063d547cfb714610516576101e5565b80638a333b50116100de5780638a333b50146104365780638da5cb5b1461045457806395d89b4114610472578063a22cb46514610490576101e5565b806370a08231146103c2578063715018a6146103f2578063836c081d146103fc5780638720fbef1461041a576101e5565b80632ab91bba1161018757806342966c681161015657806342966c681461033a5780635503a0e81461035657806362b99ad4146103745780636352211e14610392576101e5565b80632ab91bba146102c65780633af32abf146102e45780633ccfd60b1461031457806342842e0e1461031e576101e5565b8063095ea7b3116101c3578063095ea7b31461026857806311296660146102845780631249c58b146102a057806323b872dd146102aa576101e5565b806301ffc9a7146101ea57806306fdde031461021a578063081812fc14610238575b600080fd5b61020460048036038101906101ff919061278e565b6105ba565b6040516102119190612cac565b60405180910390f35b61022261069c565b60405161022f9190612cc7565b60405180910390f35b610252600480360381019061024d91906127e0565b61072e565b60405161025f9190612c45565b60405180910390f35b610282600480360381019061027d91906126e4565b6107b3565b005b61029e600480360381019061029991906127e0565b6108cb565b005b6102a8610951565b005b6102c460048036038101906102bf91906125de565b610aa1565b005b6102ce610b01565b6040516102db9190612cac565b60405180910390f35b6102fe60048036038101906102f99190612579565b610b14565b60405161030b9190612cac565b60405180910390f35b61031c610be4565b005b610338600480360381019061033391906125de565b610ca9565b005b610354600480360381019061034f91906127e0565b610cc9565b005b61035e610d25565b60405161036b9190612cc7565b60405180910390f35b61037c610db3565b6040516103899190612cc7565b60405180910390f35b6103ac60048036038101906103a791906127e0565b610e41565b6040516103b99190612c45565b60405180910390f35b6103dc60048036038101906103d79190612579565b610ef3565b6040516103e99190612f69565b60405180910390f35b6103fa610fab565b005b610404611033565b6040516104119190612f69565b60405180910390f35b610434600480360381019061042f9190612765565b611039565b005b61043e6110d2565b60405161044b9190612f69565b60405180910390f35b61045c6110d8565b6040516104699190612c45565b60405180910390f35b61047a611101565b6040516104879190612cc7565b60405180910390f35b6104aa60048036038101906104a591906126a8565b611193565b005b6104b46111a9565b6040516104c19190612f69565b60405180910390f35b6104e460048036038101906104df919061262d565b6111af565b005b61050060048036038101906104fb91906127e0565b611211565b60405161050d9190612cc7565b60405180910390f35b61051e6112bb565b60405161052b9190612cc7565b60405180910390f35b61053c6112ca565b6040516105499190612cc7565b60405180910390f35b61056c600480360381019061056791906125a2565b6112ea565b6040516105799190612cac565b60405180910390f35b61059c60048036038101906105979190612720565b61137e565b005b6105b860048036038101906105b39190612579565b61141e565b005b60007f80ac58cd000000000000000000000000000000000000000000000000000000007bffffffffffffffffffffffffffffffffffffffffffffffffffffffff1916827bffffffffffffffffffffffffffffffffffffffffffffffffffffffff1916148061068557507f5b5e139f000000000000000000000000000000000000000000000000000000007bffffffffffffffffffffffffffffffffffffffffffffffffffffffff1916827bffffffffffffffffffffffffffffffffffffffffffffffffffffffff1916145b80610695575061069482611516565b5b9050919050565b6060600180546106ab906131a3565b80601f01602080910402602001604051908101604052809291908181526020018280546106d7906131a3565b80156107245780601f106106f957610100808354040283529160200191610724565b820191906000526020600020905b81548152906001019060200180831161070757829003601f168201915b5050505050905090565b600061073982611580565b610778576040517f08c379a000000000000000000000000000000000000000000000000000000000815260040161076f90612e89565b60405180910390fd5b6005600083815260200190815260200160002060009054906101000a900473ffffffffffffffffffffffffffffffffffffffff169050919050565b60006107be82610e41565b90508073ffffffffffffffffffffffffffffffffffffffff168373ffffffffffffffffffffffffffffffffffffffff16141561082f576040517f08c379a000000000000000000000000000000000000000000000000000000000815260040161082690612f09565b60405180910390fd5b8073ffffffffffffffffffffffffffffffffffffffff1661084e6115ec565b73ffffffffffffffffffffffffffffffffffffffff16148061087d575061087c816108776115ec565b6112ea565b5b6108bc576040517f08c379a00000000000000000000000000000000000000000000000000000000081526004016108b390612de9565b60405180910390fd5b6108c683836115f4565b505050565b6108d36115ec565b73ffffffffffffffffffffffffffffffffffffffff166108f16110d8565b73ffffffffffffffffffffffffffffffffffffffff1614610947576040517f08c379a000000000000000000000000000000000000000000000000000000000815260040161093e90612ea9565b60405180910390fd5b80600a8190555050565b600a5461095d33610ef3565b1061099d576040517f08c379a000000000000000000000000000000000000000000000000000000000815260040161099490612ec9565b60405180910390fd5b600954600b54106109e3576040517f08c379a00000000000000000000000000000000000000000000000000000000081526004016109da90612d49565b60405180910390fd5b600d60009054906101000a900460ff1680610a035750610a0233610b14565b5b610a42576040517f08c379a0000000000000000000000000000000000000000000000000000000008152600401610a3990612e69565b60405180910390fd5b6001600b6000828254610a559190613032565b92505081905550610a6833600b546116ad565b7ff5535ccd9f40eb4bc73fac8710dbb2effbf3329da83f62b35d9aa88161bb85ca33604051610a979190612c45565b60405180910390a1565b610ab2610aac6115ec565b826116cb565b610af1576040517f08c379a0000000000000000000000000000000000000000000000000000000008152600401610ae890612f29565b60405180910390fd5b610afc8383836117a9565b505050565b600d60009054906101000a900460ff1681565b600080600c80549050905060005b81811015610bd8578373ffffffffffffffffffffffffffffffffffffffff16600c8281548110610b7b577f4e487b7100000000000000000000000000000000000000000000000000000000600052603260045260246000fd5b9060005260206000200160009054906101000a900473ffffffffffffffffffffffffffffffffffffffff1673ffffffffffffffffffffffffffffffffffffffff161415610bcd57600192505050610bdf565b806001019050610b22565b5060009150505b919050565b610bec6115ec565b73ffffffffffffffffffffffffffffffffffffffff16610c0a6110d8565b73ffffffffffffffffffffffffffffffffffffffff1614610c60576040517f08c379a0000000000000000000000000000000000000000000000000000000008152600401610c5790612ea9565b60405180910390fd5b3373ffffffffffffffffffffffffffffffffffffffff166108fc479081150290604051600060405180830381858888f19350505050158015610ca6573d6000803e3d6000fd5b50565b610cc4838383604051806020016040528060008152506111af565b505050565b610cda610cd46115ec565b826116cb565b610d19576040517f08c379a0000000000000000000000000000000000000000000000000000000008152600401610d1090612f49565b60405180910390fd5b610d2281611a10565b50565b60088054610d32906131a3565b80601f0160208091040260200160405190810160405280929190818152602001828054610d5e906131a3565b8015610dab5780601f10610d8057610100808354040283529160200191610dab565b820191906000526020600020905b815481529060010190602001808311610d8e57829003601f168201915b505050505081565b60078054610dc0906131a3565b80601f0160208091040260200160405190810160405280929190818152602001828054610dec906131a3565b8015610e395780601f10610e0e57610100808354040283529160200191610e39565b820191906000526020600020905b815481529060010190602001808311610e1c57829003601f168201915b505050505081565b6000806003600084815260200190815260200160002060009054906101000a900473ffffffffffffffffffffffffffffffffffffffff169050600073ffffffffffffffffffffffffffffffffffffffff168173ffffffffffffffffffffffffffffffffffffffff161415610eea576040517f08c379a0000000000000000000000000000000000000000000000000000000008152600401610ee190612e29565b60405180910390fd5b80915050919050565b60008073ffffffffffffffffffffffffffffffffffffffff168273ffffffffffffffffffffffffffffffffffffffff161415610f64576040517f08c379a0000000000000000000000000000000000000000000000000000000008152600401610f5b90612e09565b60405180910390fd5b600460008373ffffffffffffffffffffffffffffffffffffffff1673ffffffffffffffffffffffffffffffffffffffff168152602001908152602001600020549050919050565b610fb36115ec565b73ffffffffffffffffffffffffffffffffffffffff16610fd16110d8565b73ffffffffffffffffffffffffffffffffffffffff1614611027576040517f08c379a000000000000000000000000000000000000000000000000000000000815260040161101e90612ea9565b60405180910390fd5b6110316000611b2d565b565b600b5481565b6110416115ec565b73ffffffffffffffffffffffffffffffffffffffff1661105f6110d8565b73ffffffffffffffffffffffffffffffffffffffff16146110b5576040517f08c379a00000000000000000000000000000000000000000000000000000000081526004016110ac90612ea9565b60405180910390fd5b80600d60006101000a81548160ff02191690831515021790555050565b60095481565b60008060009054906101000a900473ffffffffffffffffffffffffffffffffffffffff16905090565b606060028054611110906131a3565b80601f016020809104026020016040519081016040528092919081815260200182805461113c906131a3565b80156111895780601f1061115e57610100808354040283529160200191611189565b820191906000526020600020905b81548152906001019060200180831161116c57829003601f168201915b5050505050905090565b6111a561119e6115ec565b8383611bf1565b5050565b600a5481565b6111c06111ba6115ec565b836116cb565b6111ff576040517f08c379a00000000000000000000000000000000000000000000000000000000081526004016111f690612f29565b60405180910390fd5b61120b84848484611d5e565b50505050565b606061121c82611580565b61125b576040517f08c379a000000000000000000000000000000000000000000000000000000000815260040161125290612ee9565b60405180910390fd5b6000611265611dba565b9050600081511161128557604051806020016040528060008152506112b3565b8061128f84611dda565b60086040516020016112a393929190612c14565b6040516020818303038152906040525b915050919050565b60606112c5611dba565b905090565b606060405180606001604052806036815260200161392860369139905090565b6000600660008473ffffffffffffffffffffffffffffffffffffffff1673ffffffffffffffffffffffffffffffffffffffff16815260200190815260200160002060008373ffffffffffffffffffffffffffffffffffffffff1673ffffffffffffffffffffffffffffffffffffffff16815260200190815260200160002060009054906101000a900460ff16905092915050565b6113866115ec565b73ffffffffffffffffffffffffffffffffffffffff166113a46110d8565b73ffffffffffffffffffffffffffffffffffffffff16146113fa576040517f08c379a00000000000000000000000000000000000000000000000000000000081526004016113f190612ea9565b60405180910390fd5b600c60006114089190612380565b8181600c91906114199291906123a1565b505050565b6114266115ec565b73ffffffffffffffffffffffffffffffffffffffff166114446110d8565b73ffffffffffffffffffffffffffffffffffffffff161461149a576040517f08c379a000000000000000000000000000000000000000000000000000000000815260040161149190612ea9565b60405180910390fd5b600073ffffffffffffffffffffffffffffffffffffffff168173ffffffffffffffffffffffffffffffffffffffff16141561150a576040517f08c379a000000000000000000000000000000000000000000000000000000000815260040161150190612d09565b60405180910390fd5b61151381611b2d565b50565b60007f01ffc9a7000000000000000000000000000000000000000000000000000000007bffffffffffffffffffffffffffffffffffffffffffffffffffffffff1916827bffffffffffffffffffffffffffffffffffffffffffffffffffffffff1916149050919050565b60008073ffffffffffffffffffffffffffffffffffffffff166003600084815260200190815260200160002060009054906101000a900473ffffffffffffffffffffffffffffffffffffffff1673ffffffffffffffffffffffffffffffffffffffff1614159050919050565b600033905090565b816005600083815260200190815260200160002060006101000a81548173ffffffffffffffffffffffffffffffffffffffff021916908373ffffffffffffffffffffffffffffffffffffffff160217905550808273ffffffffffffffffffffffffffffffffffffffff1661166783610e41565b73ffffffffffffffffffffffffffffffffffffffff167f8c5be1e5ebec7d5bd14f71427d1e84f3dd0314c0f7b2291e5b200ac8c7c3b92560405160405180910390a45050565b6116c7828260405180602001604052806000815250611f87565b5050565b60006116d682611580565b611715576040517f08c379a000000000000000000000000000000000000000000000000000000000815260040161170c90612dc9565b60405180910390fd5b600061172083610e41565b90508073ffffffffffffffffffffffffffffffffffffffff168473ffffffffffffffffffffffffffffffffffffffff16148061178f57508373ffffffffffffffffffffffffffffffffffffffff166117778461072e565b73ffffffffffffffffffffffffffffffffffffffff16145b806117a0575061179f81856112ea565b5b91505092915050565b8273ffffffffffffffffffffffffffffffffffffffff166117c982610e41565b73ffffffffffffffffffffffffffffffffffffffff161461181f576040517f08c379a000000000000000000000000000000000000000000000000000000000815260040161181690612d29565b60405180910390fd5b600073ffffffffffffffffffffffffffffffffffffffff168273ffffffffffffffffffffffffffffffffffffffff16141561188f576040517f08c379a000000000000000000000000000000000000000000000000000000000815260040161188690612d89565b60405180910390fd5b61189a838383611fe2565b6118a56000826115f4565b6001600460008573ffffffffffffffffffffffffffffffffffffffff1673ffffffffffffffffffffffffffffffffffffffff16815260200190815260200160002060008282546118f591906130b9565b925050819055506001600460008473ffffffffffffffffffffffffffffffffffffffff1673ffffffffffffffffffffffffffffffffffffffff168152602001908152602001600020600082825461194c9190613032565b92505081905550816003600083815260200190815260200160002060006101000a81548173ffffffffffffffffffffffffffffffffffffffff021916908373ffffffffffffffffffffffffffffffffffffffff160217905550808273ffffffffffffffffffffffffffffffffffffffff168473ffffffffffffffffffffffffffffffffffffffff167fddf252ad1be2c89b69c2b068fc378daa952ba7f163c4a11628f55a4df523b3ef60405160405180910390a4611a0b838383611fe7565b505050565b6000611a1b82610e41565b9050611a2981600084611fe2565b611a346000836115f4565b6001600460008373ffffffffffffffffffffffffffffffffffffffff1673ffffffffffffffffffffffffffffffffffffffff1681526020019081526020016000206000828254611a8491906130b9565b925050819055506003600083815260200190815260200160002060006101000a81549073ffffffffffffffffffffffffffffffffffffffff021916905581600073ffffffffffffffffffffffffffffffffffffffff168273ffffffffffffffffffffffffffffffffffffffff167fddf252ad1be2c89b69c2b068fc378daa952ba7f163c4a11628f55a4df523b3ef60405160405180910390a4611b2981600084611fe7565b5050565b60008060009054906101000a900473ffffffffffffffffffffffffffffffffffffffff169050816000806101000a81548173ffffffffffffffffffffffffffffffffffffffff021916908373ffffffffffffffffffffffffffffffffffffffff1602179055508173ffffffffffffffffffffffffffffffffffffffff168173ffffffffffffffffffffffffffffffffffffffff167f8be0079c531659141344cd1fd0a4f28419497f9722a3daafe3b4186f6b6457e060405160405180910390a35050565b8173ffffffffffffffffffffffffffffffffffffffff168373ffffffffffffffffffffffffffffffffffffffff161415611c60576040517f08c379a0000000000000000000000000000000000000000000000000000000008152600401611c5790612da9565b60405180910390fd5b80600660008573ffffffffffffffffffffffffffffffffffffffff1673ffffffffffffffffffffffffffffffffffffffff16815260200190815260200160002060008473ffffffffffffffffffffffffffffffffffffffff1673ffffffffffffffffffffffffffffffffffffffff16815260200190815260200160002060006101000a81548160ff0219169083151502179055508173ffffffffffffffffffffffffffffffffffffffff168373ffffffffffffffffffffffffffffffffffffffff167f17307eab39ab6107e8899845ad3d59bd9653f200f220920489ca2b5937696c3183604051611d519190612cac565b60405180910390a3505050565b611d698484846117a9565b611d7584848484611fec565b611db4576040517f08c379a0000000000000000000000000000000000000000000000000000000008152600401611dab90612ce9565b60405180910390fd5b50505050565b60606040518060600160405280603681526020016138f260369139905090565b60606000821415611e22576040518060400160405280600181526020017f30000000000000000000000000000000000000000000000000000000000000008152509050611f82565b600082905060005b60008214611e54578080611e3d90613206565b915050600a82611e4d9190613088565b9150611e2a565b60008167ffffffffffffffff811115611e96577f4e487b7100000000000000000000000000000000000000000000000000000000600052604160045260246000fd5b6040519080825280601f01601f191660200182016040528015611ec85781602001600182028036833780820191505090505b5090505b60008514611f7b57600182611ee191906130b9565b9150600a85611ef0919061324f565b6030611efc9190613032565b60f81b818381518110611f38577f4e487b7100000000000000000000000000000000000000000000000000000000600052603260045260246000fd5b60200101907effffffffffffffffffffffffffffffffffffffffffffffffffffffffffffff1916908160001a905350600a85611f749190613088565b9450611ecc565b8093505050505b919050565b611f918383612183565b611f9e6000848484611fec565b611fdd576040517f08c379a0000000000000000000000000000000000000000000000000000000008152600401611fd490612ce9565b60405180910390fd5b505050565b505050565b505050565b600061200d8473ffffffffffffffffffffffffffffffffffffffff1661235d565b15612176578373ffffffffffffffffffffffffffffffffffffffff1663150b7a026120366115ec565b8786866040518563ffffffff1660e01b81526004016120589493929190612c60565b602060405180830381600087803b15801561207257600080fd5b505af19250505080156120a357506040513d601f19601f820116820180604052508101906120a091906127b7565b60015b612126573d80600081146120d3576040519150601f19603f3d011682016040523d82523d6000602084013e6120d8565b606091505b5060008151141561211e576040517f08c379a000000000000000000000000000000000000000000000000000000000815260040161211590612ce9565b60405180910390fd5b805181602001fd5b63150b7a0260e01b7bffffffffffffffffffffffffffffffffffffffffffffffffffffffff1916817bffffffffffffffffffffffffffffffffffffffffffffffffffffffff19161491505061217b565b600190505b949350505050565b600073ffffffffffffffffffffffffffffffffffffffff168273ffffffffffffffffffffffffffffffffffffffff1614156121f3576040517f08c379a00000000000000000000000000000000000000000000000000000000081526004016121ea90612e49565b60405180910390fd5b6121fc81611580565b1561223c576040517f08c379a000000000000000000000000000000000000000000000000000000000815260040161223390612d69565b60405180910390fd5b61224860008383611fe2565b6001600460008473ffffffffffffffffffffffffffffffffffffffff1673ffffffffffffffffffffffffffffffffffffffff16815260200190815260200160002060008282546122989190613032565b92505081905550816003600083815260200190815260200160002060006101000a81548173ffffffffffffffffffffffffffffffffffffffff021916908373ffffffffffffffffffffffffffffffffffffffff160217905550808273ffffffffffffffffffffffffffffffffffffffff16600073ffffffffffffffffffffffffffffffffffffffff167fddf252ad1be2c89b69c2b068fc378daa952ba7f163c4a11628f55a4df523b3ef60405160405180910390a461235960008383611fe7565b5050565b6000808273ffffffffffffffffffffffffffffffffffffffff163b119050919050565b508054600082559060005260206000209081019061239e9190612441565b50565b828054828255906000526020600020908101928215612430579160200282015b8281111561242f57823573ffffffffffffffffffffffffffffffffffffffff168260006101000a81548173ffffffffffffffffffffffffffffffffffffffff021916908373ffffffffffffffffffffffffffffffffffffffff160217905550916020019190600101906123c1565b5b50905061243d9190612441565b5090565b5b8082111561245a576000816000905550600101612442565b5090565b600061247161246c84612fa9565b612f84565b90508281526020810184848401111561248957600080fd5b612494848285613161565b509392505050565b6000813590506124ab81613895565b92915050565b60008083601f8401126124c357600080fd5b8235905067ffffffffffffffff8111156124dc57600080fd5b6020830191508360208202830111156124f457600080fd5b9250929050565b60008135905061250a816138ac565b92915050565b60008135905061251f816138c3565b92915050565b600081519050612534816138c3565b92915050565b600082601f83011261254b57600080fd5b813561255b84826020860161245e565b91505092915050565b600081359050612573816138da565b92915050565b60006020828403121561258b57600080fd5b60006125998482850161249c565b91505092915050565b600080604083850312156125b557600080fd5b60006125c38582860161249c565b92505060206125d48582860161249c565b9150509250929050565b6000806000606084860312156125f357600080fd5b60006126018682870161249c565b93505060206126128682870161249c565b925050604061262386828701612564565b9150509250925092565b6000806000806080858703121561264357600080fd5b60006126518782880161249c565b94505060206126628782880161249c565b935050604061267387828801612564565b925050606085013567ffffffffffffffff81111561269057600080fd5b61269c8782880161253a565b91505092959194509250565b600080604083850312156126bb57600080fd5b60006126c98582860161249c565b92505060206126da858286016124fb565b9150509250929050565b600080604083850312156126f757600080fd5b60006127058582860161249c565b925050602061271685828601612564565b9150509250929050565b6000806020838503121561273357600080fd5b600083013567ffffffffffffffff81111561274d57600080fd5b612759858286016124b1565b92509250509250929050565b60006020828403121561277757600080fd5b6000612785848285016124fb565b91505092915050565b6000602082840312156127a057600080fd5b60006127ae84828501612510565b91505092915050565b6000602082840312156127c957600080fd5b60006127d784828501612525565b91505092915050565b6000602082840312156127f257600080fd5b600061280084828501612564565b91505092915050565b612812816130ed565b82525050565b612821816130ff565b82525050565b600061283282612fef565b61283c8185613005565b935061284c818560208601613170565b6128558161333c565b840191505092915050565b600061286b82612ffa565b6128758185613016565b9350612885818560208601613170565b61288e8161333c565b840191505092915050565b60006128a482612ffa565b6128ae8185613027565b93506128be818560208601613170565b80840191505092915050565b600081546128d7816131a3565b6128e18186613027565b945060018216600081146128fc576001811461290d57612940565b60ff19831686528186019350612940565b61291685612fda565b60005b8381101561293857815481890152600182019150602081019050612919565b838801955050505b50505092915050565b6000612956603283613016565b91506129618261334d565b604082019050919050565b6000612979602683613016565b91506129848261339c565b604082019050919050565b600061299c602583613016565b91506129a7826133eb565b604082019050919050565b60006129bf601e83613016565b91506129ca8261343a565b602082019050919050565b60006129e2601c83613016565b91506129ed82613463565b602082019050919050565b6000612a05602483613016565b9150612a108261348c565b604082019050919050565b6000612a28601983613016565b9150612a33826134db565b602082019050919050565b6000612a4b602c83613016565b9150612a5682613504565b604082019050919050565b6000612a6e603883613016565b9150612a7982613553565b604082019050919050565b6000612a91602a83613016565b9150612a9c826135a2565b604082019050919050565b6000612ab4602983613016565b9150612abf826135f1565b604082019050919050565b6000612ad7602083613016565b9150612ae282613640565b602082019050919050565b6000612afa601783613016565b9150612b0582613669565b602082019050919050565b6000612b1d602c83613016565b9150612b2882613692565b604082019050919050565b6000612b40602083613016565b9150612b4b826136e1565b602082019050919050565b6000612b63602283613016565b9150612b6e8261370a565b604082019050919050565b6000612b86602f83613016565b9150612b9182613759565b604082019050919050565b6000612ba9602183613016565b9150612bb4826137a8565b604082019050919050565b6000612bcc603183613016565b9150612bd7826137f7565b604082019050919050565b6000612bef603083613016565b9150612bfa82613846565b604082019050919050565b612c0e81613157565b82525050565b6000612c208286612899565b9150612c2c8285612899565b9150612c3882846128ca565b9150819050949350505050565b6000602082019050612c5a6000830184612809565b92915050565b6000608082019050612c756000830187612809565b612c826020830186612809565b612c8f6040830185612c05565b8181036060830152612ca18184612827565b905095945050505050565b6000602082019050612cc16000830184612818565b92915050565b60006020820190508181036000830152612ce18184612860565b905092915050565b60006020820190508181036000830152612d0281612949565b9050919050565b60006020820190508181036000830152612d228161296c565b9050919050565b60006020820190508181036000830152612d428161298f565b9050919050565b60006020820190508181036000830152612d62816129b2565b9050919050565b60006020820190508181036000830152612d82816129d5565b9050919050565b60006020820190508181036000830152612da2816129f8565b9050919050565b60006020820190508181036000830152612dc281612a1b565b9050919050565b60006020820190508181036000830152612de281612a3e565b9050919050565b60006020820190508181036000830152612e0281612a61565b9050919050565b60006020820190508181036000830152612e2281612a84565b9050919050565b60006020820190508181036000830152612e4281612aa7565b9050919050565b60006020820190508181036000830152612e6281612aca565b9050919050565b60006020820190508181036000830152612e8281612aed565b9050919050565b60006020820190508181036000830152612ea281612b10565b9050919050565b60006020820190508181036000830152612ec281612b33565b9050919050565b60006020820190508181036000830152612ee281612b56565b9050919050565b60006020820190508181036000830152612f0281612b79565b9050919050565b60006020820190508181036000830152612f2281612b9c565b9050919050565b60006020820190508181036000830152612f4281612bbf565b9050919050565b60006020820190508181036000830152612f6281612be2565b9050919050565b6000602082019050612f7e6000830184612c05565b92915050565b6000612f8e612f9f565b9050612f9a82826131d5565b919050565b6000604051905090565b600067ffffffffffffffff821115612fc457612fc361330d565b5b612fcd8261333c565b9050602081019050919050565b60008190508160005260206000209050919050565b600081519050919050565b600081519050919050565b600082825260208201905092915050565b600082825260208201905092915050565b600081905092915050565b600061303d82613157565b915061304883613157565b9250827fffffffffffffffffffffffffffffffffffffffffffffffffffffffffffffffff0382111561307d5761307c613280565b5b828201905092915050565b600061309382613157565b915061309e83613157565b9250826130ae576130ad6132af565b5b828204905092915050565b60006130c482613157565b91506130cf83613157565b9250828210156130e2576130e1613280565b5b828203905092915050565b60006130f882613137565b9050919050565b60008115159050919050565b60007fffffffff0000000000000000000000000000000000000000000000000000000082169050919050565b600073ffffffffffffffffffffffffffffffffffffffff82169050919050565b6000819050919050565b82818337600083830152505050565b60005b8381101561318e578082015181840152602081019050613173565b8381111561319d576000848401525b50505050565b600060028204905060018216806131bb57607f821691505b602082108114156131cf576131ce6132de565b5b50919050565b6131de8261333c565b810181811067ffffffffffffffff821117156131fd576131fc61330d565b5b80604052505050565b600061321182613157565b91507fffffffffffffffffffffffffffffffffffffffffffffffffffffffffffffffff82141561324457613243613280565b5b600182019050919050565b600061325a82613157565b915061326583613157565b925082613275576132746132af565b5b828206905092915050565b7f4e487b7100000000000000000000000000000000000000000000000000000000600052601160045260246000fd5b7f4e487b7100000000000000000000000000000000000000000000000000000000600052601260045260246000fd5b7f4e487b7100000000000000000000000000000000000000000000000000000000600052602260045260246000fd5b7f4e487b7100000000000000000000000000000000000000000000000000000000600052604160045260246000fd5b6000601f19601f8301169050919050565b7f4552433732313a207472616e7366657220746f206e6f6e20455243373231526560008201527f63656976657220696d706c656d656e7465720000000000000000000000000000602082015250565b7f4f776e61626c653a206e6577206f776e657220697320746865207a65726f206160008201527f6464726573730000000000000000000000000000000000000000000000000000602082015250565b7f4552433732313a207472616e736665722066726f6d20696e636f72726563742060008201527f6f776e6572000000000000000000000000000000000000000000000000000000602082015250565b7f4e6f206d6f7265204e465420617661696c61626c6520746f206d696e74210000600082015250565b7f4552433732313a20746f6b656e20616c7265616479206d696e74656400000000600082015250565b7f4552433732313a207472616e7366657220746f20746865207a65726f2061646460008201527f7265737300000000000000000000000000000000000000000000000000000000602082015250565b7f4552433732313a20617070726f766520746f2063616c6c657200000000000000600082015250565b7f4552433732313a206f70657261746f7220717565727920666f72206e6f6e657860008201527f697374656e7420746f6b656e0000000000000000000000000000000000000000602082015250565b7f4552433732313a20617070726f76652063616c6c6572206973206e6f74206f7760008201527f6e6572206e6f7220617070726f76656420666f7220616c6c0000000000000000602082015250565b7f4552433732313a2062616c616e636520717565727920666f7220746865207a6560008201527f726f206164647265737300000000000000000000000000000000000000000000602082015250565b7f4552433732313a206f776e657220717565727920666f72206e6f6e657869737460008201527f656e7420746f6b656e0000000000000000000000000000000000000000000000602082015250565b7f4552433732313a206d696e7420746f20746865207a65726f2061646472657373600082015250565b7f596f7520617265206e6f742077686974656c6973746564000000000000000000600082015250565b7f4552433732313a20617070726f76656420717565727920666f72206e6f6e657860008201527f697374656e7420746f6b656e0000000000000000000000000000000000000000602082015250565b7f4f776e61626c653a2063616c6c6572206973206e6f7420746865206f776e6572600082015250565b7f456163682061646472657373206d6179206f6e6c79206d696e742078204e465460008201527f7321000000000000000000000000000000000000000000000000000000000000602082015250565b7f4552433732314d657461646174613a2055524920717565727920666f72206e6f60008201527f6e6578697374656e7420746f6b656e0000000000000000000000000000000000602082015250565b7f4552433732313a20617070726f76616c20746f2063757272656e74206f776e6560008201527f7200000000000000000000000000000000000000000000000000000000000000602082015250565b7f4552433732313a207472616e736665722063616c6c6572206973206e6f74206f60008201527f776e6572206e6f7220617070726f766564000000000000000000000000000000602082015250565b7f4552433732314275726e61626c653a2063616c6c6572206973206e6f74206f7760008201527f6e6572206e6f7220617070726f76656400000000000000000000000000000000602082015250565b61389e816130ed565b81146138a957600080fd5b50565b6138b5816130ff565b81146138c057600080fd5b50565b6138cc8161310b565b81146138d757600080fd5b50565b6138e381613157565b81146138ee57600080fd5b5056fe697066733a2f2f516d65614134776278544850457035384b536b6776665773315a705552536d326372597357333553574d50776f4d2f697066733a2f2f516d646d5350614e4661427a56523347534644666d50374447394a6461686e4475315039344c35483434593544522fa2646970667358221220e8f57901c4e14feeab2db661a3dc8a93c4b0a27ef47b46b3370693779daab47464736f6c63430008040033",
  "linkReferences": {},
  "deployedLinkReferences": {}
}