{
  "_format": "hh-sol-artifact-1",
  "contractName": "NFT",
  "sourceName": "src/backend/contracts/NFT.sol",
  "abi": [
    {
      "inputs": [
        {
          "internalType": "address",
          "name": "_teamWallet",
          "type": "address"
        },
        {
          "internalType": "address[]",
          "name": "_usersToWhitelist",
          "type": "address[]"
        }
      ],
      "stateMutability": "nonpayable",
      "type": "constructor"
    },
    {
      "anonymous": false,
      "inputs": [
        {
          "indexed": true,
          "internalType": "address",
          "name": "owner",
          "type": "address"
        },
        {
          "indexed": true,
          "internalType": "address",
          "name": "approved",
          "type": "address"
        },
        {
          "indexed": true,
          "internalType": "uint256",
          "name": "tokenId",
          "type": "uint256"
        }
      ],
      "name": "Approval",
      "type": "event"
    },
    {
      "anonymous": false,
      "inputs": [
        {
          "indexed": true,
          "internalType": "address",
          "name": "owner",
          "type": "address"
        },
        {
          "indexed": true,
          "internalType": "address",
          "name": "operator",
          "type": "address"
        },
        {
          "indexed": false,
          "internalType": "bool",
          "name": "approved",
          "type": "bool"
        }
      ],
      "name": "ApprovalForAll",
      "type": "event"
    },
    {
      "anonymous": false,
      "inputs": [
        {
          "indexed": false,
          "internalType": "address",
          "name": "user",
          "type": "address"
        }
      ],
      "name": "MintSuccessful",
      "type": "event"
    },
    {
      "anonymous": false,
      "inputs": [
        {
          "indexed": true,
          "internalType": "address",
          "name": "previousOwner",
          "type": "address"
        },
        {
          "indexed": true,
          "internalType": "address",
          "name": "newOwner",
          "type": "address"
        }
      ],
      "name": "OwnershipTransferred",
      "type": "event"
    },
    {
      "anonymous": false,
      "inputs": [
        {
          "indexed": true,
          "internalType": "address",
          "name": "from",
          "type": "address"
        },
        {
          "indexed": true,
          "internalType": "address",
          "name": "to",
          "type": "address"
        },
        {
          "indexed": true,
          "internalType": "uint256",
          "name": "tokenId",
          "type": "uint256"
        }
      ],
      "name": "Transfer",
      "type": "event"
    },
    {
      "inputs": [],
      "name": "amountMintPerAccount",
      "outputs": [
        {
          "internalType": "uint256",
          "name": "",
          "type": "uint256"
        }
      ],
      "stateMutability": "view",
      "type": "function"
    },
    {
      "inputs": [
        {
          "internalType": "address",
          "name": "to",
          "type": "address"
        },
        {
          "internalType": "uint256",
          "name": "tokenId",
          "type": "uint256"
        }
      ],
      "name": "approve",
      "outputs": [],
      "stateMutability": "nonpayable",
      "type": "function"
    },
    {
      "inputs": [
        {
          "internalType": "address",
          "name": "owner",
          "type": "address"
        }
      ],
      "name": "balanceOf",
      "outputs": [
        {
          "internalType": "uint256",
          "name": "",
          "type": "uint256"
        }
      ],
      "stateMutability": "view",
      "type": "function"
    },
    {
      "inputs": [],
      "name": "baseTokenURI",
      "outputs": [
        {
          "internalType": "string",
          "name": "",
          "type": "string"
        }
      ],
      "stateMutability": "pure",
      "type": "function"
    },
    {
      "inputs": [
        {
          "internalType": "uint256",
          "name": "tokenId",
          "type": "uint256"
        }
      ],
      "name": "burn",
      "outputs": [],
      "stateMutability": "nonpayable",
      "type": "function"
    },
    {
      "inputs": [],
      "name": "contractURI",
      "outputs": [
        {
          "internalType": "string",
          "name": "",
          "type": "string"
        }
      ],
      "stateMutability": "pure",
      "type": "function"
    },
    {
      "inputs": [],
      "name": "currentToken",
      "outputs": [
        {
          "internalType": "uint256",
          "name": "",
          "type": "uint256"
        }
      ],
      "stateMutability": "view",
      "type": "function"
    },
    {
      "inputs": [
        {
          "internalType": "uint256",
          "name": "tokenId",
          "type": "uint256"
        }
      ],
      "name": "getApproved",
      "outputs": [
        {
          "internalType": "address",
          "name": "",
          "type": "address"
        }
      ],
      "stateMutability": "view",
      "type": "function"
    },
    {
      "inputs": [
        {
          "internalType": "address",
          "name": "owner",
          "type": "address"
        },
        {
          "internalType": "address",
          "name": "operator",
          "type": "address"
        }
      ],
      "name": "isApprovedForAll",
      "outputs": [
        {
          "internalType": "bool",
          "name": "",
          "type": "bool"
        }
      ],
      "stateMutability": "view",
      "type": "function"
    },
    {
      "inputs": [
        {
          "internalType": "address",
          "name": "_user",
          "type": "address"
        }
      ],
      "name": "isWhitelisted",
      "outputs": [
        {
          "internalType": "bool",
          "name": "",
          "type": "bool"
        }
      ],
      "stateMutability": "view",
      "type": "function"
    },
    {
      "inputs": [],
      "name": "max_supply",
      "outputs": [
        {
          "internalType": "uint256",
          "name": "",
          "type": "uint256"
        }
      ],
      "stateMutability": "view",
      "type": "function"
    },
    {
      "inputs": [],
      "name": "mint",
      "outputs": [],
      "stateMutability": "nonpayable",
      "type": "function"
    },
    {
      "inputs": [],
      "name": "name",
      "outputs": [
        {
          "internalType": "string",
          "name": "",
          "type": "string"
        }
      ],
      "stateMutability": "view",
      "type": "function"
    },
    {
      "inputs": [],
      "name": "owner",
      "outputs": [
        {
          "internalType": "address",
          "name": "",
          "type": "address"
        }
      ],
      "stateMutability": "view",
      "type": "function"
    },
    {
      "inputs": [
        {
          "internalType": "uint256",
          "name": "tokenId",
          "type": "uint256"
        }
      ],
      "name": "ownerOf",
      "outputs": [
        {
          "internalType": "address",
          "name": "",
          "type": "address"
        }
      ],
      "stateMutability": "view",
      "type": "function"
    },
    {
      "inputs": [],
      "name": "publicSaleEnabled",
      "outputs": [
        {
          "internalType": "bool",
          "name": "",
          "type": "bool"
        }
      ],
      "stateMutability": "view",
      "type": "function"
    },
    {
      "inputs": [],
      "name": "renounceOwnership",
      "outputs": [],
      "stateMutability": "nonpayable",
      "type": "function"
    },
    {
      "inputs": [
        {
          "internalType": "address",
          "name": "from",
          "type": "address"
        },
        {
          "internalType": "address",
          "name": "to",
          "type": "address"
        },
        {
          "internalType": "uint256",
          "name": "tokenId",
          "type": "uint256"
        }
      ],
      "name": "safeTransferFrom",
      "outputs": [],
      "stateMutability": "nonpayable",
      "type": "function"
    },
    {
      "inputs": [
        {
          "internalType": "address",
          "name": "from",
          "type": "address"
        },
        {
          "internalType": "address",
          "name": "to",
          "type": "address"
        },
        {
          "internalType": "uint256",
          "name": "tokenId",
          "type": "uint256"
        },
        {
          "internalType": "bytes",
          "name": "_data",
          "type": "bytes"
        }
      ],
      "name": "safeTransferFrom",
      "outputs": [],
      "stateMutability": "nonpayable",
      "type": "function"
    },
    {
      "inputs": [
        {
          "internalType": "uint256",
          "name": "_amountMintPerAccount",
          "type": "uint256"
        }
      ],
      "name": "setAmountMintPerAccount",
      "outputs": [],
      "stateMutability": "nonpayable",
      "type": "function"
    },
    {
      "inputs": [
        {
          "internalType": "address",
          "name": "operator",
          "type": "address"
        },
        {
          "internalType": "bool",
          "name": "approved",
          "type": "bool"
        }
      ],
      "name": "setApprovalForAll",
      "outputs": [],
      "stateMutability": "nonpayable",
      "type": "function"
    },
    {
      "inputs": [
        {
          "internalType": "bool",
          "name": "_state",
          "type": "bool"
        }
      ],
      "name": "setPublicSaleEnabled",
      "outputs": [],
      "stateMutability": "nonpayable",
      "type": "function"
    },
    {
      "inputs": [
        {
          "internalType": "bytes4",
          "name": "interfaceId",
          "type": "bytes4"
        }
      ],
      "name": "supportsInterface",
      "outputs": [
        {
          "internalType": "bool",
          "name": "",
          "type": "bool"
        }
      ],
      "stateMutability": "view",
      "type": "function"
    },
    {
      "inputs": [],
      "name": "symbol",
      "outputs": [
        {
          "internalType": "string",
          "name": "",
          "type": "string"
        }
      ],
      "stateMutability": "view",
      "type": "function"
    },
    {
      "inputs": [
        {
          "internalType": "uint256",
          "name": "_tokenId",
          "type": "uint256"
        }
      ],
      "name": "tokenURI",
      "outputs": [
        {
          "internalType": "string",
          "name": "",
          "type": "string"
        }
      ],
      "stateMutability": "view",
      "type": "function"
    },
    {
      "inputs": [
        {
          "internalType": "address",
          "name": "from",
          "type": "address"
        },
        {
          "internalType": "address",
          "name": "to",
          "type": "address"
        },
        {
          "internalType": "uint256",
          "name": "tokenId",
          "type": "uint256"
        }
      ],
      "name": "transferFrom",
      "outputs": [],
      "stateMutability": "nonpayable",
      "type": "function"
    },
    {
      "inputs": [
        {
          "internalType": "address",
          "name": "newOwner",
          "type": "address"
        }
      ],
      "name": "transferOwnership",
      "outputs": [],
      "stateMutability": "nonpayable",
      "type": "function"
    },
    {
      "inputs": [],
      "name": "uriPrefix",
      "outputs": [
        {
          "internalType": "string",
          "name": "",
          "type": "string"
        }
      ],
      "stateMutability": "view",
      "type": "function"
    },
    {
      "inputs": [],
      "name": "uriSuffix",
      "outputs": [
        {
          "internalType": "string",
          "name": "",
          "type": "string"
        }
      ],
      "stateMutability": "view",
      "type": "function"
    },
    {
      "inputs": [
        {
          "internalType": "address[]",
          "name": "_users",
          "type": "address[]"
        }
      ],
      "name": "whitelistUsers",
      "outputs": [],
      "stateMutability": "nonpayable",
      "type": "function"
    },
    {
      "inputs": [],
      "name": "withdraw",
      "outputs": [],
      "stateMutability": "nonpayable",
      "type": "function"
    }
  ],
  "bytecode": "0x608060405260405180602001604052806000815250600790805190602001906200002b929190620003ca565b506040518060400160405280600581526020017f2e6a736f6e0000000000000000000000000000000000000000000000000000008152506008908051906020019062000079929190620003ca565b506113886009556001600a556000600b553480156200009757600080fd5b5060405162003ea538038062003ea58339818101604052810190620000bd9190620005e5565b6040518060400160405280600d81526020017f465245414b5920524142424954000000000000000000000000000000000000008152506040518060400160405280600281526020017f4652000000000000000000000000000000000000000000000000000000000000815250620001496200013d620001bf60201b60201c565b620001c760201b60201c565b816001908051906020019062000161929190620003ca565b5080600290805190602001906200017a929190620003ca565b505050600c60006200018d91906200045b565b80600c9080519060200190620001a59291906200047e565b50620001b7826200028b60201b60201c565b5050620008db565b600033905090565b60008060009054906101000a900473ffffffffffffffffffffffffffffffffffffffff169050816000806101000a81548173ffffffffffffffffffffffffffffffffffffffff021916908373ffffffffffffffffffffffffffffffffffffffff1602179055508173ffffffffffffffffffffffffffffffffffffffff168173ffffffffffffffffffffffffffffffffffffffff167f8be0079c531659141344cd1fd0a4f28419497f9722a3daafe3b4186f6b6457e060405160405180910390a35050565b6200029b620001bf60201b60201c565b73ffffffffffffffffffffffffffffffffffffffff16620002c1620003a160201b60201c565b73ffffffffffffffffffffffffffffffffffffffff16146200031a576040517f08c379a00000000000000000000000000000000000000000000000000000000081526004016200031190620006af565b60405180910390fd5b600073ffffffffffffffffffffffffffffffffffffffff168173ffffffffffffffffffffffffffffffffffffffff1614156200038d576040517f08c379a000000000000000000000000000000000000000000000000000000000815260040162000384906200068d565b60405180910390fd5b6200039e81620001c760201b60201c565b50565b60008060009054906101000a900473ffffffffffffffffffffffffffffffffffffffff16905090565b828054620003d8906200076e565b90600052602060002090601f016020900481019282620003fc576000855562000448565b82601f106200041757805160ff191683800117855562000448565b8280016001018555821562000448579182015b82811115620004475782518255916020019190600101906200042a565b5b5090506200045791906200050d565b5090565b50805460008255906000526020600020908101906200047b91906200050d565b50565b828054828255906000526020600020908101928215620004fa579160200282015b82811115620004f95782518260006101000a81548173ffffffffffffffffffffffffffffffffffffffff021916908373ffffffffffffffffffffffffffffffffffffffff160217905550916020019190600101906200049f565b5b5090506200050991906200050d565b5090565b5b80821115620005285760008160009055506001016200050e565b5090565b6000620005436200053d84620006fa565b620006d1565b905080838252602082019050828560208602820111156200056357600080fd5b60005b858110156200059757816200057c8882620005a1565b84526020840193506020830192505060018101905062000566565b5050509392505050565b600081519050620005b281620008c1565b92915050565b600082601f830112620005ca57600080fd5b8151620005dc8482602086016200052c565b91505092915050565b60008060408385031215620005f957600080fd5b60006200060985828601620005a1565b925050602083015167ffffffffffffffff8111156200062757600080fd5b6200063585828601620005b8565b9150509250929050565b60006200064e60268362000729565b91506200065b8262000849565b604082019050919050565b60006200067560208362000729565b9150620006828262000898565b602082019050919050565b60006020820190508181036000830152620006a8816200063f565b9050919050565b60006020820190508181036000830152620006ca8162000666565b9050919050565b6000620006dd620006f0565b9050620006eb8282620007a4565b919050565b6000604051905090565b600067ffffffffffffffff82111562000718576200071762000809565b5b602082029050602081019050919050565b600082825260208201905092915050565b600062000747826200074e565b9050919050565b600073ffffffffffffffffffffffffffffffffffffffff82169050919050565b600060028204905060018216806200078757607f821691505b602082108114156200079e576200079d620007da565b5b50919050565b620007af8262000838565b810181811067ffffffffffffffff82111715620007d157620007d062000809565b5b80604052505050565b7f4e487b7100000000000000000000000000000000000000000000000000000000600052602260045260246000fd5b7f4e487b7100000000000000000000000000000000000000000000000000000000600052604160045260246000fd5b6000601f19601f8301169050919050565b7f4f776e61626c653a206e6577206f776e657220697320746865207a65726f206160008201527f6464726573730000000000000000000000000000000000000000000000000000602082015250565b7f4f776e61626c653a2063616c6c6572206973206e6f7420746865206f776e6572600082015250565b620008cc816200073a565b8114620008d857600080fd5b50565b6135ba80620008eb6000396000f3fe608060405234801561001057600080fd5b50600436106101e55760003560e01c806370a082311161010f578063a827b5ff116100a2578063e8a3d48511610071578063e8a3d48514610534578063e985e9c514610552578063edec5f2714610582578063f2fde38b1461059e576101e5565b8063a827b5ff146104ac578063b88d4fde146104ca578063c87b56dd146104e6578063d547cfb714610516576101e5565b80638a333b50116100de5780638a333b50146104365780638da5cb5b1461045457806395d89b4114610472578063a22cb46514610490576101e5565b806370a08231146103c2578063715018a6146103f2578063836c081d146103fc5780638720fbef1461041a576101e5565b80632ab91bba1161018757806342966c681161015657806342966c681461033a5780635503a0e81461035657806362b99ad4146103745780636352211e14610392576101e5565b80632ab91bba146102c65780633af32abf146102e45780633ccfd60b1461031457806342842e0e1461031e576101e5565b8063095ea7b3116101c3578063095ea7b31461026857806311296660146102845780631249c58b146102a057806323b872dd146102aa576101e5565b806301ffc9a7146101ea57806306fdde031461021a578063081812fc14610238575b600080fd5b61020460048036038101906101ff9190612590565b6105ba565b60405161021191906129cd565b60405180910390f35b61022261069c565b60405161022f91906129e8565b60405180910390f35b610252600480360381019061024d91906125e2565b61072e565b60405161025f9190612966565b60405180910390f35b610282600480360381019061027d91906124e6565b6107b3565b005b61029e600480360381019061029991906125e2565b6108cb565b005b6102a8610951565b005b6102c460048036038101906102bf91906123e0565b610aa1565b005b6102ce610b01565b6040516102db91906129cd565b60405180910390f35b6102fe60048036038101906102f9919061237b565b610b14565b60405161030b91906129cd565b60405180910390f35b61031c610be4565b005b610338600480360381019061033391906123e0565b610ca9565b005b610354600480360381019061034f91906125e2565b610cc9565b005b61035e610d25565b60405161036b91906129e8565b60405180910390f35b61037c610db3565b60405161038991906129e8565b60405180910390f35b6103ac60048036038101906103a791906125e2565b610e41565b6040516103b99190612966565b60405180910390f35b6103dc60048036038101906103d7919061237b565b610ef3565b6040516103e99190612c8a565b60405180910390f35b6103fa610fab565b005b610404611033565b6040516104119190612c8a565b60405180910390f35b610434600480360381019061042f9190612567565b611039565b005b61043e6110d2565b60405161044b9190612c8a565b60405180910390f35b61045c6110d8565b6040516104699190612966565b60405180910390f35b61047a611101565b60405161048791906129e8565b60405180910390f35b6104aa60048036038101906104a591906124aa565b611193565b005b6104b46111a9565b6040516104c19190612c8a565b60405180910390f35b6104e460048036038101906104df919061242f565b6111af565b005b61050060048036038101906104fb91906125e2565b611211565b60405161050d91906129e8565b60405180910390f35b61051e61126a565b60405161052b91906129e8565b60405180910390f35b61053c611279565b60405161054991906129e8565b60405180910390f35b61056c600480360381019061056791906123a4565b611299565b60405161057991906129cd565b60405180910390f35b61059c60048036038101906105979190612522565b61132d565b005b6105b860048036038101906105b3919061237b565b6113cd565b005b60007f80ac58cd000000000000000000000000000000000000000000000000000000007bffffffffffffffffffffffffffffffffffffffffffffffffffffffff1916827bffffffffffffffffffffffffffffffffffffffffffffffffffffffff1916148061068557507f5b5e139f000000000000000000000000000000000000000000000000000000007bffffffffffffffffffffffffffffffffffffffffffffffffffffffff1916827bffffffffffffffffffffffffffffffffffffffffffffffffffffffff1916145b806106955750610694826114c5565b5b9050919050565b6060600180546106ab90612e73565b80601f01602080910402602001604051908101604052809291908181526020018280546106d790612e73565b80156107245780601f106106f957610100808354040283529160200191610724565b820191906000526020600020905b81548152906001019060200180831161070757829003601f168201915b5050505050905090565b60006107398261152f565b610778576040517f08c379a000000000000000000000000000000000000000000000000000000000815260040161076f90612baa565b60405180910390fd5b6005600083815260200190815260200160002060009054906101000a900473ffffffffffffffffffffffffffffffffffffffff169050919050565b60006107be82610e41565b90508073ffffffffffffffffffffffffffffffffffffffff168373ffffffffffffffffffffffffffffffffffffffff16141561082f576040517f08c379a000000000000000000000000000000000000000000000000000000000815260040161082690612c2a565b60405180910390fd5b8073ffffffffffffffffffffffffffffffffffffffff1661084e61159b565b73ffffffffffffffffffffffffffffffffffffffff16148061087d575061087c8161087761159b565b611299565b5b6108bc576040517f08c379a00000000000000000000000000000000000000000000000000000000081526004016108b390612b0a565b60405180910390fd5b6108c683836115a3565b505050565b6108d361159b565b73ffffffffffffffffffffffffffffffffffffffff166108f16110d8565b73ffffffffffffffffffffffffffffffffffffffff1614610947576040517f08c379a000000000000000000000000000000000000000000000000000000000815260040161093e90612bca565b60405180910390fd5b80600a8190555050565b600a5461095d33610ef3565b1061099d576040517f08c379a000000000000000000000000000000000000000000000000000000000815260040161099490612bea565b60405180910390fd5b600954600b54106109e3576040517f08c379a00000000000000000000000000000000000000000000000000000000081526004016109da90612a6a565b60405180910390fd5b600d60009054906101000a900460ff1680610a035750610a0233610b14565b5b610a42576040517f08c379a0000000000000000000000000000000000000000000000000000000008152600401610a3990612b8a565b60405180910390fd5b6001600b6000828254610a559190612d33565b92505081905550610a6833600b5461165c565b7ff5535ccd9f40eb4bc73fac8710dbb2effbf3329da83f62b35d9aa88161bb85ca33604051610a979190612966565b60405180910390a1565b610ab2610aac61159b565b8261167a565b610af1576040517f08c379a0000000000000000000000000000000000000000000000000000000008152600401610ae890612c4a565b60405180910390fd5b610afc838383611758565b505050565b600d60009054906101000a900460ff1681565b600080600c80549050905060005b81811015610bd8578373ffffffffffffffffffffffffffffffffffffffff16600c8281548110610b7b577f4e487b7100000000000000000000000000000000000000000000000000000000600052603260045260246000fd5b9060005260206000200160009054906101000a900473ffffffffffffffffffffffffffffffffffffffff1673ffffffffffffffffffffffffffffffffffffffff161415610bcd57600192505050610bdf565b806001019050610b22565b5060009150505b919050565b610bec61159b565b73ffffffffffffffffffffffffffffffffffffffff16610c0a6110d8565b73ffffffffffffffffffffffffffffffffffffffff1614610c60576040517f08c379a0000000000000000000000000000000000000000000000000000000008152600401610c5790612bca565b60405180910390fd5b3373ffffffffffffffffffffffffffffffffffffffff166108fc479081150290604051600060405180830381858888f19350505050158015610ca6573d6000803e3d6000fd5b50565b610cc4838383604051806020016040528060008152506111af565b505050565b610cda610cd461159b565b8261167a565b610d19576040517f08c379a0000000000000000000000000000000000000000000000000000000008152600401610d1090612c6a565b60405180910390fd5b610d22816119bf565b50565b60088054610d3290612e73565b80601f0160208091040260200160405190810160405280929190818152602001828054610d5e90612e73565b8015610dab5780601f10610d8057610100808354040283529160200191610dab565b820191906000526020600020905b815481529060010190602001808311610d8e57829003601f168201915b505050505081565b60078054610dc090612e73565b80601f0160208091040260200160405190810160405280929190818152602001828054610dec90612e73565b8015610e395780601f10610e0e57610100808354040283529160200191610e39565b820191906000526020600020905b815481529060010190602001808311610e1c57829003601f168201915b505050505081565b6000806003600084815260200190815260200160002060009054906101000a900473ffffffffffffffffffffffffffffffffffffffff169050600073ffffffffffffffffffffffffffffffffffffffff168173ffffffffffffffffffffffffffffffffffffffff161415610eea576040517f08c379a0000000000000000000000000000000000000000000000000000000008152600401610ee190612b4a565b60405180910390fd5b80915050919050565b60008073ffffffffffffffffffffffffffffffffffffffff168273ffffffffffffffffffffffffffffffffffffffff161415610f64576040517f08c379a0000000000000000000000000000000000000000000000000000000008152600401610f5b90612b2a565b60405180910390fd5b600460008373ffffffffffffffffffffffffffffffffffffffff1673ffffffffffffffffffffffffffffffffffffffff168152602001908152602001600020549050919050565b610fb361159b565b73ffffffffffffffffffffffffffffffffffffffff16610fd16110d8565b73ffffffffffffffffffffffffffffffffffffffff1614611027576040517f08c379a000000000000000000000000000000000000000000000000000000000815260040161101e90612bca565b60405180910390fd5b6110316000611adc565b565b600b5481565b61104161159b565b73ffffffffffffffffffffffffffffffffffffffff1661105f6110d8565b73ffffffffffffffffffffffffffffffffffffffff16146110b5576040517f08c379a00000000000000000000000000000000000000000000000000000000081526004016110ac90612bca565b60405180910390fd5b80600d60006101000a81548160ff02191690831515021790555050565b60095481565b60008060009054906101000a900473ffffffffffffffffffffffffffffffffffffffff16905090565b60606002805461111090612e73565b80601f016020809104026020016040519081016040528092919081815260200182805461113c90612e73565b80156111895780601f1061115e57610100808354040283529160200191611189565b820191906000526020600020905b81548152906001019060200180831161116c57829003601f168201915b5050505050905090565b6111a561119e61159b565b8383611ba0565b5050565b600a5481565b6111c06111ba61159b565b8361167a565b6111ff576040517f08c379a00000000000000000000000000000000000000000000000000000000081526004016111f690612c4a565b60405180910390fd5b61120b84848484611d0d565b50505050565b606061121c8261152f565b61125b576040517f08c379a000000000000000000000000000000000000000000000000000000000815260040161125290612c0a565b60405180910390fd5b611263611d69565b9050919050565b6060611274611d69565b905090565b606060405180606001604052806036815260200161351960369139905090565b6000600660008473ffffffffffffffffffffffffffffffffffffffff1673ffffffffffffffffffffffffffffffffffffffff16815260200190815260200160002060008373ffffffffffffffffffffffffffffffffffffffff1673ffffffffffffffffffffffffffffffffffffffff16815260200190815260200160002060009054906101000a900460ff16905092915050565b61133561159b565b73ffffffffffffffffffffffffffffffffffffffff166113536110d8565b73ffffffffffffffffffffffffffffffffffffffff16146113a9576040517f08c379a00000000000000000000000000000000000000000000000000000000081526004016113a090612bca565b60405180910390fd5b600c60006113b79190612182565b8181600c91906113c89291906121a3565b505050565b6113d561159b565b73ffffffffffffffffffffffffffffffffffffffff166113f36110d8565b73ffffffffffffffffffffffffffffffffffffffff1614611449576040517f08c379a000000000000000000000000000000000000000000000000000000000815260040161144090612bca565b60405180910390fd5b600073ffffffffffffffffffffffffffffffffffffffff168173ffffffffffffffffffffffffffffffffffffffff1614156114b9576040517f08c379a00000000000000000000000000000000000000000000000000000000081526004016114b090612a2a565b60405180910390fd5b6114c281611adc565b50565b60007f01ffc9a7000000000000000000000000000000000000000000000000000000007bffffffffffffffffffffffffffffffffffffffffffffffffffffffff1916827bffffffffffffffffffffffffffffffffffffffffffffffffffffffff1916149050919050565b60008073ffffffffffffffffffffffffffffffffffffffff166003600084815260200190815260200160002060009054906101000a900473ffffffffffffffffffffffffffffffffffffffff1673ffffffffffffffffffffffffffffffffffffffff1614159050919050565b600033905090565b816005600083815260200190815260200160002060006101000a81548173ffffffffffffffffffffffffffffffffffffffff021916908373ffffffffffffffffffffffffffffffffffffffff160217905550808273ffffffffffffffffffffffffffffffffffffffff1661161683610e41565b73ffffffffffffffffffffffffffffffffffffffff167f8c5be1e5ebec7d5bd14f71427d1e84f3dd0314c0f7b2291e5b200ac8c7c3b92560405160405180910390a45050565b611676828260405180602001604052806000815250611d89565b5050565b60006116858261152f565b6116c4576040517f08c379a00000000000000000000000000000000000000000000000000000000081526004016116bb90612aea565b60405180910390fd5b60006116cf83610e41565b90508073ffffffffffffffffffffffffffffffffffffffff168473ffffffffffffffffffffffffffffffffffffffff16148061173e57508373ffffffffffffffffffffffffffffffffffffffff166117268461072e565b73ffffffffffffffffffffffffffffffffffffffff16145b8061174f575061174e8185611299565b5b91505092915050565b8273ffffffffffffffffffffffffffffffffffffffff1661177882610e41565b73ffffffffffffffffffffffffffffffffffffffff16146117ce576040517f08c379a00000000000000000000000000000000000000000000000000000000081526004016117c590612a4a565b60405180910390fd5b600073ffffffffffffffffffffffffffffffffffffffff168273ffffffffffffffffffffffffffffffffffffffff16141561183e576040517f08c379a000000000000000000000000000000000000000000000000000000000815260040161183590612aaa565b60405180910390fd5b611849838383611de4565b6118546000826115a3565b6001600460008573ffffffffffffffffffffffffffffffffffffffff1673ffffffffffffffffffffffffffffffffffffffff16815260200190815260200160002060008282546118a49190612d89565b925050819055506001600460008473ffffffffffffffffffffffffffffffffffffffff1673ffffffffffffffffffffffffffffffffffffffff16815260200190815260200160002060008282546118fb9190612d33565b92505081905550816003600083815260200190815260200160002060006101000a81548173ffffffffffffffffffffffffffffffffffffffff021916908373ffffffffffffffffffffffffffffffffffffffff160217905550808273ffffffffffffffffffffffffffffffffffffffff168473ffffffffffffffffffffffffffffffffffffffff167fddf252ad1be2c89b69c2b068fc378daa952ba7f163c4a11628f55a4df523b3ef60405160405180910390a46119ba838383611de9565b505050565b60006119ca82610e41565b90506119d881600084611de4565b6119e36000836115a3565b6001600460008373ffffffffffffffffffffffffffffffffffffffff1673ffffffffffffffffffffffffffffffffffffffff1681526020019081526020016000206000828254611a339190612d89565b925050819055506003600083815260200190815260200160002060006101000a81549073ffffffffffffffffffffffffffffffffffffffff021916905581600073ffffffffffffffffffffffffffffffffffffffff168273ffffffffffffffffffffffffffffffffffffffff167fddf252ad1be2c89b69c2b068fc378daa952ba7f163c4a11628f55a4df523b3ef60405160405180910390a4611ad881600084611de9565b5050565b60008060009054906101000a900473ffffffffffffffffffffffffffffffffffffffff169050816000806101000a81548173ffffffffffffffffffffffffffffffffffffffff021916908373ffffffffffffffffffffffffffffffffffffffff1602179055508173ffffffffffffffffffffffffffffffffffffffff168173ffffffffffffffffffffffffffffffffffffffff167f8be0079c531659141344cd1fd0a4f28419497f9722a3daafe3b4186f6b6457e060405160405180910390a35050565b8173ffffffffffffffffffffffffffffffffffffffff168373ffffffffffffffffffffffffffffffffffffffff161415611c0f576040517f08c379a0000000000000000000000000000000000000000000000000000000008152600401611c0690612aca565b60405180910390fd5b80600660008573ffffffffffffffffffffffffffffffffffffffff1673ffffffffffffffffffffffffffffffffffffffff16815260200190815260200160002060008473ffffffffffffffffffffffffffffffffffffffff1673ffffffffffffffffffffffffffffffffffffffff16815260200190815260200160002060006101000a81548160ff0219169083151502179055508173ffffffffffffffffffffffffffffffffffffffff168373ffffffffffffffffffffffffffffffffffffffff167f17307eab39ab6107e8899845ad3d59bd9653f200f220920489ca2b5937696c3183604051611d0091906129cd565b60405180910390a3505050565b611d18848484611758565b611d2484848484611dee565b611d63576040517f08c379a0000000000000000000000000000000000000000000000000000000008152600401611d5a90612a0a565b60405180910390fd5b50505050565b606060405180606001604052806036815260200161354f60369139905090565b611d938383611f85565b611da06000848484611dee565b611ddf576040517f08c379a0000000000000000000000000000000000000000000000000000000008152600401611dd690612a0a565b60405180910390fd5b505050565b505050565b505050565b6000611e0f8473ffffffffffffffffffffffffffffffffffffffff1661215f565b15611f78578373ffffffffffffffffffffffffffffffffffffffff1663150b7a02611e3861159b565b8786866040518563ffffffff1660e01b8152600401611e5a9493929190612981565b602060405180830381600087803b158015611e7457600080fd5b505af1925050508015611ea557506040513d601f19601f82011682018060405250810190611ea291906125b9565b60015b611f28573d8060008114611ed5576040519150601f19603f3d011682016040523d82523d6000602084013e611eda565b606091505b50600081511415611f20576040517f08c379a0000000000000000000000000000000000000000000000000000000008152600401611f1790612a0a565b60405180910390fd5b805181602001fd5b63150b7a0260e01b7bffffffffffffffffffffffffffffffffffffffffffffffffffffffff1916817bffffffffffffffffffffffffffffffffffffffffffffffffffffffff191614915050611f7d565b600190505b949350505050565b600073ffffffffffffffffffffffffffffffffffffffff168273ffffffffffffffffffffffffffffffffffffffff161415611ff5576040517f08c379a0000000000000000000000000000000000000000000000000000000008152600401611fec90612b6a565b60405180910390fd5b611ffe8161152f565b1561203e576040517f08c379a000000000000000000000000000000000000000000000000000000000815260040161203590612a8a565b60405180910390fd5b61204a60008383611de4565b6001600460008473ffffffffffffffffffffffffffffffffffffffff1673ffffffffffffffffffffffffffffffffffffffff168152602001908152602001600020600082825461209a9190612d33565b92505081905550816003600083815260200190815260200160002060006101000a81548173ffffffffffffffffffffffffffffffffffffffff021916908373ffffffffffffffffffffffffffffffffffffffff160217905550808273ffffffffffffffffffffffffffffffffffffffff16600073ffffffffffffffffffffffffffffffffffffffff167fddf252ad1be2c89b69c2b068fc378daa952ba7f163c4a11628f55a4df523b3ef60405160405180910390a461215b60008383611de9565b5050565b6000808273ffffffffffffffffffffffffffffffffffffffff163b119050919050565b50805460008255906000526020600020908101906121a09190612243565b50565b828054828255906000526020600020908101928215612232579160200282015b8281111561223157823573ffffffffffffffffffffffffffffffffffffffff168260006101000a81548173ffffffffffffffffffffffffffffffffffffffff021916908373ffffffffffffffffffffffffffffffffffffffff160217905550916020019190600101906121c3565b5b50905061223f9190612243565b5090565b5b8082111561225c576000816000905550600101612244565b5090565b600061227361226e84612cca565b612ca5565b90508281526020810184848401111561228b57600080fd5b612296848285612e31565b509392505050565b6000813590506122ad816134bc565b92915050565b60008083601f8401126122c557600080fd5b8235905067ffffffffffffffff8111156122de57600080fd5b6020830191508360208202830111156122f657600080fd5b9250929050565b60008135905061230c816134d3565b92915050565b600081359050612321816134ea565b92915050565b600081519050612336816134ea565b92915050565b600082601f83011261234d57600080fd5b813561235d848260208601612260565b91505092915050565b60008135905061237581613501565b92915050565b60006020828403121561238d57600080fd5b600061239b8482850161229e565b91505092915050565b600080604083850312156123b757600080fd5b60006123c58582860161229e565b92505060206123d68582860161229e565b9150509250929050565b6000806000606084860312156123f557600080fd5b60006124038682870161229e565b93505060206124148682870161229e565b925050604061242586828701612366565b9150509250925092565b6000806000806080858703121561244557600080fd5b60006124538782880161229e565b94505060206124648782880161229e565b935050604061247587828801612366565b925050606085013567ffffffffffffffff81111561249257600080fd5b61249e8782880161233c565b91505092959194509250565b600080604083850312156124bd57600080fd5b60006124cb8582860161229e565b92505060206124dc858286016122fd565b9150509250929050565b600080604083850312156124f957600080fd5b60006125078582860161229e565b925050602061251885828601612366565b9150509250929050565b6000806020838503121561253557600080fd5b600083013567ffffffffffffffff81111561254f57600080fd5b61255b858286016122b3565b92509250509250929050565b60006020828403121561257957600080fd5b6000612587848285016122fd565b91505092915050565b6000602082840312156125a257600080fd5b60006125b084828501612312565b91505092915050565b6000602082840312156125cb57600080fd5b60006125d984828501612327565b91505092915050565b6000602082840312156125f457600080fd5b600061260284828501612366565b91505092915050565b61261481612dbd565b82525050565b61262381612dcf565b82525050565b600061263482612cfb565b61263e8185612d11565b935061264e818560208601612e40565b61265781612f63565b840191505092915050565b600061266d82612d06565b6126778185612d22565b9350612687818560208601612e40565b61269081612f63565b840191505092915050565b60006126a8603283612d22565b91506126b382612f74565b604082019050919050565b60006126cb602683612d22565b91506126d682612fc3565b604082019050919050565b60006126ee602583612d22565b91506126f982613012565b604082019050919050565b6000612711601e83612d22565b915061271c82613061565b602082019050919050565b6000612734601c83612d22565b915061273f8261308a565b602082019050919050565b6000612757602483612d22565b9150612762826130b3565b604082019050919050565b600061277a601983612d22565b915061278582613102565b602082019050919050565b600061279d602c83612d22565b91506127a88261312b565b604082019050919050565b60006127c0603883612d22565b91506127cb8261317a565b604082019050919050565b60006127e3602a83612d22565b91506127ee826131c9565b604082019050919050565b6000612806602983612d22565b915061281182613218565b604082019050919050565b6000612829602083612d22565b915061283482613267565b602082019050919050565b600061284c601783612d22565b915061285782613290565b602082019050919050565b600061286f602c83612d22565b915061287a826132b9565b604082019050919050565b6000612892602083612d22565b915061289d82613308565b602082019050919050565b60006128b5602283612d22565b91506128c082613331565b604082019050919050565b60006128d8602f83612d22565b91506128e382613380565b604082019050919050565b60006128fb602183612d22565b9150612906826133cf565b604082019050919050565b600061291e603183612d22565b91506129298261341e565b604082019050919050565b6000612941603083612d22565b915061294c8261346d565b604082019050919050565b61296081612e27565b82525050565b600060208201905061297b600083018461260b565b92915050565b6000608082019050612996600083018761260b565b6129a3602083018661260b565b6129b06040830185612957565b81810360608301526129c28184612629565b905095945050505050565b60006020820190506129e2600083018461261a565b92915050565b60006020820190508181036000830152612a028184612662565b905092915050565b60006020820190508181036000830152612a238161269b565b9050919050565b60006020820190508181036000830152612a43816126be565b9050919050565b60006020820190508181036000830152612a63816126e1565b9050919050565b60006020820190508181036000830152612a8381612704565b9050919050565b60006020820190508181036000830152612aa381612727565b9050919050565b60006020820190508181036000830152612ac38161274a565b9050919050565b60006020820190508181036000830152612ae38161276d565b9050919050565b60006020820190508181036000830152612b0381612790565b9050919050565b60006020820190508181036000830152612b23816127b3565b9050919050565b60006020820190508181036000830152612b43816127d6565b9050919050565b60006020820190508181036000830152612b63816127f9565b9050919050565b60006020820190508181036000830152612b838161281c565b9050919050565b60006020820190508181036000830152612ba38161283f565b9050919050565b60006020820190508181036000830152612bc381612862565b9050919050565b60006020820190508181036000830152612be381612885565b9050919050565b60006020820190508181036000830152612c03816128a8565b9050919050565b60006020820190508181036000830152612c23816128cb565b9050919050565b60006020820190508181036000830152612c43816128ee565b9050919050565b60006020820190508181036000830152612c6381612911565b9050919050565b60006020820190508181036000830152612c8381612934565b9050919050565b6000602082019050612c9f6000830184612957565b92915050565b6000612caf612cc0565b9050612cbb8282612ea5565b919050565b6000604051905090565b600067ffffffffffffffff821115612ce557612ce4612f34565b5b612cee82612f63565b9050602081019050919050565b600081519050919050565b600081519050919050565b600082825260208201905092915050565b600082825260208201905092915050565b6000612d3e82612e27565b9150612d4983612e27565b9250827fffffffffffffffffffffffffffffffffffffffffffffffffffffffffffffffff03821115612d7e57612d7d612ed6565b5b828201905092915050565b6000612d9482612e27565b9150612d9f83612e27565b925082821015612db257612db1612ed6565b5b828203905092915050565b6000612dc882612e07565b9050919050565b60008115159050919050565b60007fffffffff0000000000000000000000000000000000000000000000000000000082169050919050565b600073ffffffffffffffffffffffffffffffffffffffff82169050919050565b6000819050919050565b82818337600083830152505050565b60005b83811015612e5e578082015181840152602081019050612e43565b83811115612e6d576000848401525b50505050565b60006002820490506001821680612e8b57607f821691505b60208210811415612e9f57612e9e612f05565b5b50919050565b612eae82612f63565b810181811067ffffffffffffffff82111715612ecd57612ecc612f34565b5b80604052505050565b7f4e487b7100000000000000000000000000000000000000000000000000000000600052601160045260246000fd5b7f4e487b7100000000000000000000000000000000000000000000000000000000600052602260045260246000fd5b7f4e487b7100000000000000000000000000000000000000000000000000000000600052604160045260246000fd5b6000601f19601f8301169050919050565b7f4552433732313a207472616e7366657220746f206e6f6e20455243373231526560008201527f63656976657220696d706c656d656e7465720000000000000000000000000000602082015250565b7f4f776e61626c653a206e6577206f776e657220697320746865207a65726f206160008201527f6464726573730000000000000000000000000000000000000000000000000000602082015250565b7f4552433732313a207472616e736665722066726f6d20696e636f72726563742060008201527f6f776e6572000000000000000000000000000000000000000000000000000000602082015250565b7f4e6f206d6f7265204e465420617661696c61626c6520746f206d696e74210000600082015250565b7f4552433732313a20746f6b656e20616c7265616479206d696e74656400000000600082015250565b7f4552433732313a207472616e7366657220746f20746865207a65726f2061646460008201527f7265737300000000000000000000000000000000000000000000000000000000602082015250565b7f4552433732313a20617070726f766520746f2063616c6c657200000000000000600082015250565b7f4552433732313a206f70657261746f7220717565727920666f72206e6f6e657860008201527f697374656e7420746f6b656e0000000000000000000000000000000000000000602082015250565b7f4552433732313a20617070726f76652063616c6c6572206973206e6f74206f7760008201527f6e6572206e6f7220617070726f76656420666f7220616c6c0000000000000000602082015250565b7f4552433732313a2062616c616e636520717565727920666f7220746865207a6560008201527f726f206164647265737300000000000000000000000000000000000000000000602082015250565b7f4552433732313a206f776e657220717565727920666f72206e6f6e657869737460008201527f656e7420746f6b656e0000000000000000000000000000000000000000000000602082015250565b7f4552433732313a206d696e7420746f20746865207a65726f2061646472657373600082015250565b7f596f7520617265206e6f742077686974656c6973746564000000000000000000600082015250565b7f4552433732313a20617070726f76656420717565727920666f72206e6f6e657860008201527f697374656e7420746f6b656e0000000000000000000000000000000000000000602082015250565b7f4f776e61626c653a2063616c6c6572206973206e6f7420746865206f776e6572600082015250565b7f456163682061646472657373206d6179206f6e6c79206d696e742078204e465460008201527f7321000000000000000000000000000000000000000000000000000000000000602082015250565b7f4552433732314d657461646174613a2055524920717565727920666f72206e6f60008201527f6e6578697374656e7420746f6b656e0000000000000000000000000000000000602082015250565b7f4552433732313a20617070726f76616c20746f2063757272656e74206f776e6560008201527f7200000000000000000000000000000000000000000000000000000000000000602082015250565b7f4552433732313a207472616e736665722063616c6c6572206973206e6f74206f60008201527f776e6572206e6f7220617070726f766564000000000000000000000000000000602082015250565b7f4552433732314275726e61626c653a2063616c6c6572206973206e6f74206f7760008201527f6e6572206e6f7220617070726f76656400000000000000000000000000000000602082015250565b6134c581612dbd565b81146134d057600080fd5b50565b6134dc81612dcf565b81146134e757600080fd5b50565b6134f381612ddb565b81146134fe57600080fd5b50565b61350a81612e27565b811461351557600080fd5b5056fe697066733a2f2f516d646d5350614e4661427a56523347534644666d50374447394a6461686e4475315039344c35483434593544522f697066733a2f2f516d54396e70346a484770354d55774548574655564165397842387944784353324573435a7172637a59586275782fa264697066735822122086600b4ad7252bef73a39cbdda96d5e4820e754042fb6387f17371b46141ed6164736f6c63430008040033",
  "linkReferences": {},
  "deployedLinkReferences": {}
}