{
  "_format": "hh-sol-artifact-1",
  "contractName": "NFT",
  "sourceName": "src/backend/contracts/NFT.sol",
  "abi": [
    {
      "inputs": [
        {
          "internalType": "bytes32",
          "name": "_whitelistRoot",
          "type": "bytes32"
        }
      ],
      "stateMutability": "nonpayable",
      "type": "constructor"
    },
    {
      "inputs": [
        {
          "internalType": "address",
          "name": "operator",
          "type": "address"
        }
      ],
      "name": "OperatorNotAllowed",
      "type": "error"
    },
    {
      "anonymous": false,
      "inputs": [
        {
          "indexed": true,
          "internalType": "address",
          "name": "owner",
          "type": "address"
        },
        {
          "indexed": true,
          "internalType": "address",
          "name": "approved",
          "type": "address"
        },
        {
          "indexed": true,
          "internalType": "uint256",
          "name": "tokenId",
          "type": "uint256"
        }
      ],
      "name": "Approval",
      "type": "event"
    },
    {
      "anonymous": false,
      "inputs": [
        {
          "indexed": true,
          "internalType": "address",
          "name": "owner",
          "type": "address"
        },
        {
          "indexed": true,
          "internalType": "address",
          "name": "operator",
          "type": "address"
        },
        {
          "indexed": false,
          "internalType": "bool",
          "name": "approved",
          "type": "bool"
        }
      ],
      "name": "ApprovalForAll",
      "type": "event"
    },
    {
      "anonymous": false,
      "inputs": [
        {
          "indexed": false,
          "internalType": "address",
          "name": "user",
          "type": "address"
        }
      ],
      "name": "MintSuccessful",
      "type": "event"
    },
    {
      "anonymous": false,
      "inputs": [
        {
          "indexed": true,
          "internalType": "address",
          "name": "previousOwner",
          "type": "address"
        },
        {
          "indexed": true,
          "internalType": "address",
          "name": "newOwner",
          "type": "address"
        }
      ],
      "name": "OwnershipTransferred",
      "type": "event"
    },
    {
      "anonymous": false,
      "inputs": [
        {
          "indexed": true,
          "internalType": "address",
          "name": "from",
          "type": "address"
        },
        {
          "indexed": true,
          "internalType": "address",
          "name": "to",
          "type": "address"
        },
        {
          "indexed": true,
          "internalType": "uint256",
          "name": "tokenId",
          "type": "uint256"
        }
      ],
      "name": "Transfer",
      "type": "event"
    },
    {
      "inputs": [],
      "name": "amountMintPerAccount",
      "outputs": [
        {
          "internalType": "uint256",
          "name": "",
          "type": "uint256"
        }
      ],
      "stateMutability": "view",
      "type": "function"
    },
    {
      "inputs": [
        {
          "internalType": "address",
          "name": "to",
          "type": "address"
        },
        {
          "internalType": "uint256",
          "name": "tokenId",
          "type": "uint256"
        }
      ],
      "name": "approve",
      "outputs": [],
      "stateMutability": "nonpayable",
      "type": "function"
    },
    {
      "inputs": [
        {
          "internalType": "address",
          "name": "owner",
          "type": "address"
        }
      ],
      "name": "balanceOf",
      "outputs": [
        {
          "internalType": "uint256",
          "name": "",
          "type": "uint256"
        }
      ],
      "stateMutability": "view",
      "type": "function"
    },
    {
      "inputs": [],
      "name": "baseTokenURI",
      "outputs": [
        {
          "internalType": "string",
          "name": "",
          "type": "string"
        }
      ],
      "stateMutability": "pure",
      "type": "function"
    },
    {
      "inputs": [
        {
          "internalType": "uint256",
          "name": "tokenId",
          "type": "uint256"
        }
      ],
      "name": "burn",
      "outputs": [],
      "stateMutability": "nonpayable",
      "type": "function"
    },
    {
      "inputs": [],
      "name": "contractURI",
      "outputs": [
        {
          "internalType": "string",
          "name": "",
          "type": "string"
        }
      ],
      "stateMutability": "pure",
      "type": "function"
    },
    {
      "inputs": [],
      "name": "currentToken",
      "outputs": [
        {
          "internalType": "uint256",
          "name": "",
          "type": "uint256"
        }
      ],
      "stateMutability": "view",
      "type": "function"
    },
    {
      "inputs": [
        {
          "internalType": "uint256",
          "name": "tokenId",
          "type": "uint256"
        }
      ],
      "name": "getApproved",
      "outputs": [
        {
          "internalType": "address",
          "name": "",
          "type": "address"
        }
      ],
      "stateMutability": "view",
      "type": "function"
    },
    {
      "inputs": [
        {
          "internalType": "address",
          "name": "owner",
          "type": "address"
        },
        {
          "internalType": "address",
          "name": "operator",
          "type": "address"
        }
      ],
      "name": "isApprovedForAll",
      "outputs": [
        {
          "internalType": "bool",
          "name": "",
          "type": "bool"
        }
      ],
      "stateMutability": "view",
      "type": "function"
    },
    {
      "inputs": [
        {
          "internalType": "bytes32[]",
          "name": "_proof",
          "type": "bytes32[]"
        },
        {
          "internalType": "bytes32",
          "name": "_leaf",
          "type": "bytes32"
        }
      ],
      "name": "isValid",
      "outputs": [
        {
          "internalType": "bool",
          "name": "",
          "type": "bool"
        }
      ],
      "stateMutability": "view",
      "type": "function"
    },
    {
      "inputs": [],
      "name": "max_supply",
      "outputs": [
        {
          "internalType": "uint256",
          "name": "",
          "type": "uint256"
        }
      ],
      "stateMutability": "view",
      "type": "function"
    },
    {
      "inputs": [
        {
          "internalType": "bytes32[]",
          "name": "_proof",
          "type": "bytes32[]"
        }
      ],
      "name": "mint",
      "outputs": [],
      "stateMutability": "nonpayable",
      "type": "function"
    },
    {
      "inputs": [],
      "name": "name",
      "outputs": [
        {
          "internalType": "string",
          "name": "",
          "type": "string"
        }
      ],
      "stateMutability": "view",
      "type": "function"
    },
    {
      "inputs": [],
      "name": "owner",
      "outputs": [
        {
          "internalType": "address",
          "name": "",
          "type": "address"
        }
      ],
      "stateMutability": "view",
      "type": "function"
    },
    {
      "inputs": [
        {
          "internalType": "uint256",
          "name": "tokenId",
          "type": "uint256"
        }
      ],
      "name": "ownerOf",
      "outputs": [
        {
          "internalType": "address",
          "name": "",
          "type": "address"
        }
      ],
      "stateMutability": "view",
      "type": "function"
    },
    {
      "inputs": [],
      "name": "publicSaleEnabled",
      "outputs": [
        {
          "internalType": "bool",
          "name": "",
          "type": "bool"
        }
      ],
      "stateMutability": "view",
      "type": "function"
    },
    {
      "inputs": [],
      "name": "renounceOwnership",
      "outputs": [],
      "stateMutability": "nonpayable",
      "type": "function"
    },
    {
      "inputs": [
        {
          "internalType": "address",
          "name": "from",
          "type": "address"
        },
        {
          "internalType": "address",
          "name": "to",
          "type": "address"
        },
        {
          "internalType": "uint256",
          "name": "tokenId",
          "type": "uint256"
        }
      ],
      "name": "safeTransferFrom",
      "outputs": [],
      "stateMutability": "nonpayable",
      "type": "function"
    },
    {
      "inputs": [
        {
          "internalType": "address",
          "name": "from",
          "type": "address"
        },
        {
          "internalType": "address",
          "name": "to",
          "type": "address"
        },
        {
          "internalType": "uint256",
          "name": "tokenId",
          "type": "uint256"
        },
        {
          "internalType": "bytes",
          "name": "data",
          "type": "bytes"
        }
      ],
      "name": "safeTransferFrom",
      "outputs": [],
      "stateMutability": "nonpayable",
      "type": "function"
    },
    {
      "inputs": [
        {
          "internalType": "uint256",
          "name": "_amountMintPerAccount",
          "type": "uint256"
        }
      ],
      "name": "setAmountMintPerAccount",
      "outputs": [],
      "stateMutability": "nonpayable",
      "type": "function"
    },
    {
      "inputs": [
        {
          "internalType": "address",
          "name": "operator",
          "type": "address"
        },
        {
          "internalType": "bool",
          "name": "approved",
          "type": "bool"
        }
      ],
      "name": "setApprovalForAll",
      "outputs": [],
      "stateMutability": "nonpayable",
      "type": "function"
    },
    {
      "inputs": [
        {
          "internalType": "bool",
          "name": "_state",
          "type": "bool"
        }
      ],
      "name": "setPublicSaleEnabled",
      "outputs": [],
      "stateMutability": "nonpayable",
      "type": "function"
    },
    {
      "inputs": [
        {
          "internalType": "bytes32",
          "name": "_whitelistRoot",
          "type": "bytes32"
        }
      ],
      "name": "setWhitelistRoot",
      "outputs": [],
      "stateMutability": "nonpayable",
      "type": "function"
    },
    {
      "inputs": [
        {
          "internalType": "bytes4",
          "name": "interfaceId",
          "type": "bytes4"
        }
      ],
      "name": "supportsInterface",
      "outputs": [
        {
          "internalType": "bool",
          "name": "",
          "type": "bool"
        }
      ],
      "stateMutability": "view",
      "type": "function"
    },
    {
      "inputs": [],
      "name": "symbol",
      "outputs": [
        {
          "internalType": "string",
          "name": "",
          "type": "string"
        }
      ],
      "stateMutability": "view",
      "type": "function"
    },
    {
      "inputs": [
        {
          "internalType": "uint256",
          "name": "_tokenId",
          "type": "uint256"
        }
      ],
      "name": "tokenURI",
      "outputs": [
        {
          "internalType": "string",
          "name": "",
          "type": "string"
        }
      ],
      "stateMutability": "view",
      "type": "function"
    },
    {
      "inputs": [
        {
          "internalType": "address",
          "name": "from",
          "type": "address"
        },
        {
          "internalType": "address",
          "name": "to",
          "type": "address"
        },
        {
          "internalType": "uint256",
          "name": "tokenId",
          "type": "uint256"
        }
      ],
      "name": "transferFrom",
      "outputs": [],
      "stateMutability": "nonpayable",
      "type": "function"
    },
    {
      "inputs": [
        {
          "internalType": "address",
          "name": "newOwner",
          "type": "address"
        }
      ],
      "name": "transferOwnership",
      "outputs": [],
      "stateMutability": "nonpayable",
      "type": "function"
    },
    {
      "inputs": [],
      "name": "uriPrefix",
      "outputs": [
        {
          "internalType": "string",
          "name": "",
          "type": "string"
        }
      ],
      "stateMutability": "view",
      "type": "function"
    },
    {
      "inputs": [],
      "name": "uriSuffix",
      "outputs": [
        {
          "internalType": "string",
          "name": "",
          "type": "string"
        }
      ],
      "stateMutability": "view",
      "type": "function"
    },
    {
      "inputs": [],
      "name": "whitelistRoot",
      "outputs": [
        {
          "internalType": "bytes32",
          "name": "",
          "type": "bytes32"
        }
      ],
      "stateMutability": "view",
      "type": "function"
    },
    {
      "inputs": [],
      "name": "withdraw",
      "outputs": [],
      "stateMutability": "nonpayable",
      "type": "function"
    }
  ],
  "bytecode": "0x608060405260405180602001604052806000815250600790805190602001906200002b92919062000465565b506040518060400160405280600581526020017f2e6a736f6e000000000000000000000000000000000000000000000000000000815250600890805190602001906200007992919062000465565b506113886009556001600a556000600b553480156200009757600080fd5b5060405162004594380380620045948339818101604052810190620000bd919062000555565b733cc6cdda760b79bafa08df41ecfa224f810dceb660016040518060400160405280601f81526020017f4f72652052616964202d20456c73652045786368616e6765205469636b6574008152506040518060400160405280600581526020017f454c53455400000000000000000000000000000000000000000000000000000081525062000160620001546200039960201b60201c565b620003a160201b60201c565b81600190805190602001906200017892919062000465565b5080600290805190602001906200019192919062000465565b50505060006daaeb6d7670e522a718067333cd4e73ffffffffffffffffffffffffffffffffffffffff163b1115620003895780156200024f576daaeb6d7670e522a718067333cd4e73ffffffffffffffffffffffffffffffffffffffff16637d3e3dbe30846040518363ffffffff1660e01b815260040162000215929190620005cc565b600060405180830381600087803b1580156200023057600080fd5b505af115801562000245573d6000803e3d6000fd5b5050505062000388565b600073ffffffffffffffffffffffffffffffffffffffff168273ffffffffffffffffffffffffffffffffffffffff161462000309576daaeb6d7670e522a718067333cd4e73ffffffffffffffffffffffffffffffffffffffff1663a0af290330846040518363ffffffff1660e01b8152600401620002cf929190620005cc565b600060405180830381600087803b158015620002ea57600080fd5b505af1158015620002ff573d6000803e3d6000fd5b5050505062000387565b6daaeb6d7670e522a718067333cd4e73ffffffffffffffffffffffffffffffffffffffff16634420e486306040518263ffffffff1660e01b8152600401620003529190620005f9565b600060405180830381600087803b1580156200036d57600080fd5b505af115801562000382573d6000803e3d6000fd5b505050505b5b5b505080600c81905550506200067a565b600033905090565b60008060009054906101000a900473ffffffffffffffffffffffffffffffffffffffff169050816000806101000a81548173ffffffffffffffffffffffffffffffffffffffff021916908373ffffffffffffffffffffffffffffffffffffffff1602179055508173ffffffffffffffffffffffffffffffffffffffff168173ffffffffffffffffffffffffffffffffffffffff167f8be0079c531659141344cd1fd0a4f28419497f9722a3daafe3b4186f6b6457e060405160405180910390a35050565b828054620004739062000645565b90600052602060002090601f016020900481019282620004975760008555620004e3565b82601f10620004b257805160ff1916838001178555620004e3565b82800160010185558215620004e3579182015b82811115620004e2578251825591602001919060010190620004c5565b5b509050620004f29190620004f6565b5090565b5b8082111562000511576000816000905550600101620004f7565b5090565b600080fd5b6000819050919050565b6200052f816200051a565b81146200053b57600080fd5b50565b6000815190506200054f8162000524565b92915050565b6000602082840312156200056e576200056d62000515565b5b60006200057e848285016200053e565b91505092915050565b600073ffffffffffffffffffffffffffffffffffffffff82169050919050565b6000620005b48262000587565b9050919050565b620005c681620005a7565b82525050565b6000604082019050620005e36000830185620005bb565b620005f26020830184620005bb565b9392505050565b6000602082019050620006106000830184620005bb565b92915050565b7f4e487b7100000000000000000000000000000000000000000000000000000000600052602260045260246000fd5b600060028204905060018216806200065e57607f821691505b60208210810362000674576200067362000616565b5b50919050565b613f0a806200068a6000396000f3fe608060405234801561001057600080fd5b50600436106101f05760003560e01c8063836c081d1161010f578063b88d4fde116100a2578063e8a3d48511610071578063e8a3d4851461056f578063e985e9c51461058d578063f2fde38b146105bd578063f5aa406d146105d9576101f0565b8063b88d4fde146104d5578063b8a20ed0146104f1578063c87b56dd14610521578063d547cfb714610551576101f0565b806395d89b41116100de57806395d89b4114610461578063a22cb4651461047f578063a827b5ff1461049b578063b77a147b146104b9576101f0565b8063836c081d146103eb5780638720fbef146104095780638a333b50146104255780638da5cb5b14610443576101f0565b80633ccfd60b1161018757806362b99ad41161015657806362b99ad4146103635780636352211e1461038157806370a08231146103b1578063715018a6146103e1576101f0565b80633ccfd60b1461030357806342842e0e1461030d57806342966c68146103295780635503a0e814610345576101f0565b806311296660116101c3578063112966601461028f57806323b872dd146102ab5780632ab91bba146102c7578063386bfc98146102e5576101f0565b806301ffc9a7146101f557806306fdde0314610225578063081812fc14610243578063095ea7b314610273575b600080fd5b61020f600480360381019061020a91906129d1565b6105f5565b60405161021c9190612a19565b60405180910390f35b61022d6106d7565b60405161023a9190612acd565b60405180910390f35b61025d60048036038101906102589190612b25565b610769565b60405161026a9190612b93565b60405180910390f35b61028d60048036038101906102889190612bda565b6107af565b005b6102a960048036038101906102a49190612b25565b6108c6565b005b6102c560048036038101906102c09190612c1a565b6108d8565b005b6102cf610aba565b6040516102dc9190612a19565b60405180910390f35b6102ed610acd565b6040516102fa9190612c86565b60405180910390f35b61030b610ad3565b005b61032760048036038101906103229190612c1a565b610b24565b005b610343600480360381019061033e9190612b25565b610d06565b005b61034d610d62565b60405161035a9190612acd565b60405180910390f35b61036b610df0565b6040516103789190612acd565b60405180910390f35b61039b60048036038101906103969190612b25565b610e7e565b6040516103a89190612b93565b60405180910390f35b6103cb60048036038101906103c69190612ca1565b610f04565b6040516103d89190612cdd565b60405180910390f35b6103e9610fbb565b005b6103f3610fcf565b6040516104009190612cdd565b60405180910390f35b610423600480360381019061041e9190612d24565b610fd5565b005b61042d610ffa565b60405161043a9190612cdd565b60405180910390f35b61044b611000565b6040516104589190612b93565b60405180910390f35b610469611029565b6040516104769190612acd565b60405180910390f35b61049960048036038101906104949190612d51565b6110bb565b005b6104a36110d1565b6040516104b09190612cdd565b60405180910390f35b6104d360048036038101906104ce9190612f05565b6110d7565b005b6104ef60048036038101906104ea9190613003565b61124f565b005b61050b60048036038101906105069190613086565b611434565b6040516105189190612a19565b60405180910390f35b61053b60048036038101906105369190612b25565b61144b565b6040516105489190612acd565b60405180910390f35b6105596114f5565b6040516105669190612acd565b60405180910390f35b610577611504565b6040516105849190612acd565b60405180910390f35b6105a760048036038101906105a291906130e2565b611524565b6040516105b49190612a19565b60405180910390f35b6105d760048036038101906105d29190612ca1565b6115b8565b005b6105f360048036038101906105ee9190613122565b61163b565b005b60007f80ac58cd000000000000000000000000000000000000000000000000000000007bffffffffffffffffffffffffffffffffffffffffffffffffffffffff1916827bffffffffffffffffffffffffffffffffffffffffffffffffffffffff191614806106c057507f5b5e139f000000000000000000000000000000000000000000000000000000007bffffffffffffffffffffffffffffffffffffffffffffffffffffffff1916827bffffffffffffffffffffffffffffffffffffffffffffffffffffffff1916145b806106d057506106cf8261164d565b5b9050919050565b6060600180546106e69061317e565b80601f01602080910402602001604051908101604052809291908181526020018280546107129061317e565b801561075f5780601f106107345761010080835404028352916020019161075f565b820191906000526020600020905b81548152906001019060200180831161074257829003601f168201915b5050505050905090565b6000610774826116b7565b6005600083815260200190815260200160002060009054906101000a900473ffffffffffffffffffffffffffffffffffffffff169050919050565b60006107ba82610e7e565b90508073ffffffffffffffffffffffffffffffffffffffff168373ffffffffffffffffffffffffffffffffffffffff160361082a576040517f08c379a000000000000000000000000000000000000000000000000000000000815260040161082190613221565b60405180910390fd5b8073ffffffffffffffffffffffffffffffffffffffff16610849611702565b73ffffffffffffffffffffffffffffffffffffffff161480610878575061087781610872611702565b611524565b5b6108b7576040517f08c379a00000000000000000000000000000000000000000000000000000000081526004016108ae906132b3565b60405180910390fd5b6108c1838361170a565b505050565b6108ce6117c3565b80600a8190555050565b8260006daaeb6d7670e522a718067333cd4e73ffffffffffffffffffffffffffffffffffffffff163b1115610aa8573373ffffffffffffffffffffffffffffffffffffffff168173ffffffffffffffffffffffffffffffffffffffff160361094a57610945848484611841565b610ab4565b6daaeb6d7670e522a718067333cd4e73ffffffffffffffffffffffffffffffffffffffff1663c617113430336040518363ffffffff1660e01b81526004016109939291906132d3565b602060405180830381865afa1580156109b0573d6000803e3d6000fd5b505050506040513d601f19601f820116820180604052508101906109d49190613311565b8015610a6657506daaeb6d7670e522a718067333cd4e73ffffffffffffffffffffffffffffffffffffffff1663c617113430836040518363ffffffff1660e01b8152600401610a249291906132d3565b602060405180830381865afa158015610a41573d6000803e3d6000fd5b505050506040513d601f19601f82011682018060405250810190610a659190613311565b5b610aa757336040517fede71dcc000000000000000000000000000000000000000000000000000000008152600401610a9e9190612b93565b60405180910390fd5b5b610ab3848484611841565b5b50505050565b600d60009054906101000a900460ff1681565b600c5481565b610adb6117c3565b3373ffffffffffffffffffffffffffffffffffffffff166108fc479081150290604051600060405180830381858888f19350505050158015610b21573d6000803e3d6000fd5b50565b8260006daaeb6d7670e522a718067333cd4e73ffffffffffffffffffffffffffffffffffffffff163b1115610cf4573373ffffffffffffffffffffffffffffffffffffffff168173ffffffffffffffffffffffffffffffffffffffff1603610b9657610b918484846118a1565b610d00565b6daaeb6d7670e522a718067333cd4e73ffffffffffffffffffffffffffffffffffffffff1663c617113430336040518363ffffffff1660e01b8152600401610bdf9291906132d3565b602060405180830381865afa158015610bfc573d6000803e3d6000fd5b505050506040513d601f19601f82011682018060405250810190610c209190613311565b8015610cb257506daaeb6d7670e522a718067333cd4e73ffffffffffffffffffffffffffffffffffffffff1663c617113430836040518363ffffffff1660e01b8152600401610c709291906132d3565b602060405180830381865afa158015610c8d573d6000803e3d6000fd5b505050506040513d601f19601f82011682018060405250810190610cb19190613311565b5b610cf357336040517fede71dcc000000000000000000000000000000000000000000000000000000008152600401610cea9190612b93565b60405180910390fd5b5b610cff8484846118a1565b5b50505050565b610d17610d11611702565b826118c1565b610d56576040517f08c379a0000000000000000000000000000000000000000000000000000000008152600401610d4d906133b0565b60405180910390fd5b610d5f81611956565b50565b60088054610d6f9061317e565b80601f0160208091040260200160405190810160405280929190818152602001828054610d9b9061317e565b8015610de85780601f10610dbd57610100808354040283529160200191610de8565b820191906000526020600020905b815481529060010190602001808311610dcb57829003601f168201915b505050505081565b60078054610dfd9061317e565b80601f0160208091040260200160405190810160405280929190818152602001828054610e299061317e565b8015610e765780601f10610e4b57610100808354040283529160200191610e76565b820191906000526020600020905b815481529060010190602001808311610e5957829003601f168201915b505050505081565b600080610e8a83611aa4565b9050600073ffffffffffffffffffffffffffffffffffffffff168173ffffffffffffffffffffffffffffffffffffffff1603610efb576040517f08c379a0000000000000000000000000000000000000000000000000000000008152600401610ef29061341c565b60405180910390fd5b80915050919050565b60008073ffffffffffffffffffffffffffffffffffffffff168273ffffffffffffffffffffffffffffffffffffffff1603610f74576040517f08c379a0000000000000000000000000000000000000000000000000000000008152600401610f6b906134ae565b60405180910390fd5b600460008373ffffffffffffffffffffffffffffffffffffffff1673ffffffffffffffffffffffffffffffffffffffff168152602001908152602001600020549050919050565b610fc36117c3565b610fcd6000611ae1565b565b600b5481565b610fdd6117c3565b80600d60006101000a81548160ff02191690831515021790555050565b60095481565b60008060009054906101000a900473ffffffffffffffffffffffffffffffffffffffff16905090565b6060600280546110389061317e565b80601f01602080910402602001604051908101604052809291908181526020018280546110649061317e565b80156110b15780601f10611086576101008083540402835291602001916110b1565b820191906000526020600020905b81548152906001019060200180831161109457829003601f168201915b5050505050905090565b6110cd6110c6611702565b8383611ba5565b5050565b600a5481565b600a546110e333610f04565b10611123576040517f08c379a000000000000000000000000000000000000000000000000000000000815260040161111a90613540565b60405180910390fd5b600954600b5410611169576040517f08c379a0000000000000000000000000000000000000000000000000000000008152600401611160906135ac565b60405180910390fd5b600d60009054906101000a900460ff16806111b057506111af81336040516020016111949190613614565b60405160208183030381529060405280519060200120611434565b5b6111ef576040517f08c379a00000000000000000000000000000000000000000000000000000000081526004016111e69061367b565b60405180910390fd5b6001600b600082825461120291906136ca565b9250508190555061121533600b54611d11565b7ff5535ccd9f40eb4bc73fac8710dbb2effbf3329da83f62b35d9aa88161bb85ca336040516112449190612b93565b60405180910390a150565b8360006daaeb6d7670e522a718067333cd4e73ffffffffffffffffffffffffffffffffffffffff163b1115611420573373ffffffffffffffffffffffffffffffffffffffff168173ffffffffffffffffffffffffffffffffffffffff16036112c2576112bd85858585611d2f565b61142d565b6daaeb6d7670e522a718067333cd4e73ffffffffffffffffffffffffffffffffffffffff1663c617113430336040518363ffffffff1660e01b815260040161130b9291906132d3565b602060405180830381865afa158015611328573d6000803e3d6000fd5b505050506040513d601f19601f8201168201806040525081019061134c9190613311565b80156113de57506daaeb6d7670e522a718067333cd4e73ffffffffffffffffffffffffffffffffffffffff1663c617113430836040518363ffffffff1660e01b815260040161139c9291906132d3565b602060405180830381865afa1580156113b9573d6000803e3d6000fd5b505050506040513d601f19601f820116820180604052508101906113dd9190613311565b5b61141f57336040517fede71dcc0000000000000000000000000000000000000000000000000000000081526004016114169190612b93565b60405180910390fd5b5b61142c85858585611d2f565b5b5050505050565b600061144383600c5484611d91565b905092915050565b606061145682611da8565b611495576040517f08c379a000000000000000000000000000000000000000000000000000000000815260040161148c90613792565b60405180910390fd5b600061149f611de9565b905060008151116114bf57604051806020016040528060008152506114ed565b806114c984611e09565b60086040516020016114dd93929190613882565b6040516020818303038152906040525b915050919050565b60606114ff611de9565b905090565b6060604051806060016040528060368152602001613e9f60369139905090565b6000600660008473ffffffffffffffffffffffffffffffffffffffff1673ffffffffffffffffffffffffffffffffffffffff16815260200190815260200160002060008373ffffffffffffffffffffffffffffffffffffffff1673ffffffffffffffffffffffffffffffffffffffff16815260200190815260200160002060009054906101000a900460ff16905092915050565b6115c06117c3565b600073ffffffffffffffffffffffffffffffffffffffff168173ffffffffffffffffffffffffffffffffffffffff160361162f576040517f08c379a000000000000000000000000000000000000000000000000000000000815260040161162690613925565b60405180910390fd5b61163881611ae1565b50565b6116436117c3565b80600c8190555050565b60007f01ffc9a7000000000000000000000000000000000000000000000000000000007bffffffffffffffffffffffffffffffffffffffffffffffffffffffff1916827bffffffffffffffffffffffffffffffffffffffffffffffffffffffff1916149050919050565b6116c081611da8565b6116ff576040517f08c379a00000000000000000000000000000000000000000000000000000000081526004016116f69061341c565b60405180910390fd5b50565b600033905090565b816005600083815260200190815260200160002060006101000a81548173ffffffffffffffffffffffffffffffffffffffff021916908373ffffffffffffffffffffffffffffffffffffffff160217905550808273ffffffffffffffffffffffffffffffffffffffff1661177d83610e7e565b73ffffffffffffffffffffffffffffffffffffffff167f8c5be1e5ebec7d5bd14f71427d1e84f3dd0314c0f7b2291e5b200ac8c7c3b92560405160405180910390a45050565b6117cb611702565b73ffffffffffffffffffffffffffffffffffffffff166117e9611000565b73ffffffffffffffffffffffffffffffffffffffff161461183f576040517f08c379a000000000000000000000000000000000000000000000000000000000815260040161183690613991565b60405180910390fd5b565b61185261184c611702565b826118c1565b611891576040517f08c379a0000000000000000000000000000000000000000000000000000000008152600401611888906133b0565b60405180910390fd5b61189c838383611ed7565b505050565b6118bc8383836040518060200160405280600081525061124f565b505050565b6000806118cd83610e7e565b90508073ffffffffffffffffffffffffffffffffffffffff168473ffffffffffffffffffffffffffffffffffffffff16148061190f575061190e8185611524565b5b8061194d57508373ffffffffffffffffffffffffffffffffffffffff1661193584610769565b73ffffffffffffffffffffffffffffffffffffffff16145b91505092915050565b600061196182610e7e565b90506119718160008460016121d0565b61197a82610e7e565b90506005600083815260200190815260200160002060006101000a81549073ffffffffffffffffffffffffffffffffffffffff02191690556001600460008373ffffffffffffffffffffffffffffffffffffffff1673ffffffffffffffffffffffffffffffffffffffff168152602001908152602001600020600082825403925050819055506003600083815260200190815260200160002060006101000a81549073ffffffffffffffffffffffffffffffffffffffff021916905581600073ffffffffffffffffffffffffffffffffffffffff168273ffffffffffffffffffffffffffffffffffffffff167fddf252ad1be2c89b69c2b068fc378daa952ba7f163c4a11628f55a4df523b3ef60405160405180910390a4611aa08160008460016122f6565b5050565b60006003600083815260200190815260200160002060009054906101000a900473ffffffffffffffffffffffffffffffffffffffff169050919050565b60008060009054906101000a900473ffffffffffffffffffffffffffffffffffffffff169050816000806101000a81548173ffffffffffffffffffffffffffffffffffffffff021916908373ffffffffffffffffffffffffffffffffffffffff1602179055508173ffffffffffffffffffffffffffffffffffffffff168173ffffffffffffffffffffffffffffffffffffffff167f8be0079c531659141344cd1fd0a4f28419497f9722a3daafe3b4186f6b6457e060405160405180910390a35050565b8173ffffffffffffffffffffffffffffffffffffffff168373ffffffffffffffffffffffffffffffffffffffff1603611c13576040517f08c379a0000000000000000000000000000000000000000000000000000000008152600401611c0a906139fd565b60405180910390fd5b80600660008573ffffffffffffffffffffffffffffffffffffffff1673ffffffffffffffffffffffffffffffffffffffff16815260200190815260200160002060008473ffffffffffffffffffffffffffffffffffffffff1673ffffffffffffffffffffffffffffffffffffffff16815260200190815260200160002060006101000a81548160ff0219169083151502179055508173ffffffffffffffffffffffffffffffffffffffff168373ffffffffffffffffffffffffffffffffffffffff167f17307eab39ab6107e8899845ad3d59bd9653f200f220920489ca2b5937696c3183604051611d049190612a19565b60405180910390a3505050565b611d2b8282604051806020016040528060008152506122fc565b5050565b611d40611d3a611702565b836118c1565b611d7f576040517f08c379a0000000000000000000000000000000000000000000000000000000008152600401611d76906133b0565b60405180910390fd5b611d8b84848484612357565b50505050565b600082611d9e85846123b3565b1490509392505050565b60008073ffffffffffffffffffffffffffffffffffffffff16611dca83611aa4565b73ffffffffffffffffffffffffffffffffffffffff1614159050919050565b6060604051806060016040528060368152602001613e6960369139905090565b606060006001611e1884612409565b01905060008167ffffffffffffffff811115611e3757611e36612d96565b5b6040519080825280601f01601f191660200182016040528015611e695781602001600182028036833780820191505090505b509050600082602001820190505b600115611ecc578080600190039150507f3031323334353637383961626364656600000000000000000000000000000000600a86061a8153600a8581611ec057611ebf613a1d565b5b04945060008503611e77575b819350505050919050565b8273ffffffffffffffffffffffffffffffffffffffff16611ef782610e7e565b73ffffffffffffffffffffffffffffffffffffffff1614611f4d576040517f08c379a0000000000000000000000000000000000000000000000000000000008152600401611f4490613abe565b60405180910390fd5b600073ffffffffffffffffffffffffffffffffffffffff168273ffffffffffffffffffffffffffffffffffffffff1603611fbc576040517f08c379a0000000000000000000000000000000000000000000000000000000008152600401611fb390613b50565b60405180910390fd5b611fc983838360016121d0565b8273ffffffffffffffffffffffffffffffffffffffff16611fe982610e7e565b73ffffffffffffffffffffffffffffffffffffffff161461203f576040517f08c379a000000000000000000000000000000000000000000000000000000000815260040161203690613abe565b60405180910390fd5b6005600082815260200190815260200160002060006101000a81549073ffffffffffffffffffffffffffffffffffffffff02191690556001600460008573ffffffffffffffffffffffffffffffffffffffff1673ffffffffffffffffffffffffffffffffffffffff168152602001908152602001600020600082825403925050819055506001600460008473ffffffffffffffffffffffffffffffffffffffff1673ffffffffffffffffffffffffffffffffffffffff16815260200190815260200160002060008282540192505081905550816003600083815260200190815260200160002060006101000a81548173ffffffffffffffffffffffffffffffffffffffff021916908373ffffffffffffffffffffffffffffffffffffffff160217905550808273ffffffffffffffffffffffffffffffffffffffff168473ffffffffffffffffffffffffffffffffffffffff167fddf252ad1be2c89b69c2b068fc378daa952ba7f163c4a11628f55a4df523b3ef60405160405180910390a46121cb83838360016122f6565b505050565b60018111156122f057600073ffffffffffffffffffffffffffffffffffffffff168473ffffffffffffffffffffffffffffffffffffffff16146122645780600460008673ffffffffffffffffffffffffffffffffffffffff1673ffffffffffffffffffffffffffffffffffffffff168152602001908152602001600020600082825461225c9190613b70565b925050819055505b600073ffffffffffffffffffffffffffffffffffffffff168373ffffffffffffffffffffffffffffffffffffffff16146122ef5780600460008573ffffffffffffffffffffffffffffffffffffffff1673ffffffffffffffffffffffffffffffffffffffff16815260200190815260200160002060008282546122e791906136ca565b925050819055505b5b50505050565b50505050565b612306838361255c565b6123136000848484612779565b612352576040517f08c379a000000000000000000000000000000000000000000000000000000000815260040161234990613c16565b60405180910390fd5b505050565b612362848484611ed7565b61236e84848484612779565b6123ad576040517f08c379a00000000000000000000000000000000000000000000000000000000081526004016123a490613c16565b60405180910390fd5b50505050565b60008082905060005b84518110156123fe576123e9828683815181106123dc576123db613c36565b5b6020026020010151612900565b915080806123f690613c65565b9150506123bc565b508091505092915050565b600080600090507a184f03e93ff9f4daa797ed6e38ed64bf6a1f0100000000000000008310612467577a184f03e93ff9f4daa797ed6e38ed64bf6a1f010000000000000000838161245d5761245c613a1d565b5b0492506040810190505b6d04ee2d6d415b85acef810000000083106124a4576d04ee2d6d415b85acef8100000000838161249a57612499613a1d565b5b0492506020810190505b662386f26fc1000083106124d357662386f26fc1000083816124c9576124c8613a1d565b5b0492506010810190505b6305f5e10083106124fc576305f5e10083816124f2576124f1613a1d565b5b0492506008810190505b612710831061252157612710838161251757612516613a1d565b5b0492506004810190505b60648310612544576064838161253a57612539613a1d565b5b0492506002810190505b600a8310612553576001810190505b80915050919050565b600073ffffffffffffffffffffffffffffffffffffffff168273ffffffffffffffffffffffffffffffffffffffff16036125cb576040517f08c379a00000000000000000000000000000000000000000000000000000000081526004016125c290613cf9565b60405180910390fd5b6125d481611da8565b15612614576040517f08c379a000000000000000000000000000000000000000000000000000000000815260040161260b90613d65565b60405180910390fd5b6126226000838360016121d0565b61262b81611da8565b1561266b576040517f08c379a000000000000000000000000000000000000000000000000000000000815260040161266290613d65565b60405180910390fd5b6001600460008473ffffffffffffffffffffffffffffffffffffffff1673ffffffffffffffffffffffffffffffffffffffff16815260200190815260200160002060008282540192505081905550816003600083815260200190815260200160002060006101000a81548173ffffffffffffffffffffffffffffffffffffffff021916908373ffffffffffffffffffffffffffffffffffffffff160217905550808273ffffffffffffffffffffffffffffffffffffffff16600073ffffffffffffffffffffffffffffffffffffffff167fddf252ad1be2c89b69c2b068fc378daa952ba7f163c4a11628f55a4df523b3ef60405160405180910390a46127756000838360016122f6565b5050565b600061279a8473ffffffffffffffffffffffffffffffffffffffff1661292b565b156128f3578373ffffffffffffffffffffffffffffffffffffffff1663150b7a026127c3611702565b8786866040518563ffffffff1660e01b81526004016127e59493929190613dda565b6020604051808303816000875af192505050801561282157506040513d601f19601f8201168201806040525081019061281e9190613e3b565b60015b6128a3573d8060008114612851576040519150601f19603f3d011682016040523d82523d6000602084013e612856565b606091505b50600081510361289b576040517f08c379a000000000000000000000000000000000000000000000000000000000815260040161289290613c16565b60405180910390fd5b805181602001fd5b63150b7a0260e01b7bffffffffffffffffffffffffffffffffffffffffffffffffffffffff1916817bffffffffffffffffffffffffffffffffffffffffffffffffffffffff1916149150506128f8565b600190505b949350505050565b600081831061291857612913828461294e565b612923565b612922838361294e565b5b905092915050565b6000808273ffffffffffffffffffffffffffffffffffffffff163b119050919050565b600082600052816020526040600020905092915050565b6000604051905090565b600080fd5b600080fd5b60007fffffffff0000000000000000000000000000000000000000000000000000000082169050919050565b6129ae81612979565b81146129b957600080fd5b50565b6000813590506129cb816129a5565b92915050565b6000602082840312156129e7576129e661296f565b5b60006129f5848285016129bc565b91505092915050565b60008115159050919050565b612a13816129fe565b82525050565b6000602082019050612a2e6000830184612a0a565b92915050565b600081519050919050565b600082825260208201905092915050565b60005b83811015612a6e578082015181840152602081019050612a53565b83811115612a7d576000848401525b50505050565b6000601f19601f8301169050919050565b6000612a9f82612a34565b612aa98185612a3f565b9350612ab9818560208601612a50565b612ac281612a83565b840191505092915050565b60006020820190508181036000830152612ae78184612a94565b905092915050565b6000819050919050565b612b0281612aef565b8114612b0d57600080fd5b50565b600081359050612b1f81612af9565b92915050565b600060208284031215612b3b57612b3a61296f565b5b6000612b4984828501612b10565b91505092915050565b600073ffffffffffffffffffffffffffffffffffffffff82169050919050565b6000612b7d82612b52565b9050919050565b612b8d81612b72565b82525050565b6000602082019050612ba86000830184612b84565b92915050565b612bb781612b72565b8114612bc257600080fd5b50565b600081359050612bd481612bae565b92915050565b60008060408385031215612bf157612bf061296f565b5b6000612bff85828601612bc5565b9250506020612c1085828601612b10565b9150509250929050565b600080600060608486031215612c3357612c3261296f565b5b6000612c4186828701612bc5565b9350506020612c5286828701612bc5565b9250506040612c6386828701612b10565b9150509250925092565b6000819050919050565b612c8081612c6d565b82525050565b6000602082019050612c9b6000830184612c77565b92915050565b600060208284031215612cb757612cb661296f565b5b6000612cc584828501612bc5565b91505092915050565b612cd781612aef565b82525050565b6000602082019050612cf26000830184612cce565b92915050565b612d01816129fe565b8114612d0c57600080fd5b50565b600081359050612d1e81612cf8565b92915050565b600060208284031215612d3a57612d3961296f565b5b6000612d4884828501612d0f565b91505092915050565b60008060408385031215612d6857612d6761296f565b5b6000612d7685828601612bc5565b9250506020612d8785828601612d0f565b9150509250929050565b600080fd5b7f4e487b7100000000000000000000000000000000000000000000000000000000600052604160045260246000fd5b612dce82612a83565b810181811067ffffffffffffffff82111715612ded57612dec612d96565b5b80604052505050565b6000612e00612965565b9050612e0c8282612dc5565b919050565b600067ffffffffffffffff821115612e2c57612e2b612d96565b5b602082029050602081019050919050565b600080fd5b612e4b81612c6d565b8114612e5657600080fd5b50565b600081359050612e6881612e42565b92915050565b6000612e81612e7c84612e11565b612df6565b90508083825260208201905060208402830185811115612ea457612ea3612e3d565b5b835b81811015612ecd5780612eb98882612e59565b845260208401935050602081019050612ea6565b5050509392505050565b600082601f830112612eec57612eeb612d91565b5b8135612efc848260208601612e6e565b91505092915050565b600060208284031215612f1b57612f1a61296f565b5b600082013567ffffffffffffffff811115612f3957612f38612974565b5b612f4584828501612ed7565b91505092915050565b600080fd5b600067ffffffffffffffff821115612f6e57612f6d612d96565b5b612f7782612a83565b9050602081019050919050565b82818337600083830152505050565b6000612fa6612fa184612f53565b612df6565b905082815260208101848484011115612fc257612fc1612f4e565b5b612fcd848285612f84565b509392505050565b600082601f830112612fea57612fe9612d91565b5b8135612ffa848260208601612f93565b91505092915050565b6000806000806080858703121561301d5761301c61296f565b5b600061302b87828801612bc5565b945050602061303c87828801612bc5565b935050604061304d87828801612b10565b925050606085013567ffffffffffffffff81111561306e5761306d612974565b5b61307a87828801612fd5565b91505092959194509250565b6000806040838503121561309d5761309c61296f565b5b600083013567ffffffffffffffff8111156130bb576130ba612974565b5b6130c785828601612ed7565b92505060206130d885828601612e59565b9150509250929050565b600080604083850312156130f9576130f861296f565b5b600061310785828601612bc5565b925050602061311885828601612bc5565b9150509250929050565b6000602082840312156131385761313761296f565b5b600061314684828501612e59565b91505092915050565b7f4e487b7100000000000000000000000000000000000000000000000000000000600052602260045260246000fd5b6000600282049050600182168061319657607f821691505b6020821081036131a9576131a861314f565b5b50919050565b7f4552433732313a20617070726f76616c20746f2063757272656e74206f776e6560008201527f7200000000000000000000000000000000000000000000000000000000000000602082015250565b600061320b602183612a3f565b9150613216826131af565b604082019050919050565b6000602082019050818103600083015261323a816131fe565b9050919050565b7f4552433732313a20617070726f76652063616c6c6572206973206e6f7420746f60008201527f6b656e206f776e6572206f7220617070726f76656420666f7220616c6c000000602082015250565b600061329d603d83612a3f565b91506132a882613241565b604082019050919050565b600060208201905081810360008301526132cc81613290565b9050919050565b60006040820190506132e86000830185612b84565b6132f56020830184612b84565b9392505050565b60008151905061330b81612cf8565b92915050565b6000602082840312156133275761332661296f565b5b6000613335848285016132fc565b91505092915050565b7f4552433732313a2063616c6c6572206973206e6f7420746f6b656e206f776e6560008201527f72206f7220617070726f76656400000000000000000000000000000000000000602082015250565b600061339a602d83612a3f565b91506133a58261333e565b604082019050919050565b600060208201905081810360008301526133c98161338d565b9050919050565b7f4552433732313a20696e76616c696420746f6b656e2049440000000000000000600082015250565b6000613406601883612a3f565b9150613411826133d0565b602082019050919050565b60006020820190508181036000830152613435816133f9565b9050919050565b7f4552433732313a2061646472657373207a65726f206973206e6f74206120766160008201527f6c6964206f776e65720000000000000000000000000000000000000000000000602082015250565b6000613498602983612a3f565b91506134a38261343c565b604082019050919050565b600060208201905081810360008301526134c78161348b565b9050919050565b7f456163682061646472657373206d6179206f6e6c79206d696e742078204e465460008201527f7321000000000000000000000000000000000000000000000000000000000000602082015250565b600061352a602283612a3f565b9150613535826134ce565b604082019050919050565b600060208201905081810360008301526135598161351d565b9050919050565b7f4e6f206d6f7265204e465420617661696c61626c6520746f206d696e74210000600082015250565b6000613596601e83612a3f565b91506135a182613560565b602082019050919050565b600060208201905081810360008301526135c581613589565b9050919050565b60008160601b9050919050565b60006135e4826135cc565b9050919050565b60006135f6826135d9565b9050919050565b61360e61360982612b72565b6135eb565b82525050565b600061362082846135fd565b60148201915081905092915050565b7f596f7520617265206e6f742077686974656c6973746564000000000000000000600082015250565b6000613665601783612a3f565b91506136708261362f565b602082019050919050565b6000602082019050818103600083015261369481613658565b9050919050565b7f4e487b7100000000000000000000000000000000000000000000000000000000600052601160045260246000fd5b60006136d582612aef565b91506136e083612aef565b9250827fffffffffffffffffffffffffffffffffffffffffffffffffffffffffffffffff038211156137155761371461369b565b5b828201905092915050565b7f4552433732314d657461646174613a2055524920717565727920666f72206e6f60008201527f6e6578697374656e7420746f6b656e0000000000000000000000000000000000602082015250565b600061377c602f83612a3f565b915061378782613720565b604082019050919050565b600060208201905081810360008301526137ab8161376f565b9050919050565b600081905092915050565b60006137c882612a34565b6137d281856137b2565b93506137e2818560208601612a50565b80840191505092915050565b60008190508160005260206000209050919050565b600081546138108161317e565b61381a81866137b2565b94506001821660008114613835576001811461384657613879565b60ff19831686528186019350613879565b61384f856137ee565b60005b8381101561387157815481890152600182019150602081019050613852565b838801955050505b50505092915050565b600061388e82866137bd565b915061389a82856137bd565b91506138a68284613803565b9150819050949350505050565b7f4f776e61626c653a206e6577206f776e657220697320746865207a65726f206160008201527f6464726573730000000000000000000000000000000000000000000000000000602082015250565b600061390f602683612a3f565b915061391a826138b3565b604082019050919050565b6000602082019050818103600083015261393e81613902565b9050919050565b7f4f776e61626c653a2063616c6c6572206973206e6f7420746865206f776e6572600082015250565b600061397b602083612a3f565b915061398682613945565b602082019050919050565b600060208201905081810360008301526139aa8161396e565b9050919050565b7f4552433732313a20617070726f766520746f2063616c6c657200000000000000600082015250565b60006139e7601983612a3f565b91506139f2826139b1565b602082019050919050565b60006020820190508181036000830152613a16816139da565b9050919050565b7f4e487b7100000000000000000000000000000000000000000000000000000000600052601260045260246000fd5b7f4552433732313a207472616e736665722066726f6d20696e636f72726563742060008201527f6f776e6572000000000000000000000000000000000000000000000000000000602082015250565b6000613aa8602583612a3f565b9150613ab382613a4c565b604082019050919050565b60006020820190508181036000830152613ad781613a9b565b9050919050565b7f4552433732313a207472616e7366657220746f20746865207a65726f2061646460008201527f7265737300000000000000000000000000000000000000000000000000000000602082015250565b6000613b3a602483612a3f565b9150613b4582613ade565b604082019050919050565b60006020820190508181036000830152613b6981613b2d565b9050919050565b6000613b7b82612aef565b9150613b8683612aef565b925082821015613b9957613b9861369b565b5b828203905092915050565b7f4552433732313a207472616e7366657220746f206e6f6e20455243373231526560008201527f63656976657220696d706c656d656e7465720000000000000000000000000000602082015250565b6000613c00603283612a3f565b9150613c0b82613ba4565b604082019050919050565b60006020820190508181036000830152613c2f81613bf3565b9050919050565b7f4e487b7100000000000000000000000000000000000000000000000000000000600052603260045260246000fd5b6000613c7082612aef565b91507fffffffffffffffffffffffffffffffffffffffffffffffffffffffffffffffff8203613ca257613ca161369b565b5b600182019050919050565b7f4552433732313a206d696e7420746f20746865207a65726f2061646472657373600082015250565b6000613ce3602083612a3f565b9150613cee82613cad565b602082019050919050565b60006020820190508181036000830152613d1281613cd6565b9050919050565b7f4552433732313a20746f6b656e20616c7265616479206d696e74656400000000600082015250565b6000613d4f601c83612a3f565b9150613d5a82613d19565b602082019050919050565b60006020820190508181036000830152613d7e81613d42565b9050919050565b600081519050919050565b600082825260208201905092915050565b6000613dac82613d85565b613db68185613d90565b9350613dc6818560208601612a50565b613dcf81612a83565b840191505092915050565b6000608082019050613def6000830187612b84565b613dfc6020830186612b84565b613e096040830185612cce565b8181036060830152613e1b8184613da1565b905095945050505050565b600081519050613e35816129a5565b92915050565b600060208284031215613e5157613e5061296f565b5b6000613e5f84828501613e26565b9150509291505056fe697066733a2f2f516d65614134776278544850457035384b536b6776665773315a705552536d326372597357333553574d50776f4d2f697066733a2f2f516d646d5350614e4661427a56523347534644666d50374447394a6461686e4475315039344c35483434593544522fa26469706673582212205612701bbd5d12b06d290006ef8c2c082b81673271ba9bcdc59af963683e51af64736f6c634300080d0033",
  "linkReferences": {},
  "deployedLinkReferences": {}
}